{
	"CryDapeSBT.sol": {
		"CryDapeSBT": {
			"abi": [
				{
					"inputs": [],
					"stateMutability": "nonpayable",
					"type": "constructor"
				},
				{
					"anonymous": false,
					"inputs": [
						{
							"indexed": true,
							"internalType": "address",
							"name": "owner",
							"type": "address"
						},
						{
							"indexed": true,
							"internalType": "address",
							"name": "approved",
							"type": "address"
						},
						{
							"indexed": true,
							"internalType": "uint256",
							"name": "tokenId",
							"type": "uint256"
						}
					],
					"name": "Approval",
					"type": "event"
				},
				{
					"anonymous": false,
					"inputs": [
						{
							"indexed": true,
							"internalType": "address",
							"name": "owner",
							"type": "address"
						},
						{
							"indexed": true,
							"internalType": "address",
							"name": "operator",
							"type": "address"
						},
						{
							"indexed": false,
							"internalType": "bool",
							"name": "approved",
							"type": "bool"
						}
					],
					"name": "ApprovalForAll",
					"type": "event"
				},
				{
					"anonymous": false,
					"inputs": [
						{
							"indexed": true,
							"internalType": "address",
							"name": "to",
							"type": "address"
						},
						{
							"indexed": true,
							"internalType": "uint256",
							"name": "tokenId",
							"type": "uint256"
						}
					],
					"name": "Attest",
					"type": "event"
				},
				{
					"anonymous": false,
					"inputs": [
						{
							"indexed": true,
							"internalType": "address",
							"name": "previousOwner",
							"type": "address"
						},
						{
							"indexed": true,
							"internalType": "address",
							"name": "newOwner",
							"type": "address"
						}
					],
					"name": "OwnershipTransferred",
					"type": "event"
				},
				{
					"anonymous": false,
					"inputs": [
						{
							"indexed": true,
							"internalType": "address",
							"name": "to",
							"type": "address"
						},
						{
							"indexed": true,
							"internalType": "uint256",
							"name": "tokenId",
							"type": "uint256"
						}
					],
					"name": "Revoke",
					"type": "event"
				},
				{
					"anonymous": false,
					"inputs": [
						{
							"indexed": true,
							"internalType": "address",
							"name": "from",
							"type": "address"
						},
						{
							"indexed": true,
							"internalType": "address",
							"name": "to",
							"type": "address"
						},
						{
							"indexed": true,
							"internalType": "uint256",
							"name": "tokenId",
							"type": "uint256"
						}
					],
					"name": "Transfer",
					"type": "event"
				},
				{
					"inputs": [
						{
							"internalType": "address",
							"name": "to",
							"type": "address"
						},
						{
							"internalType": "uint256",
							"name": "tokenId",
							"type": "uint256"
						}
					],
					"name": "approve",
					"outputs": [],
					"stateMutability": "nonpayable",
					"type": "function"
				},
				{
					"inputs": [
						{
							"internalType": "address",
							"name": "owner",
							"type": "address"
						}
					],
					"name": "balanceOf",
					"outputs": [
						{
							"internalType": "uint256",
							"name": "",
							"type": "uint256"
						}
					],
					"stateMutability": "view",
					"type": "function"
				},
				{
					"inputs": [
						{
							"internalType": "uint256",
							"name": "tokenId",
							"type": "uint256"
						}
					],
					"name": "burn",
					"outputs": [],
					"stateMutability": "nonpayable",
					"type": "function"
				},
				{
					"inputs": [
						{
							"internalType": "uint256",
							"name": "tokenId",
							"type": "uint256"
						}
					],
					"name": "getApproved",
					"outputs": [
						{
							"internalType": "address",
							"name": "",
							"type": "address"
						}
					],
					"stateMutability": "view",
					"type": "function"
				},
				{
					"inputs": [
						{
							"internalType": "address",
							"name": "owner",
							"type": "address"
						},
						{
							"internalType": "address",
							"name": "operator",
							"type": "address"
						}
					],
					"name": "isApprovedForAll",
					"outputs": [
						{
							"internalType": "bool",
							"name": "",
							"type": "bool"
						}
					],
					"stateMutability": "view",
					"type": "function"
				},
				{
					"inputs": [],
					"name": "name",
					"outputs": [
						{
							"internalType": "string",
							"name": "",
							"type": "string"
						}
					],
					"stateMutability": "view",
					"type": "function"
				},
				{
					"inputs": [],
					"name": "owner",
					"outputs": [
						{
							"internalType": "address",
							"name": "",
							"type": "address"
						}
					],
					"stateMutability": "view",
					"type": "function"
				},
				{
					"inputs": [
						{
							"internalType": "uint256",
							"name": "tokenId",
							"type": "uint256"
						}
					],
					"name": "ownerOf",
					"outputs": [
						{
							"internalType": "address",
							"name": "",
							"type": "address"
						}
					],
					"stateMutability": "view",
					"type": "function"
				},
				{
					"inputs": [],
					"name": "renounceOwnership",
					"outputs": [],
					"stateMutability": "nonpayable",
					"type": "function"
				},
				{
					"inputs": [
						{
							"internalType": "uint256",
							"name": "tokenId",
							"type": "uint256"
						}
					],
					"name": "revoke",
					"outputs": [],
					"stateMutability": "nonpayable",
					"type": "function"
				},
				{
					"inputs": [
						{
							"internalType": "address",
							"name": "to",
							"type": "address"
						}
					],
					"name": "safeMint",
					"outputs": [],
					"stateMutability": "nonpayable",
					"type": "function"
				},
				{
					"inputs": [
						{
							"internalType": "address",
							"name": "from",
							"type": "address"
						},
						{
							"internalType": "address",
							"name": "to",
							"type": "address"
						},
						{
							"internalType": "uint256",
							"name": "tokenId",
							"type": "uint256"
						}
					],
					"name": "safeTransferFrom",
					"outputs": [],
					"stateMutability": "nonpayable",
					"type": "function"
				},
				{
					"inputs": [
						{
							"internalType": "address",
							"name": "from",
							"type": "address"
						},
						{
							"internalType": "address",
							"name": "to",
							"type": "address"
						},
						{
							"internalType": "uint256",
							"name": "tokenId",
							"type": "uint256"
						},
						{
							"internalType": "bytes",
							"name": "data",
							"type": "bytes"
						}
					],
					"name": "safeTransferFrom",
					"outputs": [],
					"stateMutability": "nonpayable",
					"type": "function"
				},
				{
					"inputs": [
						{
							"internalType": "address",
							"name": "operator",
							"type": "address"
						},
						{
							"internalType": "bool",
							"name": "approved",
							"type": "bool"
						}
					],
					"name": "setApprovalForAll",
					"outputs": [],
					"stateMutability": "nonpayable",
					"type": "function"
				},
				{
					"inputs": [
						{
							"internalType": "bytes4",
							"name": "interfaceId",
							"type": "bytes4"
						}
					],
					"name": "supportsInterface",
					"outputs": [
						{
							"internalType": "bool",
							"name": "",
							"type": "bool"
						}
					],
					"stateMutability": "view",
					"type": "function"
				},
				{
					"inputs": [],
					"name": "symbol",
					"outputs": [
						{
							"internalType": "string",
							"name": "",
							"type": "string"
						}
					],
					"stateMutability": "view",
					"type": "function"
				},
				{
					"inputs": [
						{
							"internalType": "uint256",
							"name": "",
							"type": "uint256"
						}
					],
					"name": "tokenURI",
					"outputs": [
						{
							"internalType": "string",
							"name": "",
							"type": "string"
						}
					],
					"stateMutability": "pure",
					"type": "function"
				},
				{
					"inputs": [
						{
							"internalType": "address",
							"name": "from",
							"type": "address"
						},
						{
							"internalType": "address",
							"name": "to",
							"type": "address"
						},
						{
							"internalType": "uint256",
							"name": "tokenId",
							"type": "uint256"
						}
					],
					"name": "transferFrom",
					"outputs": [],
					"stateMutability": "nonpayable",
					"type": "function"
				},
				{
					"inputs": [
						{
							"internalType": "address",
							"name": "newOwner",
							"type": "address"
						}
					],
					"name": "transferOwnership",
					"outputs": [],
					"stateMutability": "nonpayable",
					"type": "function"
				}
			],
			"devdoc": {
				"events": {
					"Approval(address,address,uint256)": {
						"details": "Emitted when `owner` enables `approved` to manage the `tokenId` token."
					},
					"ApprovalForAll(address,address,bool)": {
						"details": "Emitted when `owner` enables or disables (`approved`) `operator` to manage all of its assets."
					},
					"Transfer(address,address,uint256)": {
						"details": "Emitted when `tokenId` token is transferred from `from` to `to`."
					}
				},
				"kind": "dev",
				"methods": {
					"approve(address,uint256)": {
						"details": "See {IERC721-approve}."
					},
					"balanceOf(address)": {
						"details": "See {IERC721-balanceOf}."
					},
					"getApproved(uint256)": {
						"details": "See {IERC721-getApproved}."
					},
					"isApprovedForAll(address,address)": {
						"details": "See {IERC721-isApprovedForAll}."
					},
					"name()": {
						"details": "See {IERC721Metadata-name}."
					},
					"owner()": {
						"details": "Returns the address of the current owner."
					},
					"ownerOf(uint256)": {
						"details": "See {IERC721-ownerOf}."
					},
					"renounceOwnership()": {
						"details": "Leaves the contract without owner. It will not be possible to call `onlyOwner` functions anymore. Can only be called by the current owner. NOTE: Renouncing ownership will leave the contract without an owner, thereby removing any functionality that is only available to the owner."
					},
					"safeTransferFrom(address,address,uint256)": {
						"details": "See {IERC721-safeTransferFrom}."
					},
					"safeTransferFrom(address,address,uint256,bytes)": {
						"details": "See {IERC721-safeTransferFrom}."
					},
					"setApprovalForAll(address,bool)": {
						"details": "See {IERC721-setApprovalForAll}."
					},
					"supportsInterface(bytes4)": {
						"details": "See {IERC165-supportsInterface}."
					},
					"symbol()": {
						"details": "See {IERC721Metadata-symbol}."
					},
					"transferFrom(address,address,uint256)": {
						"details": "See {IERC721-transferFrom}."
					},
					"transferOwnership(address)": {
						"details": "Transfers ownership of the contract to a new account (`newOwner`). Can only be called by the current owner."
					}
				},
				"version": 1
			},
			"evm": {
				"assembly": "    /* \"CryDapeSBT.sol\":334:2390  contract CryDapeSBT is ERC721, ERC721URIStorage, Ownable {... */\n  mstore(0x40, 0x80)\n    /* \"CryDapeSBT.sol\":653:697  constructor() ERC721(\"CryDapeSBT\", \"CSB\") {} */\n  callvalue\n  dup1\n  iszero\n  tag_1\n  jumpi\n  0x00\n  dup1\n  revert\ntag_1:\n  pop\n    /* \"@openzeppelin/contracts@4.7.3/token/ERC721/ERC721.sol\":1390:1503  constructor(string memory name_, string memory symbol_) {... */\n  mload(0x40)\n  dup1\n  0x40\n  add\n  0x40\n  mstore\n  dup1\n  0x0a\n  dup2\n  mstore\n  0x20\n  add\n  shl(0xb2, 0x10dc9e51185c1954d095)\n  dup2\n  mstore\n  pop\n  mload(0x40)\n  dup1\n  0x40\n  add\n  0x40\n  mstore\n  dup1\n  0x03\n  dup2\n  mstore\n  0x20\n  add\n  shl(0xe9, 0x21a9a1)\n  dup2\n  mstore\n  pop\n    /* \"@openzeppelin/contracts@4.7.3/token/ERC721/ERC721.sol\":1464:1469  name_ */\n  dup2\n    /* \"@openzeppelin/contracts@4.7.3/token/ERC721/ERC721.sol\":1456:1461  _name */\n  0x00\n    /* \"@openzeppelin/contracts@4.7.3/token/ERC721/ERC721.sol\":1456:1469  _name = name_ */\n  swap1\n  dup2\n  tag_6\n  swap2\n  swap1\n  tag_7\n  jump\t// in\ntag_6:\n  pop\n    /* \"@openzeppelin/contracts@4.7.3/token/ERC721/ERC721.sol\":1479:1486  _symbol */\n  0x01\n    /* \"@openzeppelin/contracts@4.7.3/token/ERC721/ERC721.sol\":1479:1496  _symbol = symbol_ */\n  tag_8\n    /* \"@openzeppelin/contracts@4.7.3/token/ERC721/ERC721.sol\":1489:1496  symbol_ */\n  dup3\n    /* \"@openzeppelin/contracts@4.7.3/token/ERC721/ERC721.sol\":1479:1486  _symbol */\n  dup3\n    /* \"@openzeppelin/contracts@4.7.3/token/ERC721/ERC721.sol\":1479:1496  _symbol = symbol_ */\n  tag_7\n  jump\t// in\ntag_8:\n  pop\n    /* \"@openzeppelin/contracts@4.7.3/token/ERC721/ERC721.sol\":1390:1503  constructor(string memory name_, string memory symbol_) {... */\n  pop\n  pop\n    /* \"@openzeppelin/contracts@4.7.3/access/Ownable.sol\":936:968  _transferOwnership(_msgSender()) */\n  tag_10\n    /* \"@openzeppelin/contracts@4.7.3/access/Ownable.sol\":955:967  _msgSender() */\n  tag_11\n    /* \"@openzeppelin/contracts@4.7.3/access/Ownable.sol\":955:965  _msgSender */\n  shl(0x20, tag_12)\n    /* \"@openzeppelin/contracts@4.7.3/access/Ownable.sol\":955:967  _msgSender() */\n  0x20\n  shr\n  jump\t// in\ntag_11:\n    /* \"@openzeppelin/contracts@4.7.3/access/Ownable.sol\":936:954  _transferOwnership */\n  tag_13\n    /* \"@openzeppelin/contracts@4.7.3/access/Ownable.sol\":936:968  _transferOwnership(_msgSender()) */\n  jump\t// in\ntag_10:\n    /* \"CryDapeSBT.sol\":334:2390  contract CryDapeSBT is ERC721, ERC721URIStorage, Ownable {... */\n  jump(tag_23)\n    /* \"@openzeppelin/contracts@4.7.3/utils/Context.sol\":640:736  function _msgSender() internal view virtual returns (address) {... */\ntag_12:\n    /* \"@openzeppelin/contracts@4.7.3/utils/Context.sol\":719:729  msg.sender */\n  caller\n  swap1\n    /* \"@openzeppelin/contracts@4.7.3/utils/Context.sol\":640:736  function _msgSender() internal view virtual returns (address) {... */\n  jump\t// out\n    /* \"@openzeppelin/contracts@4.7.3/access/Ownable.sol\":2433:2620  function _transferOwnership(address newOwner) internal virtual {... */\ntag_13:\n    /* \"@openzeppelin/contracts@4.7.3/access/Ownable.sol\":2525:2531  _owner */\n  0x07\n  dup1\n  sload\n  sub(shl(0xa0, 0x01), 0x01)\n    /* \"@openzeppelin/contracts@4.7.3/access/Ownable.sol\":2541:2558  _owner = newOwner */\n  dup4\n  dup2\n  and\n  not(sub(shl(0xa0, 0x01), 0x01))\n  dup4\n  and\n  dup2\n  or\n  swap1\n  swap4\n  sstore\n    /* \"@openzeppelin/contracts@4.7.3/access/Ownable.sol\":2573:2613  OwnershipTransferred(oldOwner, newOwner) */\n  mload(0x40)\n    /* \"@openzeppelin/contracts@4.7.3/access/Ownable.sol\":2525:2531  _owner */\n  swap2\n  and\n  swap2\n    /* \"@openzeppelin/contracts@4.7.3/access/Ownable.sol\":2541:2558  _owner = newOwner */\n  swap1\n    /* \"@openzeppelin/contracts@4.7.3/access/Ownable.sol\":2525:2531  _owner */\n  dup3\n  swap1\n    /* \"@openzeppelin/contracts@4.7.3/access/Ownable.sol\":2573:2613  OwnershipTransferred(oldOwner, newOwner) */\n  0x8be0079c531659141344cd1fd0a4f28419497f9722a3daafe3b4186f6b6457e0\n  swap1\n    /* \"@openzeppelin/contracts@4.7.3/access/Ownable.sol\":2506:2522  address oldOwner */\n  0x00\n  swap1\n    /* \"@openzeppelin/contracts@4.7.3/access/Ownable.sol\":2573:2613  OwnershipTransferred(oldOwner, newOwner) */\n  log3\n    /* \"@openzeppelin/contracts@4.7.3/access/Ownable.sol\":2496:2620  {... */\n  pop\n    /* \"@openzeppelin/contracts@4.7.3/access/Ownable.sol\":2433:2620  function _transferOwnership(address newOwner) internal virtual {... */\n  pop\n  jump\t// out\n    /* \"#utility.yul\":14:141   */\ntag_18:\n    /* \"#utility.yul\":75:85   */\n  0x4e487b71\n    /* \"#utility.yul\":70:73   */\n  0xe0\n    /* \"#utility.yul\":66:86   */\n  shl\n    /* \"#utility.yul\":63:64   */\n  0x00\n    /* \"#utility.yul\":56:87   */\n  mstore\n    /* \"#utility.yul\":106:110   */\n  0x41\n    /* \"#utility.yul\":103:104   */\n  0x04\n    /* \"#utility.yul\":96:111   */\n  mstore\n    /* \"#utility.yul\":130:134   */\n  0x24\n    /* \"#utility.yul\":127:128   */\n  0x00\n    /* \"#utility.yul\":120:135   */\n  revert\n    /* \"#utility.yul\":146:526   */\ntag_19:\n    /* \"#utility.yul\":225:226   */\n  0x01\n    /* \"#utility.yul\":221:233   */\n  dup2\n  dup2\n  shr\n  swap1\n    /* \"#utility.yul\":268:280   */\n  dup3\n  and\n  dup1\n    /* \"#utility.yul\":289:350   */\n  tag_26\n  jumpi\n    /* \"#utility.yul\":343:347   */\n  0x7f\n    /* \"#utility.yul\":335:341   */\n  dup3\n    /* \"#utility.yul\":331:348   */\n  and\n    /* \"#utility.yul\":321:348   */\n  swap2\n  pop\n    /* \"#utility.yul\":289:350   */\ntag_26:\n    /* \"#utility.yul\":396:398   */\n  0x20\n    /* \"#utility.yul\":388:394   */\n  dup3\n    /* \"#utility.yul\":385:399   */\n  lt\n    /* \"#utility.yul\":365:383   */\n  dup2\n    /* \"#utility.yul\":362:400   */\n  sub\n    /* \"#utility.yul\":359:520   */\n  tag_27\n  jumpi\n    /* \"#utility.yul\":442:452   */\n  0x4e487b71\n    /* \"#utility.yul\":437:440   */\n  0xe0\n    /* \"#utility.yul\":433:453   */\n  shl\n    /* \"#utility.yul\":430:431   */\n  0x00\n    /* \"#utility.yul\":423:454   */\n  mstore\n    /* \"#utility.yul\":477:481   */\n  0x22\n    /* \"#utility.yul\":474:475   */\n  0x04\n    /* \"#utility.yul\":467:482   */\n  mstore\n    /* \"#utility.yul\":505:509   */\n  0x24\n    /* \"#utility.yul\":502:503   */\n  0x00\n    /* \"#utility.yul\":495:510   */\n  revert\n    /* \"#utility.yul\":359:520   */\ntag_27:\n  pop\n    /* \"#utility.yul\":146:526   */\n  swap2\n  swap1\n  pop\n  jump\t// out\n    /* \"#utility.yul\":657:1175   */\ntag_21:\n    /* \"#utility.yul\":759:761   */\n  0x1f\n    /* \"#utility.yul\":754:757   */\n  dup3\n    /* \"#utility.yul\":751:762   */\n  gt\n    /* \"#utility.yul\":748:1169   */\n  iszero\n  tag_30\n  jumpi\n    /* \"#utility.yul\":795:800   */\n  dup1\n    /* \"#utility.yul\":792:793   */\n  0x00\n    /* \"#utility.yul\":785:801   */\n  mstore\n    /* \"#utility.yul\":839:843   */\n  0x20\n    /* \"#utility.yul\":836:837   */\n  0x00\n    /* \"#utility.yul\":826:844   */\n  keccak256\n    /* \"#utility.yul\":909:911   */\n  0x1f\n    /* \"#utility.yul\":897:907   */\n  dup5\n    /* \"#utility.yul\":893:912   */\n  add\n    /* \"#utility.yul\":890:891   */\n  0x05\n    /* \"#utility.yul\":886:913   */\n  shr\n    /* \"#utility.yul\":880:884   */\n  dup2\n    /* \"#utility.yul\":876:914   */\n  add\n    /* \"#utility.yul\":945:949   */\n  0x20\n    /* \"#utility.yul\":933:943   */\n  dup6\n    /* \"#utility.yul\":930:950   */\n  lt\n    /* \"#utility.yul\":927:974   */\n  iszero\n  tag_31\n  jumpi\n  pop\n    /* \"#utility.yul\":968:972   */\n  dup1\n    /* \"#utility.yul\":927:974   */\ntag_31:\n    /* \"#utility.yul\":1023:1025   */\n  0x1f\n    /* \"#utility.yul\":1018:1021   */\n  dup5\n    /* \"#utility.yul\":1014:1026   */\n  add\n    /* \"#utility.yul\":1011:1012   */\n  0x05\n    /* \"#utility.yul\":1007:1027   */\n  shr\n    /* \"#utility.yul\":1001:1005   */\n  dup3\n    /* \"#utility.yul\":997:1028   */\n  add\n    /* \"#utility.yul\":987:1028   */\n  swap2\n  pop\n    /* \"#utility.yul\":1078:1159   */\ntag_32:\n    /* \"#utility.yul\":1096:1098   */\n  dup2\n    /* \"#utility.yul\":1089:1094   */\n  dup2\n    /* \"#utility.yul\":1086:1099   */\n  lt\n    /* \"#utility.yul\":1078:1159   */\n  iszero\n  tag_34\n  jumpi\n    /* \"#utility.yul\":1155:1156   */\n  0x00\n    /* \"#utility.yul\":1141:1157   */\n  dup2\n  sstore\n    /* \"#utility.yul\":1122:1123   */\n  0x01\n    /* \"#utility.yul\":1111:1124   */\n  add\n    /* \"#utility.yul\":1078:1159   */\n  jump(tag_32)\ntag_34:\n    /* \"#utility.yul\":1082:1085   */\n  pop\n  pop\n    /* \"#utility.yul\":748:1169   */\ntag_30:\n    /* \"#utility.yul\":657:1175   */\n  pop\n  pop\n  pop\n  jump\t// out\n    /* \"#utility.yul\":1351:2696   */\ntag_7:\n    /* \"#utility.yul\":1471:1481   */\n  dup2\n  mload\n  sub(shl(0x40, 0x01), 0x01)\n    /* \"#utility.yul\":1493:1523   */\n  dup2\n  gt\n    /* \"#utility.yul\":1490:1546   */\n  iszero\n  tag_38\n  jumpi\n    /* \"#utility.yul\":1526:1544   */\n  tag_38\n  tag_18\n  jump\t// in\ntag_38:\n    /* \"#utility.yul\":1555:1652   */\n  tag_39\n    /* \"#utility.yul\":1645:1651   */\n  dup2\n    /* \"#utility.yul\":1605:1643   */\n  tag_40\n    /* \"#utility.yul\":1637:1641   */\n  dup5\n    /* \"#utility.yul\":1631:1642   */\n  sload\n    /* \"#utility.yul\":1605:1643   */\n  tag_19\n  jump\t// in\ntag_40:\n    /* \"#utility.yul\":1599:1603   */\n  dup5\n    /* \"#utility.yul\":1555:1652   */\n  tag_21\n  jump\t// in\ntag_39:\n    /* \"#utility.yul\":1707:1711   */\n  0x20\n  dup1\n    /* \"#utility.yul\":1764:1766   */\n  0x1f\n    /* \"#utility.yul\":1753:1767   */\n  dup4\n  gt\n    /* \"#utility.yul\":1781:1782   */\n  0x01\n    /* \"#utility.yul\":1776:2439   */\n  dup2\n  eq\n  tag_42\n  jumpi\n    /* \"#utility.yul\":2483:2484   */\n  0x00\n    /* \"#utility.yul\":2500:2506   */\n  dup5\n    /* \"#utility.yul\":2497:2586   */\n  iszero\n  tag_43\n  jumpi\n  pop\n    /* \"#utility.yul\":2552:2571   */\n  dup6\n  dup4\n  add\n    /* \"#utility.yul\":2546:2572   */\n  mload\n    /* \"#utility.yul\":2497:2586   */\ntag_43:\n  not(0x00)\n    /* \"#utility.yul\":1308:1309   */\n  0x03\n    /* \"#utility.yul\":1304:1315   */\n  dup7\n  swap1\n  shl\n    /* \"#utility.yul\":1300:1324   */\n  shr\n    /* \"#utility.yul\":1296:1325   */\n  not\n    /* \"#utility.yul\":1286:1326   */\n  and\n    /* \"#utility.yul\":1332:1333   */\n  0x01\n    /* \"#utility.yul\":1328:1339   */\n  dup6\n  swap1\n  shl\n    /* \"#utility.yul\":1283:1340   */\n  or\n    /* \"#utility.yul\":2599:2680   */\n  dup6\n  sstore\n    /* \"#utility.yul\":1746:2690   */\n  jump(tag_41)\n    /* \"#utility.yul\":1776:2439   */\ntag_42:\n    /* \"#utility.yul\":604:605   */\n  0x00\n    /* \"#utility.yul\":597:611   */\n  dup6\n  dup2\n  mstore\n    /* \"#utility.yul\":641:645   */\n  0x20\n    /* \"#utility.yul\":628:646   */\n  dup2\n  keccak256\n  not(0x1f)\n    /* \"#utility.yul\":1812:1832   */\n  dup7\n  and\n  swap2\n    /* \"#utility.yul\":1930:2166   */\ntag_46:\n    /* \"#utility.yul\":1944:1951   */\n  dup3\n    /* \"#utility.yul\":1941:1942   */\n  dup2\n    /* \"#utility.yul\":1938:1952   */\n  lt\n    /* \"#utility.yul\":1930:2166   */\n  iszero\n  tag_48\n  jumpi\n    /* \"#utility.yul\":2033:2052   */\n  dup9\n  dup7\n  add\n    /* \"#utility.yul\":2027:2053   */\n  mload\n    /* \"#utility.yul\":2012:2054   */\n  dup3\n  sstore\n    /* \"#utility.yul\":2125:2152   */\n  swap5\n  dup5\n  add\n  swap5\n    /* \"#utility.yul\":2093:2094   */\n  0x01\n    /* \"#utility.yul\":2081:2095   */\n  swap1\n  swap2\n  add\n  swap1\n    /* \"#utility.yul\":1960:1979   */\n  dup5\n  add\n    /* \"#utility.yul\":1930:2166   */\n  jump(tag_46)\ntag_48:\n    /* \"#utility.yul\":1934:1937   */\n  pop\n    /* \"#utility.yul\":2194:2200   */\n  dup6\n    /* \"#utility.yul\":2185:2192   */\n  dup3\n    /* \"#utility.yul\":2182:2201   */\n  lt\n    /* \"#utility.yul\":2179:2380   */\n  iszero\n  tag_49\n  jumpi\n    /* \"#utility.yul\":2255:2274   */\n  dup8\n  dup6\n  add\n    /* \"#utility.yul\":2249:2275   */\n  mload\n  not(0x00)\n    /* \"#utility.yul\":2338:2339   */\n  0x03\n    /* \"#utility.yul\":2334:2348   */\n  dup9\n  swap1\n  shl\n    /* \"#utility.yul\":2350:2353   */\n  0xf8\n    /* \"#utility.yul\":2330:2354   */\n  and\n    /* \"#utility.yul\":2326:2363   */\n  shr\n    /* \"#utility.yul\":2322:2364   */\n  not\n    /* \"#utility.yul\":2307:2365   */\n  and\n    /* \"#utility.yul\":2292:2366   */\n  dup2\n  sstore\n    /* \"#utility.yul\":2179:2380   */\ntag_49:\n  pop\n  pop\n    /* \"#utility.yul\":2426:2427   */\n  0x01\n    /* \"#utility.yul\":2417:2423   */\n  dup5\n    /* \"#utility.yul\":2414:2415   */\n  0x01\n    /* \"#utility.yul\":2410:2424   */\n  shl\n    /* \"#utility.yul\":2406:2428   */\n  add\n    /* \"#utility.yul\":2400:2404   */\n  dup6\n    /* \"#utility.yul\":2393:2429   */\n  sstore\n    /* \"#utility.yul\":1746:2690   */\ntag_41:\n  pop\n  pop\n  pop\n  pop\n    /* \"#utility.yul\":1351:2696   */\n  pop\n  pop\n  jump\t// out\ntag_23:\n    /* \"CryDapeSBT.sol\":334:2390  contract CryDapeSBT is ERC721, ERC721URIStorage, Ownable {... */\n  dataSize(sub_0)\n  dup1\n  dataOffset(sub_0)\n  0x00\n  codecopy\n  0x00\n  return\nstop\n\nsub_0: assembly {\n        /* \"CryDapeSBT.sol\":334:2390  contract CryDapeSBT is ERC721, ERC721URIStorage, Ownable {... */\n      mstore(0x40, 0x80)\n      callvalue\n      dup1\n      iszero\n      tag_1\n      jumpi\n      0x00\n      dup1\n      revert\n    tag_1:\n      pop\n      jumpi(tag_2, lt(calldatasize, 0x04))\n      shr(0xe0, calldataload(0x00))\n      dup1\n      0x6352211e\n      gt\n      tag_22\n      jumpi\n      dup1\n      0xa22cb465\n      gt\n      tag_23\n      jumpi\n      dup1\n      0xa22cb465\n      eq\n      tag_17\n      jumpi\n      dup1\n      0xb88d4fde\n      eq\n      tag_18\n      jumpi\n      dup1\n      0xc87b56dd\n      eq\n      tag_19\n      jumpi\n      dup1\n      0xe985e9c5\n      eq\n      tag_20\n      jumpi\n      dup1\n      0xf2fde38b\n      eq\n      tag_21\n      jumpi\n      0x00\n      dup1\n      revert\n    tag_23:\n      dup1\n      0x6352211e\n      eq\n      tag_12\n      jumpi\n      dup1\n      0x70a08231\n      eq\n      tag_13\n      jumpi\n      dup1\n      0x715018a6\n      eq\n      tag_14\n      jumpi\n      dup1\n      0x8da5cb5b\n      eq\n      tag_15\n      jumpi\n      dup1\n      0x95d89b41\n      eq\n      tag_16\n      jumpi\n      0x00\n      dup1\n      revert\n    tag_22:\n      dup1\n      0x20c5429b\n      gt\n      tag_24\n      jumpi\n      dup1\n      0x20c5429b\n      eq\n      tag_7\n      jumpi\n      dup1\n      0x23b872dd\n      eq\n      tag_8\n      jumpi\n      dup1\n      0x40d097c3\n      eq\n      tag_9\n      jumpi\n      dup1\n      0x42842e0e\n      eq\n      tag_10\n      jumpi\n      dup1\n      0x42966c68\n      eq\n      tag_11\n      jumpi\n      0x00\n      dup1\n      revert\n    tag_24:\n      dup1\n      0x01ffc9a7\n      eq\n      tag_3\n      jumpi\n      dup1\n      0x06fdde03\n      eq\n      tag_4\n      jumpi\n      dup1\n      0x081812fc\n      eq\n      tag_5\n      jumpi\n      dup1\n      0x095ea7b3\n      eq\n      tag_6\n      jumpi\n    tag_2:\n      0x00\n      dup1\n      revert\n        /* \"@openzeppelin/contracts@4.7.3/token/ERC721/ERC721.sol\":1570:1870  function supportsInterface(bytes4 interfaceId) public view virtual override(ERC165, IERC165) returns (bool) {... */\n    tag_3:\n      tag_25\n      tag_26\n      calldatasize\n      0x04\n      tag_27\n      jump\t// in\n    tag_26:\n      tag_28\n      jump\t// in\n    tag_25:\n      mload(0x40)\n        /* \"#utility.yul\":565:579   */\n      swap1\n      iszero\n        /* \"#utility.yul\":558:580   */\n      iszero\n        /* \"#utility.yul\":540:581   */\n      dup2\n      mstore\n        /* \"#utility.yul\":528:530   */\n      0x20\n        /* \"#utility.yul\":513:531   */\n      add\n        /* \"@openzeppelin/contracts@4.7.3/token/ERC721/ERC721.sol\":1570:1870  function supportsInterface(bytes4 interfaceId) public view virtual override(ERC165, IERC165) returns (bool) {... */\n    tag_29:\n      mload(0x40)\n      dup1\n      swap2\n      sub\n      swap1\n      return\n        /* \"@openzeppelin/contracts@4.7.3/token/ERC721/ERC721.sol\":2470:2568  function name() public view virtual override returns (string memory) {... */\n    tag_4:\n      tag_31\n      tag_32\n      jump\t// in\n    tag_31:\n      mload(0x40)\n      tag_29\n      swap2\n      swap1\n      tag_34\n      jump\t// in\n        /* \"@openzeppelin/contracts@4.7.3/token/ERC721/ERC721.sol\":3935:4102  function getApproved(uint256 tokenId) public view virtual override returns (address) {... */\n    tag_5:\n      tag_35\n      tag_36\n      calldatasize\n      0x04\n      tag_37\n      jump\t// in\n    tag_36:\n      tag_38\n      jump\t// in\n    tag_35:\n      mload(0x40)\n      sub(shl(0xa0, 0x01), 0x01)\n        /* \"#utility.yul\":1594:1626   */\n      swap1\n      swap2\n      and\n        /* \"#utility.yul\":1576:1627   */\n      dup2\n      mstore\n        /* \"#utility.yul\":1564:1566   */\n      0x20\n        /* \"#utility.yul\":1549:1567   */\n      add\n        /* \"@openzeppelin/contracts@4.7.3/token/ERC721/ERC721.sol\":3935:4102  function getApproved(uint256 tokenId) public view virtual override returns (address) {... */\n      tag_29\n        /* \"#utility.yul\":1430:1633   */\n      jump\n        /* \"@openzeppelin/contracts@4.7.3/token/ERC721/ERC721.sol\":3467:3874  function approve(address to, uint256 tokenId) public virtual override {... */\n    tag_6:\n      tag_41\n      tag_42\n      calldatasize\n      0x04\n      tag_43\n      jump\t// in\n    tag_42:\n      tag_44\n      jump\t// in\n    tag_41:\n      stop\n        /* \"CryDapeSBT.sol\":1496:1597  function revoke(uint256 tokenId)... */\n    tag_7:\n      tag_41\n      tag_46\n      calldatasize\n      0x04\n      tag_37\n      jump\t// in\n    tag_46:\n      tag_47\n      jump\t// in\n        /* \"@openzeppelin/contracts@4.7.3/token/ERC721/ERC721.sol\":4612:4939  function transferFrom(... */\n    tag_8:\n      tag_41\n      tag_49\n      calldatasize\n      0x04\n      tag_50\n      jump\t// in\n    tag_49:\n      tag_51\n      jump\t// in\n        /* \"CryDapeSBT.sol\":905:1102  function safeMint(address to)... */\n    tag_9:\n      tag_41\n      tag_53\n      calldatasize\n      0x04\n      tag_54\n      jump\t// in\n    tag_53:\n      tag_55\n      jump\t// in\n        /* \"@openzeppelin/contracts@4.7.3/token/ERC721/ERC721.sol\":5005:5184  function safeTransferFrom(... */\n    tag_10:\n      tag_41\n      tag_57\n      calldatasize\n      0x04\n      tag_50\n      jump\t// in\n    tag_57:\n      tag_58\n      jump\t// in\n        /* \"CryDapeSBT.sol\":1318:1488  function burn(uint256 tokenId)... */\n    tag_11:\n      tag_41\n      tag_60\n      calldatasize\n      0x04\n      tag_37\n      jump\t// in\n    tag_60:\n      tag_61\n      jump\t// in\n        /* \"@openzeppelin/contracts@4.7.3/token/ERC721/ERC721.sol\":2190:2408  function ownerOf(uint256 tokenId) public view virtual override returns (address) {... */\n    tag_12:\n      tag_35\n      tag_63\n      calldatasize\n      0x04\n      tag_37\n      jump\t// in\n    tag_63:\n      tag_64\n      jump\t// in\n        /* \"@openzeppelin/contracts@4.7.3/token/ERC721/ERC721.sol\":1929:2133  function balanceOf(address owner) public view virtual override returns (uint256) {... */\n    tag_13:\n      tag_66\n      tag_67\n      calldatasize\n      0x04\n      tag_54\n      jump\t// in\n    tag_67:\n      tag_68\n      jump\t// in\n    tag_66:\n      mload(0x40)\n        /* \"#utility.yul\":2745:2770   */\n      swap1\n      dup2\n      mstore\n        /* \"#utility.yul\":2733:2735   */\n      0x20\n        /* \"#utility.yul\":2718:2736   */\n      add\n        /* \"@openzeppelin/contracts@4.7.3/token/ERC721/ERC721.sol\":1929:2133  function balanceOf(address owner) public view virtual override returns (uint256) {... */\n      tag_29\n        /* \"#utility.yul\":2599:2776   */\n      jump\n        /* \"@openzeppelin/contracts@4.7.3/access/Ownable.sol\":1831:1932  function renounceOwnership() public virtual onlyOwner {... */\n    tag_14:\n      tag_41\n      tag_72\n      jump\t// in\n        /* \"@openzeppelin/contracts@4.7.3/access/Ownable.sol\":1201:1286  function owner() public view virtual returns (address) {... */\n    tag_15:\n        /* \"@openzeppelin/contracts@4.7.3/access/Ownable.sol\":1273:1279  _owner */\n      and(sub(shl(0xa0, 0x01), 0x01), sload(0x07))\n        /* \"@openzeppelin/contracts@4.7.3/access/Ownable.sol\":1201:1286  function owner() public view virtual returns (address) {... */\n      jump(tag_35)\n        /* \"@openzeppelin/contracts@4.7.3/token/ERC721/ERC721.sol\":2632:2734  function symbol() public view virtual override returns (string memory) {... */\n    tag_16:\n      tag_31\n      tag_77\n      jump\t// in\n        /* \"@openzeppelin/contracts@4.7.3/token/ERC721/ERC721.sol\":4169:4322  function setApprovalForAll(address operator, bool approved) public virtual override {... */\n    tag_17:\n      tag_41\n      tag_80\n      calldatasize\n      0x04\n      tag_81\n      jump\t// in\n    tag_80:\n      tag_82\n      jump\t// in\n        /* \"@openzeppelin/contracts@4.7.3/token/ERC721/ERC721.sol\":5250:5565  function safeTransferFrom(... */\n    tag_18:\n      tag_41\n      tag_84\n      calldatasize\n      0x04\n      tag_85\n      jump\t// in\n    tag_84:\n      tag_86\n      jump\t// in\n        /* \"CryDapeSBT.sol\":1605:1765  function tokenURI(uint256)... */\n    tag_19:\n      tag_31\n      tag_88\n      calldatasize\n      0x04\n      tag_37\n      jump\t// in\n    tag_88:\n      tag_89\n      jump\t// in\n        /* \"@openzeppelin/contracts@4.7.3/token/ERC721/ERC721.sol\":4388:4550  function isApprovedForAll(address owner, address operator) public view virtual override returns (bool) {... */\n    tag_20:\n      tag_25\n      tag_92\n      calldatasize\n      0x04\n      tag_93\n      jump\t// in\n    tag_92:\n      tag_94\n      jump\t// in\n        /* \"@openzeppelin/contracts@4.7.3/access/Ownable.sol\":2081:2279  function transferOwnership(address newOwner) public virtual onlyOwner {... */\n    tag_21:\n      tag_41\n      tag_97\n      calldatasize\n      0x04\n      tag_54\n      jump\t// in\n    tag_97:\n      tag_98\n      jump\t// in\n        /* \"@openzeppelin/contracts@4.7.3/token/ERC721/ERC721.sol\":1570:1870  function supportsInterface(bytes4 interfaceId) public view virtual override(ERC165, IERC165) returns (bool) {... */\n    tag_28:\n        /* \"@openzeppelin/contracts@4.7.3/token/ERC721/ERC721.sol\":1672:1676  bool */\n      0x00\n      not(sub(shl(0xe0, 0x01), 0x01))\n        /* \"@openzeppelin/contracts@4.7.3/token/ERC721/ERC721.sol\":1707:1747  interfaceId == type(IERC721).interfaceId */\n      dup3\n      and\n      shl(0xe0, 0x80ac58cd)\n      eq\n      dup1\n        /* \"@openzeppelin/contracts@4.7.3/token/ERC721/ERC721.sol\":1707:1811  interfaceId == type(IERC721).interfaceId ||... */\n      tag_100\n      jumpi\n      pop\n      not(sub(shl(0xe0, 0x01), 0x01))\n        /* \"@openzeppelin/contracts@4.7.3/token/ERC721/ERC721.sol\":1763:1811  interfaceId == type(IERC721Metadata).interfaceId */\n      dup3\n      and\n      shl(0xe0, 0x5b5e139f)\n      eq\n        /* \"@openzeppelin/contracts@4.7.3/token/ERC721/ERC721.sol\":1707:1811  interfaceId == type(IERC721).interfaceId ||... */\n    tag_100:\n        /* \"@openzeppelin/contracts@4.7.3/token/ERC721/ERC721.sol\":1707:1863  interfaceId == type(IERC721).interfaceId ||... */\n      dup1\n      tag_102\n      jumpi\n      pop\n      shl(0xe0, 0x01ffc9a7)\n      not(sub(shl(0xe0, 0x01), 0x01))\n        /* \"@openzeppelin/contracts@4.7.3/utils/introspection/ERC165.sol\":937:977  interfaceId == type(IERC165).interfaceId */\n      dup4\n      and\n      eq\n        /* \"@openzeppelin/contracts@4.7.3/token/ERC721/ERC721.sol\":1827:1863  super.supportsInterface(interfaceId) */\n    tag_102:\n        /* \"@openzeppelin/contracts@4.7.3/token/ERC721/ERC721.sol\":1688:1863  return... */\n      swap3\n        /* \"@openzeppelin/contracts@4.7.3/token/ERC721/ERC721.sol\":1570:1870  function supportsInterface(bytes4 interfaceId) public view virtual override(ERC165, IERC165) returns (bool) {... */\n      swap2\n      pop\n      pop\n      jump\t// out\n        /* \"@openzeppelin/contracts@4.7.3/token/ERC721/ERC721.sol\":2470:2568  function name() public view virtual override returns (string memory) {... */\n    tag_32:\n        /* \"@openzeppelin/contracts@4.7.3/token/ERC721/ERC721.sol\":2524:2537  string memory */\n      0x60\n        /* \"@openzeppelin/contracts@4.7.3/token/ERC721/ERC721.sol\":2556:2561  _name */\n      0x00\n        /* \"@openzeppelin/contracts@4.7.3/token/ERC721/ERC721.sol\":2549:2561  return _name */\n      dup1\n      sload\n      tag_105\n      swap1\n      tag_106\n      jump\t// in\n    tag_105:\n      dup1\n      0x1f\n      add\n      0x20\n      dup1\n      swap2\n      div\n      mul\n      0x20\n      add\n      mload(0x40)\n      swap1\n      dup2\n      add\n      0x40\n      mstore\n      dup1\n      swap3\n      swap2\n      swap1\n      dup2\n      dup2\n      mstore\n      0x20\n      add\n      dup3\n      dup1\n      sload\n      tag_107\n      swap1\n      tag_106\n      jump\t// in\n    tag_107:\n      dup1\n      iszero\n      tag_108\n      jumpi\n      dup1\n      0x1f\n      lt\n      tag_109\n      jumpi\n      0x0100\n      dup1\n      dup4\n      sload\n      div\n      mul\n      dup4\n      mstore\n      swap2\n      0x20\n      add\n      swap2\n      jump(tag_108)\n    tag_109:\n      dup3\n      add\n      swap2\n      swap1\n      0x00\n      mstore\n      keccak256(0x00, 0x20)\n      swap1\n    tag_110:\n      dup2\n      sload\n      dup2\n      mstore\n      swap1\n      0x01\n      add\n      swap1\n      0x20\n      add\n      dup1\n      dup4\n      gt\n      tag_110\n      jumpi\n      dup3\n      swap1\n      sub\n      0x1f\n      and\n      dup3\n      add\n      swap2\n    tag_108:\n      pop\n      pop\n      pop\n      pop\n      pop\n      swap1\n      pop\n        /* \"@openzeppelin/contracts@4.7.3/token/ERC721/ERC721.sol\":2470:2568  function name() public view virtual override returns (string memory) {... */\n      swap1\n      jump\t// out\n        /* \"@openzeppelin/contracts@4.7.3/token/ERC721/ERC721.sol\":3935:4102  function getApproved(uint256 tokenId) public view virtual override returns (address) {... */\n    tag_38:\n        /* \"@openzeppelin/contracts@4.7.3/token/ERC721/ERC721.sol\":4011:4018  address */\n      0x00\n        /* \"@openzeppelin/contracts@4.7.3/token/ERC721/ERC721.sol\":4030:4053  _requireMinted(tokenId) */\n      tag_112\n        /* \"@openzeppelin/contracts@4.7.3/token/ERC721/ERC721.sol\":4045:4052  tokenId */\n      dup3\n        /* \"@openzeppelin/contracts@4.7.3/token/ERC721/ERC721.sol\":4030:4044  _requireMinted */\n      tag_113\n        /* \"@openzeppelin/contracts@4.7.3/token/ERC721/ERC721.sol\":4030:4053  _requireMinted(tokenId) */\n      jump\t// in\n    tag_112:\n      pop\n        /* \"@openzeppelin/contracts@4.7.3/token/ERC721/ERC721.sol\":4071:4095  _tokenApprovals[tokenId] */\n      0x00\n      swap1\n      dup2\n      mstore\n        /* \"@openzeppelin/contracts@4.7.3/token/ERC721/ERC721.sol\":4071:4086  _tokenApprovals */\n      0x04\n        /* \"@openzeppelin/contracts@4.7.3/token/ERC721/ERC721.sol\":4071:4095  _tokenApprovals[tokenId] */\n      0x20\n      mstore\n      0x40\n      swap1\n      keccak256\n      sload\n      sub(shl(0xa0, 0x01), 0x01)\n      and\n      swap1\n        /* \"@openzeppelin/contracts@4.7.3/token/ERC721/ERC721.sol\":3935:4102  function getApproved(uint256 tokenId) public view virtual override returns (address) {... */\n      jump\t// out\n        /* \"@openzeppelin/contracts@4.7.3/token/ERC721/ERC721.sol\":3467:3874  function approve(address to, uint256 tokenId) public virtual override {... */\n    tag_44:\n        /* \"@openzeppelin/contracts@4.7.3/token/ERC721/ERC721.sol\":3547:3560  address owner */\n      0x00\n        /* \"@openzeppelin/contracts@4.7.3/token/ERC721/ERC721.sol\":3563:3586  ERC721.ownerOf(tokenId) */\n      tag_115\n        /* \"@openzeppelin/contracts@4.7.3/token/ERC721/ERC721.sol\":3578:3585  tokenId */\n      dup3\n        /* \"@openzeppelin/contracts@4.7.3/token/ERC721/ERC721.sol\":3563:3577  ERC721.ownerOf */\n      tag_64\n        /* \"@openzeppelin/contracts@4.7.3/token/ERC721/ERC721.sol\":3563:3586  ERC721.ownerOf(tokenId) */\n      jump\t// in\n    tag_115:\n        /* \"@openzeppelin/contracts@4.7.3/token/ERC721/ERC721.sol\":3547:3586  address owner = ERC721.ownerOf(tokenId) */\n      swap1\n      pop\n        /* \"@openzeppelin/contracts@4.7.3/token/ERC721/ERC721.sol\":3610:3615  owner */\n      dup1\n      sub(shl(0xa0, 0x01), 0x01)\n        /* \"@openzeppelin/contracts@4.7.3/token/ERC721/ERC721.sol\":3604:3615  to != owner */\n      and\n        /* \"@openzeppelin/contracts@4.7.3/token/ERC721/ERC721.sol\":3604:3606  to */\n      dup4\n      sub(shl(0xa0, 0x01), 0x01)\n        /* \"@openzeppelin/contracts@4.7.3/token/ERC721/ERC721.sol\":3604:3615  to != owner */\n      and\n      sub\n        /* \"@openzeppelin/contracts@4.7.3/token/ERC721/ERC721.sol\":3596:3653  require(to != owner, \"ERC721: approval to current owner\") */\n      tag_116\n      jumpi\n      mload(0x40)\n      shl(0xe5, 0x461bcd)\n      dup2\n      mstore\n        /* \"#utility.yul\":5260:5262   */\n      0x20\n        /* \"@openzeppelin/contracts@4.7.3/token/ERC721/ERC721.sol\":3596:3653  require(to != owner, \"ERC721: approval to current owner\") */\n      0x04\n      dup3\n      add\n        /* \"#utility.yul\":5242:5263   */\n      mstore\n        /* \"#utility.yul\":5299:5301   */\n      0x21\n        /* \"#utility.yul\":5279:5297   */\n      0x24\n      dup3\n      add\n        /* \"#utility.yul\":5272:5302   */\n      mstore\n        /* \"#utility.yul\":5338:5372   */\n      0x4552433732313a20617070726f76616c20746f2063757272656e74206f776e65\n        /* \"#utility.yul\":5318:5336   */\n      0x44\n      dup3\n      add\n        /* \"#utility.yul\":5311:5373   */\n      mstore\n      shl(0xf9, 0x39)\n        /* \"#utility.yul\":5389:5407   */\n      0x64\n      dup3\n      add\n        /* \"#utility.yul\":5382:5413   */\n      mstore\n        /* \"#utility.yul\":5430:5449   */\n      0x84\n      add\n        /* \"@openzeppelin/contracts@4.7.3/token/ERC721/ERC721.sol\":3596:3653  require(to != owner, \"ERC721: approval to current owner\") */\n    tag_117:\n      mload(0x40)\n      dup1\n      swap2\n      sub\n      swap1\n      revert\n    tag_116:\n        /* \"@openzeppelin/contracts@4.7.3/utils/Context.sol\":719:729  msg.sender */\n      caller\n      sub(shl(0xa0, 0x01), 0x01)\n        /* \"@openzeppelin/contracts@4.7.3/token/ERC721/ERC721.sol\":3685:3706  _msgSender() == owner */\n      dup3\n      and\n      eq\n      dup1\n        /* \"@openzeppelin/contracts@4.7.3/token/ERC721/ERC721.sol\":3685:3747  _msgSender() == owner || isApprovedForAll(owner, _msgSender()) */\n      tag_122\n      jumpi\n      pop\n        /* \"@openzeppelin/contracts@4.7.3/token/ERC721/ERC721.sol\":3710:3747  isApprovedForAll(owner, _msgSender()) */\n      tag_122\n        /* \"@openzeppelin/contracts@4.7.3/token/ERC721/ERC721.sol\":3727:3732  owner */\n      dup2\n        /* \"@openzeppelin/contracts@4.7.3/utils/Context.sol\":719:729  msg.sender */\n      caller\n        /* \"@openzeppelin/contracts@4.7.3/token/ERC721/ERC721.sol\":4388:4550  function isApprovedForAll(address owner, address operator) public view virtual override returns (bool) {... */\n      tag_94\n      jump\t// in\n        /* \"@openzeppelin/contracts@4.7.3/token/ERC721/ERC721.sol\":3710:3747  isApprovedForAll(owner, _msgSender()) */\n    tag_122:\n        /* \"@openzeppelin/contracts@4.7.3/token/ERC721/ERC721.sol\":3664:3835  require(... */\n      tag_124\n      jumpi\n      mload(0x40)\n      shl(0xe5, 0x461bcd)\n      dup2\n      mstore\n        /* \"#utility.yul\":5662:5664   */\n      0x20\n        /* \"@openzeppelin/contracts@4.7.3/token/ERC721/ERC721.sol\":3664:3835  require(... */\n      0x04\n      dup3\n      add\n        /* \"#utility.yul\":5644:5665   */\n      mstore\n        /* \"#utility.yul\":5701:5703   */\n      0x3e\n        /* \"#utility.yul\":5681:5699   */\n      0x24\n      dup3\n      add\n        /* \"#utility.yul\":5674:5704   */\n      mstore\n        /* \"#utility.yul\":5740:5774   */\n      0x4552433732313a20617070726f76652063616c6c6572206973206e6f7420746f\n        /* \"#utility.yul\":5720:5738   */\n      0x44\n      dup3\n      add\n        /* \"#utility.yul\":5713:5775   */\n      mstore\n        /* \"#utility.yul\":5811:5843   */\n      0x6b656e206f776e6572206e6f7220617070726f76656420666f7220616c6c0000\n        /* \"#utility.yul\":5791:5809   */\n      0x64\n      dup3\n      add\n        /* \"#utility.yul\":5784:5844   */\n      mstore\n        /* \"#utility.yul\":5861:5880   */\n      0x84\n      add\n        /* \"@openzeppelin/contracts@4.7.3/token/ERC721/ERC721.sol\":3664:3835  require(... */\n      tag_117\n        /* \"#utility.yul\":5460:5886   */\n      jump\n        /* \"@openzeppelin/contracts@4.7.3/token/ERC721/ERC721.sol\":3664:3835  require(... */\n    tag_124:\n        /* \"@openzeppelin/contracts@4.7.3/token/ERC721/ERC721.sol\":3846:3867  _approve(to, tokenId) */\n      tag_127\n        /* \"@openzeppelin/contracts@4.7.3/token/ERC721/ERC721.sol\":3855:3857  to */\n      dup4\n        /* \"@openzeppelin/contracts@4.7.3/token/ERC721/ERC721.sol\":3859:3866  tokenId */\n      dup4\n        /* \"@openzeppelin/contracts@4.7.3/token/ERC721/ERC721.sol\":3846:3854  _approve */\n      tag_128\n        /* \"@openzeppelin/contracts@4.7.3/token/ERC721/ERC721.sol\":3846:3867  _approve(to, tokenId) */\n      jump\t// in\n    tag_127:\n        /* \"@openzeppelin/contracts@4.7.3/token/ERC721/ERC721.sol\":3537:3874  {... */\n      pop\n        /* \"@openzeppelin/contracts@4.7.3/token/ERC721/ERC721.sol\":3467:3874  function approve(address to, uint256 tokenId) public virtual override {... */\n      pop\n      pop\n      jump\t// out\n        /* \"CryDapeSBT.sol\":1496:1597  function revoke(uint256 tokenId)... */\n    tag_47:\n        /* \"@openzeppelin/contracts@4.7.3/access/Ownable.sol\":1094:1107  _checkOwner() */\n      tag_130\n        /* \"@openzeppelin/contracts@4.7.3/access/Ownable.sol\":1094:1105  _checkOwner */\n      tag_131\n        /* \"@openzeppelin/contracts@4.7.3/access/Ownable.sol\":1094:1107  _checkOwner() */\n      jump\t// in\n    tag_130:\n        /* \"CryDapeSBT.sol\":1575:1589  _burn(tokenId) */\n      tag_133\n        /* \"CryDapeSBT.sol\":1581:1588  tokenId */\n      dup2\n        /* \"CryDapeSBT.sol\":1575:1580  _burn */\n      tag_134\n        /* \"CryDapeSBT.sol\":1575:1589  _burn(tokenId) */\n      jump\t// in\n    tag_133:\n        /* \"CryDapeSBT.sol\":1496:1597  function revoke(uint256 tokenId)... */\n      pop\n      jump\t// out\n        /* \"@openzeppelin/contracts@4.7.3/token/ERC721/ERC721.sol\":4612:4939  function transferFrom(... */\n    tag_51:\n        /* \"@openzeppelin/contracts@4.7.3/token/ERC721/ERC721.sol\":4801:4842  _isApprovedOrOwner(_msgSender(), tokenId) */\n      tag_136\n        /* \"@openzeppelin/contracts@4.7.3/utils/Context.sol\":719:729  msg.sender */\n      caller\n        /* \"@openzeppelin/contracts@4.7.3/token/ERC721/ERC721.sol\":4834:4841  tokenId */\n      dup3\n        /* \"@openzeppelin/contracts@4.7.3/token/ERC721/ERC721.sol\":4801:4819  _isApprovedOrOwner */\n      tag_138\n        /* \"@openzeppelin/contracts@4.7.3/token/ERC721/ERC721.sol\":4801:4842  _isApprovedOrOwner(_msgSender(), tokenId) */\n      jump\t// in\n    tag_136:\n        /* \"@openzeppelin/contracts@4.7.3/token/ERC721/ERC721.sol\":4793:4893  require(_isApprovedOrOwner(_msgSender(), tokenId), \"ERC721: caller is not token owner nor approved\") */\n      tag_139\n      jumpi\n      mload(0x40)\n      shl(0xe5, 0x461bcd)\n      dup2\n      mstore\n      0x04\n      add\n      tag_117\n      swap1\n      tag_141\n      jump\t// in\n    tag_139:\n        /* \"@openzeppelin/contracts@4.7.3/token/ERC721/ERC721.sol\":4904:4932  _transfer(from, to, tokenId) */\n      tag_127\n        /* \"@openzeppelin/contracts@4.7.3/token/ERC721/ERC721.sol\":4914:4918  from */\n      dup4\n        /* \"@openzeppelin/contracts@4.7.3/token/ERC721/ERC721.sol\":4920:4922  to */\n      dup4\n        /* \"@openzeppelin/contracts@4.7.3/token/ERC721/ERC721.sol\":4924:4931  tokenId */\n      dup4\n        /* \"@openzeppelin/contracts@4.7.3/token/ERC721/ERC721.sol\":4904:4913  _transfer */\n      tag_143\n        /* \"@openzeppelin/contracts@4.7.3/token/ERC721/ERC721.sol\":4904:4932  _transfer(from, to, tokenId) */\n      jump\t// in\n        /* \"CryDapeSBT.sol\":905:1102  function safeMint(address to)... */\n    tag_55:\n        /* \"@openzeppelin/contracts@4.7.3/access/Ownable.sol\":1094:1107  _checkOwner() */\n      tag_145\n        /* \"@openzeppelin/contracts@4.7.3/access/Ownable.sol\":1094:1105  _checkOwner */\n      tag_131\n        /* \"@openzeppelin/contracts@4.7.3/access/Ownable.sol\":1094:1107  _checkOwner() */\n      jump\t// in\n    tag_145:\n        /* \"CryDapeSBT.sol\":980:995  uint256 tokenId */\n      0x00\n        /* \"CryDapeSBT.sol\":998:1023  _tokenIdCounter.current() */\n      tag_147\n        /* \"CryDapeSBT.sol\":998:1013  _tokenIdCounter */\n      0x08\n        /* \"@openzeppelin/contracts@4.7.3/utils/Counters.sol\":918:932  counter._value */\n      sload\n      swap1\n        /* \"@openzeppelin/contracts@4.7.3/utils/Counters.sol\":827:939  function current(Counter storage counter) internal view returns (uint256) {... */\n      jump\n        /* \"CryDapeSBT.sol\":998:1023  _tokenIdCounter.current() */\n    tag_147:\n        /* \"CryDapeSBT.sol\":980:1023  uint256 tokenId = _tokenIdCounter.current() */\n      swap1\n      pop\n        /* \"CryDapeSBT.sol\":1034:1061  _tokenIdCounter.increment() */\n      tag_149\n        /* \"CryDapeSBT.sol\":1034:1049  _tokenIdCounter */\n      0x08\n        /* \"@openzeppelin/contracts@4.7.3/utils/Counters.sol\":1032:1051  counter._value += 1 */\n      dup1\n      sload\n        /* \"@openzeppelin/contracts@4.7.3/utils/Counters.sol\":1050:1051  1 */\n      0x01\n        /* \"@openzeppelin/contracts@4.7.3/utils/Counters.sol\":1032:1051  counter._value += 1 */\n      add\n      swap1\n      sstore\n        /* \"@openzeppelin/contracts@4.7.3/utils/Counters.sol\":945:1068  function increment(Counter storage counter) internal {... */\n      jump\n        /* \"CryDapeSBT.sol\":1034:1061  _tokenIdCounter.increment() */\n    tag_149:\n        /* \"CryDapeSBT.sol\":1072:1094  _safeMint(to, tokenId) */\n      tag_151\n        /* \"CryDapeSBT.sol\":1082:1084  to */\n      dup3\n        /* \"CryDapeSBT.sol\":1086:1093  tokenId */\n      dup3\n        /* \"CryDapeSBT.sol\":1072:1081  _safeMint */\n      tag_152\n        /* \"CryDapeSBT.sol\":1072:1094  _safeMint(to, tokenId) */\n      jump\t// in\n    tag_151:\n        /* \"CryDapeSBT.sol\":969:1102  {... */\n      pop\n        /* \"CryDapeSBT.sol\":905:1102  function safeMint(address to)... */\n      pop\n      jump\t// out\n        /* \"@openzeppelin/contracts@4.7.3/token/ERC721/ERC721.sol\":5005:5184  function safeTransferFrom(... */\n    tag_58:\n        /* \"@openzeppelin/contracts@4.7.3/token/ERC721/ERC721.sol\":5138:5177  safeTransferFrom(from, to, tokenId, \"\") */\n      tag_127\n        /* \"@openzeppelin/contracts@4.7.3/token/ERC721/ERC721.sol\":5155:5159  from */\n      dup4\n        /* \"@openzeppelin/contracts@4.7.3/token/ERC721/ERC721.sol\":5161:5163  to */\n      dup4\n        /* \"@openzeppelin/contracts@4.7.3/token/ERC721/ERC721.sol\":5165:5172  tokenId */\n      dup4\n        /* \"@openzeppelin/contracts@4.7.3/token/ERC721/ERC721.sol\":5138:5177  safeTransferFrom(from, to, tokenId, \"\") */\n      mload(0x40)\n      dup1\n      0x20\n      add\n      0x40\n      mstore\n      dup1\n      0x00\n      dup2\n      mstore\n      pop\n        /* \"@openzeppelin/contracts@4.7.3/token/ERC721/ERC721.sol\":5138:5154  safeTransferFrom */\n      tag_86\n        /* \"@openzeppelin/contracts@4.7.3/token/ERC721/ERC721.sol\":5138:5177  safeTransferFrom(from, to, tokenId, \"\") */\n      jump\t// in\n        /* \"CryDapeSBT.sol\":1318:1488  function burn(uint256 tokenId)... */\n    tag_61:\n        /* \"CryDapeSBT.sol\":1408:1418  msg.sender */\n      caller\n        /* \"CryDapeSBT.sol\":1388:1404  ownerOf(tokenId) */\n      tag_156\n        /* \"CryDapeSBT.sol\":1396:1403  tokenId */\n      dup3\n        /* \"CryDapeSBT.sol\":1388:1395  ownerOf */\n      tag_64\n        /* \"CryDapeSBT.sol\":1388:1404  ownerOf(tokenId) */\n      jump\t// in\n    tag_156:\n      sub(shl(0xa0, 0x01), 0x01)\n        /* \"CryDapeSBT.sol\":1388:1418  ownerOf(tokenId) == msg.sender */\n      and\n      eq\n        /* \"CryDapeSBT.sol\":1380:1455  require(ownerOf(tokenId) == msg.sender, \"You are not the owner of tokenId\") */\n      tag_130\n      jumpi\n      mload(0x40)\n      shl(0xe5, 0x461bcd)\n      dup2\n      mstore\n        /* \"#utility.yul\":6508:6510   */\n      0x20\n        /* \"CryDapeSBT.sol\":1380:1455  require(ownerOf(tokenId) == msg.sender, \"You are not the owner of tokenId\") */\n      0x04\n      dup3\n      add\n        /* \"#utility.yul\":6490:6511   */\n      dup2\n      swap1\n      mstore\n        /* \"#utility.yul\":6527:6545   */\n      0x24\n      dup3\n      add\n        /* \"#utility.yul\":6520:6550   */\n      mstore\n        /* \"#utility.yul\":6586:6620   */\n      0x596f7520617265206e6f7420746865206f776e6572206f6620746f6b656e4964\n        /* \"#utility.yul\":6566:6584   */\n      0x44\n      dup3\n      add\n        /* \"#utility.yul\":6559:6621   */\n      mstore\n        /* \"#utility.yul\":6638:6656   */\n      0x64\n      add\n        /* \"CryDapeSBT.sol\":1380:1455  require(ownerOf(tokenId) == msg.sender, \"You are not the owner of tokenId\") */\n      tag_117\n        /* \"#utility.yul\":6306:6662   */\n      jump\n        /* \"@openzeppelin/contracts@4.7.3/token/ERC721/ERC721.sol\":2190:2408  function ownerOf(uint256 tokenId) public view virtual override returns (address) {... */\n    tag_64:\n        /* \"@openzeppelin/contracts@4.7.3/token/ERC721/ERC721.sol\":2262:2269  address */\n      0x00\n        /* \"@openzeppelin/contracts@4.7.3/token/ERC721/ERC721.sol\":2297:2313  _owners[tokenId] */\n      dup2\n      dup2\n      mstore\n        /* \"@openzeppelin/contracts@4.7.3/token/ERC721/ERC721.sol\":2297:2304  _owners */\n      0x02\n        /* \"@openzeppelin/contracts@4.7.3/token/ERC721/ERC721.sol\":2297:2313  _owners[tokenId] */\n      0x20\n      mstore\n      0x40\n      dup2\n      keccak256\n      sload\n      sub(shl(0xa0, 0x01), 0x01)\n      and\n      dup1\n        /* \"@openzeppelin/contracts@4.7.3/token/ERC721/ERC721.sol\":2323:2379  require(owner != address(0), \"ERC721: invalid token ID\") */\n      tag_102\n      jumpi\n      mload(0x40)\n      shl(0xe5, 0x461bcd)\n      dup2\n      mstore\n        /* \"#utility.yul\":6869:6871   */\n      0x20\n        /* \"@openzeppelin/contracts@4.7.3/token/ERC721/ERC721.sol\":2323:2379  require(owner != address(0), \"ERC721: invalid token ID\") */\n      0x04\n      dup3\n      add\n        /* \"#utility.yul\":6851:6872   */\n      mstore\n        /* \"#utility.yul\":6908:6910   */\n      0x18\n        /* \"#utility.yul\":6888:6906   */\n      0x24\n      dup3\n      add\n        /* \"#utility.yul\":6881:6911   */\n      mstore\n      shl(0x42, 0x115490cdcc8c4e881a5b9d985b1a59081d1bdad95b881251)\n        /* \"#utility.yul\":6927:6945   */\n      0x44\n      dup3\n      add\n        /* \"#utility.yul\":6920:6974   */\n      mstore\n        /* \"#utility.yul\":6991:7009   */\n      0x64\n      add\n        /* \"@openzeppelin/contracts@4.7.3/token/ERC721/ERC721.sol\":2323:2379  require(owner != address(0), \"ERC721: invalid token ID\") */\n      tag_117\n        /* \"#utility.yul\":6667:7015   */\n      jump\n        /* \"@openzeppelin/contracts@4.7.3/token/ERC721/ERC721.sol\":1929:2133  function balanceOf(address owner) public view virtual override returns (uint256) {... */\n    tag_68:\n        /* \"@openzeppelin/contracts@4.7.3/token/ERC721/ERC721.sol\":2001:2008  uint256 */\n      0x00\n      sub(shl(0xa0, 0x01), 0x01)\n        /* \"@openzeppelin/contracts@4.7.3/token/ERC721/ERC721.sol\":2028:2047  owner != address(0) */\n      dup3\n      and\n        /* \"@openzeppelin/contracts@4.7.3/token/ERC721/ERC721.sol\":2020:2093  require(owner != address(0), \"ERC721: address zero is not a valid owner\") */\n      tag_166\n      jumpi\n      mload(0x40)\n      shl(0xe5, 0x461bcd)\n      dup2\n      mstore\n        /* \"#utility.yul\":7222:7224   */\n      0x20\n        /* \"@openzeppelin/contracts@4.7.3/token/ERC721/ERC721.sol\":2020:2093  require(owner != address(0), \"ERC721: address zero is not a valid owner\") */\n      0x04\n      dup3\n      add\n        /* \"#utility.yul\":7204:7225   */\n      mstore\n        /* \"#utility.yul\":7261:7263   */\n      0x29\n        /* \"#utility.yul\":7241:7259   */\n      0x24\n      dup3\n      add\n        /* \"#utility.yul\":7234:7264   */\n      mstore\n        /* \"#utility.yul\":7300:7334   */\n      0x4552433732313a2061646472657373207a65726f206973206e6f742061207661\n        /* \"#utility.yul\":7280:7298   */\n      0x44\n      dup3\n      add\n        /* \"#utility.yul\":7273:7335   */\n      mstore\n      shl(0xb9, 0x3634b21037bbb732b9)\n        /* \"#utility.yul\":7351:7369   */\n      0x64\n      dup3\n      add\n        /* \"#utility.yul\":7344:7383   */\n      mstore\n        /* \"#utility.yul\":7400:7419   */\n      0x84\n      add\n        /* \"@openzeppelin/contracts@4.7.3/token/ERC721/ERC721.sol\":2020:2093  require(owner != address(0), \"ERC721: address zero is not a valid owner\") */\n      tag_117\n        /* \"#utility.yul\":7020:7425   */\n      jump\n        /* \"@openzeppelin/contracts@4.7.3/token/ERC721/ERC721.sol\":2020:2093  require(owner != address(0), \"ERC721: address zero is not a valid owner\") */\n    tag_166:\n      pop\n      sub(shl(0xa0, 0x01), 0x01)\n        /* \"@openzeppelin/contracts@4.7.3/token/ERC721/ERC721.sol\":2110:2126  _balances[owner] */\n      and\n      0x00\n      swap1\n      dup2\n      mstore\n        /* \"@openzeppelin/contracts@4.7.3/token/ERC721/ERC721.sol\":2110:2119  _balances */\n      0x03\n        /* \"@openzeppelin/contracts@4.7.3/token/ERC721/ERC721.sol\":2110:2126  _balances[owner] */\n      0x20\n      mstore\n      0x40\n      swap1\n      keccak256\n      sload\n      swap1\n        /* \"@openzeppelin/contracts@4.7.3/token/ERC721/ERC721.sol\":1929:2133  function balanceOf(address owner) public view virtual override returns (uint256) {... */\n      jump\t// out\n        /* \"@openzeppelin/contracts@4.7.3/access/Ownable.sol\":1831:1932  function renounceOwnership() public virtual onlyOwner {... */\n    tag_72:\n        /* \"@openzeppelin/contracts@4.7.3/access/Ownable.sol\":1094:1107  _checkOwner() */\n      tag_170\n        /* \"@openzeppelin/contracts@4.7.3/access/Ownable.sol\":1094:1105  _checkOwner */\n      tag_131\n        /* \"@openzeppelin/contracts@4.7.3/access/Ownable.sol\":1094:1107  _checkOwner() */\n      jump\t// in\n    tag_170:\n        /* \"@openzeppelin/contracts@4.7.3/access/Ownable.sol\":1895:1925  _transferOwnership(address(0)) */\n      tag_172\n        /* \"@openzeppelin/contracts@4.7.3/access/Ownable.sol\":1922:1923  0 */\n      0x00\n        /* \"@openzeppelin/contracts@4.7.3/access/Ownable.sol\":1895:1913  _transferOwnership */\n      tag_173\n        /* \"@openzeppelin/contracts@4.7.3/access/Ownable.sol\":1895:1925  _transferOwnership(address(0)) */\n      jump\t// in\n    tag_172:\n        /* \"@openzeppelin/contracts@4.7.3/access/Ownable.sol\":1831:1932  function renounceOwnership() public virtual onlyOwner {... */\n      jump\t// out\n        /* \"@openzeppelin/contracts@4.7.3/token/ERC721/ERC721.sol\":2632:2734  function symbol() public view virtual override returns (string memory) {... */\n    tag_77:\n        /* \"@openzeppelin/contracts@4.7.3/token/ERC721/ERC721.sol\":2688:2701  string memory */\n      0x60\n        /* \"@openzeppelin/contracts@4.7.3/token/ERC721/ERC721.sol\":2720:2727  _symbol */\n      0x01\n        /* \"@openzeppelin/contracts@4.7.3/token/ERC721/ERC721.sol\":2713:2727  return _symbol */\n      dup1\n      sload\n      tag_105\n      swap1\n      tag_106\n      jump\t// in\n        /* \"@openzeppelin/contracts@4.7.3/token/ERC721/ERC721.sol\":4169:4322  function setApprovalForAll(address operator, bool approved) public virtual override {... */\n    tag_82:\n        /* \"@openzeppelin/contracts@4.7.3/token/ERC721/ERC721.sol\":4263:4315  _setApprovalForAll(_msgSender(), operator, approved) */\n      tag_151\n        /* \"@openzeppelin/contracts@4.7.3/utils/Context.sol\":719:729  msg.sender */\n      caller\n        /* \"@openzeppelin/contracts@4.7.3/token/ERC721/ERC721.sol\":4296:4304  operator */\n      dup4\n        /* \"@openzeppelin/contracts@4.7.3/token/ERC721/ERC721.sol\":4306:4314  approved */\n      dup4\n        /* \"@openzeppelin/contracts@4.7.3/token/ERC721/ERC721.sol\":4263:4281  _setApprovalForAll */\n      tag_184\n        /* \"@openzeppelin/contracts@4.7.3/token/ERC721/ERC721.sol\":4263:4315  _setApprovalForAll(_msgSender(), operator, approved) */\n      jump\t// in\n        /* \"@openzeppelin/contracts@4.7.3/token/ERC721/ERC721.sol\":5250:5565  function safeTransferFrom(... */\n    tag_86:\n        /* \"@openzeppelin/contracts@4.7.3/token/ERC721/ERC721.sol\":5418:5459  _isApprovedOrOwner(_msgSender(), tokenId) */\n      tag_186\n        /* \"@openzeppelin/contracts@4.7.3/utils/Context.sol\":719:729  msg.sender */\n      caller\n        /* \"@openzeppelin/contracts@4.7.3/token/ERC721/ERC721.sol\":5451:5458  tokenId */\n      dup4\n        /* \"@openzeppelin/contracts@4.7.3/token/ERC721/ERC721.sol\":5418:5436  _isApprovedOrOwner */\n      tag_138\n        /* \"@openzeppelin/contracts@4.7.3/token/ERC721/ERC721.sol\":5418:5459  _isApprovedOrOwner(_msgSender(), tokenId) */\n      jump\t// in\n    tag_186:\n        /* \"@openzeppelin/contracts@4.7.3/token/ERC721/ERC721.sol\":5410:5510  require(_isApprovedOrOwner(_msgSender(), tokenId), \"ERC721: caller is not token owner nor approved\") */\n      tag_188\n      jumpi\n      mload(0x40)\n      shl(0xe5, 0x461bcd)\n      dup2\n      mstore\n      0x04\n      add\n      tag_117\n      swap1\n      tag_141\n      jump\t// in\n    tag_188:\n        /* \"@openzeppelin/contracts@4.7.3/token/ERC721/ERC721.sol\":5520:5558  _safeTransfer(from, to, tokenId, data) */\n      tag_190\n        /* \"@openzeppelin/contracts@4.7.3/token/ERC721/ERC721.sol\":5534:5538  from */\n      dup5\n        /* \"@openzeppelin/contracts@4.7.3/token/ERC721/ERC721.sol\":5540:5542  to */\n      dup5\n        /* \"@openzeppelin/contracts@4.7.3/token/ERC721/ERC721.sol\":5544:5551  tokenId */\n      dup5\n        /* \"@openzeppelin/contracts@4.7.3/token/ERC721/ERC721.sol\":5553:5557  data */\n      dup5\n        /* \"@openzeppelin/contracts@4.7.3/token/ERC721/ERC721.sol\":5520:5533  _safeTransfer */\n      tag_191\n        /* \"@openzeppelin/contracts@4.7.3/token/ERC721/ERC721.sol\":5520:5558  _safeTransfer(from, to, tokenId, data) */\n      jump\t// in\n    tag_190:\n        /* \"@openzeppelin/contracts@4.7.3/token/ERC721/ERC721.sol\":5250:5565  function safeTransferFrom(... */\n      pop\n      pop\n      pop\n      pop\n      jump\t// out\n        /* \"CryDapeSBT.sol\":1605:1765  function tokenURI(uint256)... */\n    tag_89:\n        /* \"CryDapeSBT.sol\":1709:1722  string memory */\n      0x60\n        /* \"CryDapeSBT.sol\":1747:1757  _baseURI() */\n      tag_102\n        /* \"CryDapeSBT.sol\":1747:1755  _baseURI */\n      tag_194\n        /* \"CryDapeSBT.sol\":1747:1757  _baseURI() */\n      jump\t// in\n        /* \"@openzeppelin/contracts@4.7.3/token/ERC721/ERC721.sol\":4388:4550  function isApprovedForAll(address owner, address operator) public view virtual override returns (bool) {... */\n    tag_94:\n      sub(shl(0xa0, 0x01), 0x01)\n        /* \"@openzeppelin/contracts@4.7.3/token/ERC721/ERC721.sol\":4508:4533  _operatorApprovals[owner] */\n      swap2\n      dup3\n      and\n        /* \"@openzeppelin/contracts@4.7.3/token/ERC721/ERC721.sol\":4485:4489  bool */\n      0x00\n        /* \"@openzeppelin/contracts@4.7.3/token/ERC721/ERC721.sol\":4508:4533  _operatorApprovals[owner] */\n      swap1\n      dup2\n      mstore\n        /* \"@openzeppelin/contracts@4.7.3/token/ERC721/ERC721.sol\":4508:4526  _operatorApprovals */\n      0x05\n        /* \"@openzeppelin/contracts@4.7.3/token/ERC721/ERC721.sol\":4508:4533  _operatorApprovals[owner] */\n      0x20\n      swap1\n      dup2\n      mstore\n      0x40\n      dup1\n      dup4\n      keccak256\n        /* \"@openzeppelin/contracts@4.7.3/token/ERC721/ERC721.sol\":4508:4543  _operatorApprovals[owner][operator] */\n      swap4\n      swap1\n      swap5\n      and\n      dup3\n      mstore\n      swap2\n      swap1\n      swap2\n      mstore\n      keccak256\n      sload\n      0xff\n      and\n      swap1\n        /* \"@openzeppelin/contracts@4.7.3/token/ERC721/ERC721.sol\":4388:4550  function isApprovedForAll(address owner, address operator) public view virtual override returns (bool) {... */\n      jump\t// out\n        /* \"@openzeppelin/contracts@4.7.3/access/Ownable.sol\":2081:2279  function transferOwnership(address newOwner) public virtual onlyOwner {... */\n    tag_98:\n        /* \"@openzeppelin/contracts@4.7.3/access/Ownable.sol\":1094:1107  _checkOwner() */\n      tag_197\n        /* \"@openzeppelin/contracts@4.7.3/access/Ownable.sol\":1094:1105  _checkOwner */\n      tag_131\n        /* \"@openzeppelin/contracts@4.7.3/access/Ownable.sol\":1094:1107  _checkOwner() */\n      jump\t// in\n    tag_197:\n      sub(shl(0xa0, 0x01), 0x01)\n        /* \"@openzeppelin/contracts@4.7.3/access/Ownable.sol\":2169:2191  newOwner != address(0) */\n      dup2\n      and\n        /* \"@openzeppelin/contracts@4.7.3/access/Ownable.sol\":2161:2234  require(newOwner != address(0), \"Ownable: new owner is the zero address\") */\n      tag_199\n      jumpi\n      mload(0x40)\n      shl(0xe5, 0x461bcd)\n      dup2\n      mstore\n        /* \"#utility.yul\":7632:7634   */\n      0x20\n        /* \"@openzeppelin/contracts@4.7.3/access/Ownable.sol\":2161:2234  require(newOwner != address(0), \"Ownable: new owner is the zero address\") */\n      0x04\n      dup3\n      add\n        /* \"#utility.yul\":7614:7635   */\n      mstore\n        /* \"#utility.yul\":7671:7673   */\n      0x26\n        /* \"#utility.yul\":7651:7669   */\n      0x24\n      dup3\n      add\n        /* \"#utility.yul\":7644:7674   */\n      mstore\n        /* \"#utility.yul\":7710:7744   */\n      0x4f776e61626c653a206e6577206f776e657220697320746865207a65726f2061\n        /* \"#utility.yul\":7690:7708   */\n      0x44\n      dup3\n      add\n        /* \"#utility.yul\":7683:7745   */\n      mstore\n      shl(0xd0, 0x646472657373)\n        /* \"#utility.yul\":7761:7779   */\n      0x64\n      dup3\n      add\n        /* \"#utility.yul\":7754:7790   */\n      mstore\n        /* \"#utility.yul\":7807:7826   */\n      0x84\n      add\n        /* \"@openzeppelin/contracts@4.7.3/access/Ownable.sol\":2161:2234  require(newOwner != address(0), \"Ownable: new owner is the zero address\") */\n      tag_117\n        /* \"#utility.yul\":7430:7832   */\n      jump\n        /* \"@openzeppelin/contracts@4.7.3/access/Ownable.sol\":2161:2234  require(newOwner != address(0), \"Ownable: new owner is the zero address\") */\n    tag_199:\n        /* \"@openzeppelin/contracts@4.7.3/access/Ownable.sol\":2244:2272  _transferOwnership(newOwner) */\n      tag_133\n        /* \"@openzeppelin/contracts@4.7.3/access/Ownable.sol\":2263:2271  newOwner */\n      dup2\n        /* \"@openzeppelin/contracts@4.7.3/access/Ownable.sol\":2244:2262  _transferOwnership */\n      tag_173\n        /* \"@openzeppelin/contracts@4.7.3/access/Ownable.sol\":2244:2272  _transferOwnership(newOwner) */\n      jump\t// in\n        /* \"@openzeppelin/contracts@4.7.3/token/ERC721/ERC721.sol\":11657:11790  function _requireMinted(uint256 tokenId) internal view virtual {... */\n    tag_113:\n        /* \"@openzeppelin/contracts@4.7.3/token/ERC721/ERC721.sol\":7099:7103  bool */\n      0x00\n        /* \"@openzeppelin/contracts@4.7.3/token/ERC721/ERC721.sol\":7122:7138  _owners[tokenId] */\n      dup2\n      dup2\n      mstore\n        /* \"@openzeppelin/contracts@4.7.3/token/ERC721/ERC721.sol\":7122:7129  _owners */\n      0x02\n        /* \"@openzeppelin/contracts@4.7.3/token/ERC721/ERC721.sol\":7122:7138  _owners[tokenId] */\n      0x20\n      mstore\n      0x40\n      swap1\n      keccak256\n      sload\n      sub(shl(0xa0, 0x01), 0x01)\n      and\n        /* \"@openzeppelin/contracts@4.7.3/token/ERC721/ERC721.sol\":11730:11783  require(_exists(tokenId), \"ERC721: invalid token ID\") */\n      tag_133\n      jumpi\n      mload(0x40)\n      shl(0xe5, 0x461bcd)\n      dup2\n      mstore\n        /* \"#utility.yul\":6869:6871   */\n      0x20\n        /* \"@openzeppelin/contracts@4.7.3/token/ERC721/ERC721.sol\":11730:11783  require(_exists(tokenId), \"ERC721: invalid token ID\") */\n      0x04\n      dup3\n      add\n        /* \"#utility.yul\":6851:6872   */\n      mstore\n        /* \"#utility.yul\":6908:6910   */\n      0x18\n        /* \"#utility.yul\":6888:6906   */\n      0x24\n      dup3\n      add\n        /* \"#utility.yul\":6881:6911   */\n      mstore\n      shl(0x42, 0x115490cdcc8c4e881a5b9d985b1a59081d1bdad95b881251)\n        /* \"#utility.yul\":6927:6945   */\n      0x44\n      dup3\n      add\n        /* \"#utility.yul\":6920:6974   */\n      mstore\n        /* \"#utility.yul\":6991:7009   */\n      0x64\n      add\n        /* \"@openzeppelin/contracts@4.7.3/token/ERC721/ERC721.sol\":11730:11783  require(_exists(tokenId), \"ERC721: invalid token ID\") */\n      tag_117\n        /* \"#utility.yul\":6667:7015   */\n      jump\n        /* \"@openzeppelin/contracts@4.7.3/token/ERC721/ERC721.sol\":10959:11130  function _approve(address to, uint256 tokenId) internal virtual {... */\n    tag_128:\n        /* \"@openzeppelin/contracts@4.7.3/token/ERC721/ERC721.sol\":11033:11057  _tokenApprovals[tokenId] */\n      0x00\n      dup2\n      dup2\n      mstore\n        /* \"@openzeppelin/contracts@4.7.3/token/ERC721/ERC721.sol\":11033:11048  _tokenApprovals */\n      0x04\n        /* \"@openzeppelin/contracts@4.7.3/token/ERC721/ERC721.sol\":11033:11057  _tokenApprovals[tokenId] */\n      0x20\n      mstore\n      0x40\n      swap1\n      keccak256\n        /* \"@openzeppelin/contracts@4.7.3/token/ERC721/ERC721.sol\":11033:11062  _tokenApprovals[tokenId] = to */\n      dup1\n      sload\n      not(sub(shl(0xa0, 0x01), 0x01))\n      and\n      sub(shl(0xa0, 0x01), 0x01)\n      dup5\n      and\n      swap1\n      dup2\n      or\n      swap1\n      swap2\n      sstore\n        /* \"@openzeppelin/contracts@4.7.3/token/ERC721/ERC721.sol\":11033:11057  _tokenApprovals[tokenId] */\n      dup2\n      swap1\n        /* \"@openzeppelin/contracts@4.7.3/token/ERC721/ERC721.sol\":11086:11109  ERC721.ownerOf(tokenId) */\n      tag_211\n        /* \"@openzeppelin/contracts@4.7.3/token/ERC721/ERC721.sol\":11033:11057  _tokenApprovals[tokenId] */\n      dup3\n        /* \"@openzeppelin/contracts@4.7.3/token/ERC721/ERC721.sol\":11086:11100  ERC721.ownerOf */\n      tag_64\n        /* \"@openzeppelin/contracts@4.7.3/token/ERC721/ERC721.sol\":11086:11109  ERC721.ownerOf(tokenId) */\n      jump\t// in\n    tag_211:\n      sub(shl(0xa0, 0x01), 0x01)\n        /* \"@openzeppelin/contracts@4.7.3/token/ERC721/ERC721.sol\":11077:11123  Approval(ERC721.ownerOf(tokenId), to, tokenId) */\n      and\n      0x8c5be1e5ebec7d5bd14f71427d1e84f3dd0314c0f7b2291e5b200ac8c7c3b925\n      mload(0x40)\n      mload(0x40)\n      dup1\n      swap2\n      sub\n      swap1\n      log4\n        /* \"@openzeppelin/contracts@4.7.3/token/ERC721/ERC721.sol\":10959:11130  function _approve(address to, uint256 tokenId) internal virtual {... */\n      pop\n      pop\n      jump\t// out\n        /* \"@openzeppelin/contracts@4.7.3/access/Ownable.sol\":1359:1489  function _checkOwner() internal view virtual {... */\n    tag_131:\n        /* \"@openzeppelin/contracts@4.7.3/access/Ownable.sol\":1273:1279  _owner */\n      and(sub(shl(0xa0, 0x01), 0x01), sload(0x07))\n        /* \"@openzeppelin/contracts@4.7.3/utils/Context.sol\":719:729  msg.sender */\n      caller\n        /* \"@openzeppelin/contracts@4.7.3/access/Ownable.sol\":1422:1445  owner() == _msgSender() */\n      eq\n        /* \"@openzeppelin/contracts@4.7.3/access/Ownable.sol\":1414:1482  require(owner() == _msgSender(), \"Ownable: caller is not the owner\") */\n      tag_172\n      jumpi\n      mload(0x40)\n      shl(0xe5, 0x461bcd)\n      dup2\n      mstore\n        /* \"#utility.yul\":8039:8041   */\n      0x20\n        /* \"@openzeppelin/contracts@4.7.3/access/Ownable.sol\":1414:1482  require(owner() == _msgSender(), \"Ownable: caller is not the owner\") */\n      0x04\n      dup3\n      add\n        /* \"#utility.yul\":8021:8042   */\n      dup2\n      swap1\n      mstore\n        /* \"#utility.yul\":8058:8076   */\n      0x24\n      dup3\n      add\n        /* \"#utility.yul\":8051:8081   */\n      mstore\n        /* \"#utility.yul\":8117:8151   */\n      0x4f776e61626c653a2063616c6c6572206973206e6f7420746865206f776e6572\n        /* \"#utility.yul\":8097:8115   */\n      0x44\n      dup3\n      add\n        /* \"#utility.yul\":8090:8152   */\n      mstore\n        /* \"#utility.yul\":8169:8187   */\n      0x64\n      add\n        /* \"@openzeppelin/contracts@4.7.3/access/Ownable.sol\":1414:1482  require(owner() == _msgSender(), \"Ownable: caller is not the owner\") */\n      tag_117\n        /* \"#utility.yul\":7837:8193   */\n      jump\n        /* \"CryDapeSBT.sol\":1180:1310  function _burn(uint256 tokenId)... */\n    tag_134:\n        /* \"CryDapeSBT.sol\":1282:1302  super._burn(tokenId) */\n      tag_133\n        /* \"CryDapeSBT.sol\":1294:1301  tokenId */\n      dup2\n        /* \"CryDapeSBT.sol\":1282:1293  super._burn */\n      tag_220\n        /* \"CryDapeSBT.sol\":1282:1302  super._burn(tokenId) */\n      jump\t// in\n        /* \"@openzeppelin/contracts@4.7.3/token/ERC721/ERC721.sol\":7317:7578  function _isApprovedOrOwner(address spender, uint256 tokenId) internal view virtual returns (bool) {... */\n    tag_138:\n        /* \"@openzeppelin/contracts@4.7.3/token/ERC721/ERC721.sol\":7410:7414  bool */\n      0x00\n        /* \"@openzeppelin/contracts@4.7.3/token/ERC721/ERC721.sol\":7426:7439  address owner */\n      dup1\n        /* \"@openzeppelin/contracts@4.7.3/token/ERC721/ERC721.sol\":7442:7465  ERC721.ownerOf(tokenId) */\n      tag_222\n        /* \"@openzeppelin/contracts@4.7.3/token/ERC721/ERC721.sol\":7457:7464  tokenId */\n      dup4\n        /* \"@openzeppelin/contracts@4.7.3/token/ERC721/ERC721.sol\":7442:7456  ERC721.ownerOf */\n      tag_64\n        /* \"@openzeppelin/contracts@4.7.3/token/ERC721/ERC721.sol\":7442:7465  ERC721.ownerOf(tokenId) */\n      jump\t// in\n    tag_222:\n        /* \"@openzeppelin/contracts@4.7.3/token/ERC721/ERC721.sol\":7426:7465  address owner = ERC721.ownerOf(tokenId) */\n      swap1\n      pop\n        /* \"@openzeppelin/contracts@4.7.3/token/ERC721/ERC721.sol\":7494:7499  owner */\n      dup1\n      sub(shl(0xa0, 0x01), 0x01)\n        /* \"@openzeppelin/contracts@4.7.3/token/ERC721/ERC721.sol\":7483:7499  spender == owner */\n      and\n        /* \"@openzeppelin/contracts@4.7.3/token/ERC721/ERC721.sol\":7483:7490  spender */\n      dup5\n      sub(shl(0xa0, 0x01), 0x01)\n        /* \"@openzeppelin/contracts@4.7.3/token/ERC721/ERC721.sol\":7483:7499  spender == owner */\n      and\n      eq\n        /* \"@openzeppelin/contracts@4.7.3/token/ERC721/ERC721.sol\":7483:7535  spender == owner || isApprovedForAll(owner, spender) */\n      dup1\n      tag_224\n      jumpi\n      pop\n        /* \"@openzeppelin/contracts@4.7.3/token/ERC721/ERC721.sol\":7503:7535  isApprovedForAll(owner, spender) */\n      tag_224\n        /* \"@openzeppelin/contracts@4.7.3/token/ERC721/ERC721.sol\":7520:7525  owner */\n      dup2\n        /* \"@openzeppelin/contracts@4.7.3/token/ERC721/ERC721.sol\":7527:7534  spender */\n      dup6\n        /* \"@openzeppelin/contracts@4.7.3/token/ERC721/ERC721.sol\":7503:7519  isApprovedForAll */\n      tag_94\n        /* \"@openzeppelin/contracts@4.7.3/token/ERC721/ERC721.sol\":7503:7535  isApprovedForAll(owner, spender) */\n      jump\t// in\n    tag_224:\n        /* \"@openzeppelin/contracts@4.7.3/token/ERC721/ERC721.sol\":7483:7570  spender == owner || isApprovedForAll(owner, spender) || getApproved(tokenId) == spender */\n      dup1\n      tag_225\n      jumpi\n      pop\n        /* \"@openzeppelin/contracts@4.7.3/token/ERC721/ERC721.sol\":7563:7570  spender */\n      dup4\n      sub(shl(0xa0, 0x01), 0x01)\n        /* \"@openzeppelin/contracts@4.7.3/token/ERC721/ERC721.sol\":7539:7570  getApproved(tokenId) == spender */\n      and\n        /* \"@openzeppelin/contracts@4.7.3/token/ERC721/ERC721.sol\":7539:7559  getApproved(tokenId) */\n      tag_226\n        /* \"@openzeppelin/contracts@4.7.3/token/ERC721/ERC721.sol\":7551:7558  tokenId */\n      dup5\n        /* \"@openzeppelin/contracts@4.7.3/token/ERC721/ERC721.sol\":7539:7550  getApproved */\n      tag_38\n        /* \"@openzeppelin/contracts@4.7.3/token/ERC721/ERC721.sol\":7539:7559  getApproved(tokenId) */\n      jump\t// in\n    tag_226:\n      sub(shl(0xa0, 0x01), 0x01)\n        /* \"@openzeppelin/contracts@4.7.3/token/ERC721/ERC721.sol\":7539:7570  getApproved(tokenId) == spender */\n      and\n      eq\n        /* \"@openzeppelin/contracts@4.7.3/token/ERC721/ERC721.sol\":7483:7570  spender == owner || isApprovedForAll(owner, spender) || getApproved(tokenId) == spender */\n    tag_225:\n        /* \"@openzeppelin/contracts@4.7.3/token/ERC721/ERC721.sol\":7475:7571  return (spender == owner || isApprovedForAll(owner, spender) || getApproved(tokenId) == spender) */\n      swap5\n        /* \"@openzeppelin/contracts@4.7.3/token/ERC721/ERC721.sol\":7317:7578  function _isApprovedOrOwner(address spender, uint256 tokenId) internal view virtual returns (bool) {... */\n      swap4\n      pop\n      pop\n      pop\n      pop\n      jump\t// out\n        /* \"@openzeppelin/contracts@4.7.3/token/ERC721/ERC721.sol\":10242:10847  function _transfer(... */\n    tag_143:\n        /* \"@openzeppelin/contracts@4.7.3/token/ERC721/ERC721.sol\":10396:10400  from */\n      dup3\n      sub(shl(0xa0, 0x01), 0x01)\n        /* \"@openzeppelin/contracts@4.7.3/token/ERC721/ERC721.sol\":10369:10400  ERC721.ownerOf(tokenId) == from */\n      and\n        /* \"@openzeppelin/contracts@4.7.3/token/ERC721/ERC721.sol\":10369:10392  ERC721.ownerOf(tokenId) */\n      tag_228\n        /* \"@openzeppelin/contracts@4.7.3/token/ERC721/ERC721.sol\":10384:10391  tokenId */\n      dup3\n        /* \"@openzeppelin/contracts@4.7.3/token/ERC721/ERC721.sol\":10369:10383  ERC721.ownerOf */\n      tag_64\n        /* \"@openzeppelin/contracts@4.7.3/token/ERC721/ERC721.sol\":10369:10392  ERC721.ownerOf(tokenId) */\n      jump\t// in\n    tag_228:\n      sub(shl(0xa0, 0x01), 0x01)\n        /* \"@openzeppelin/contracts@4.7.3/token/ERC721/ERC721.sol\":10369:10400  ERC721.ownerOf(tokenId) == from */\n      and\n      eq\n        /* \"@openzeppelin/contracts@4.7.3/token/ERC721/ERC721.sol\":10361:10442  require(ERC721.ownerOf(tokenId) == from, \"ERC721: transfer from incorrect owner\") */\n      tag_229\n      jumpi\n      mload(0x40)\n      shl(0xe5, 0x461bcd)\n      dup2\n      mstore\n        /* \"#utility.yul\":8400:8402   */\n      0x20\n        /* \"@openzeppelin/contracts@4.7.3/token/ERC721/ERC721.sol\":10361:10442  require(ERC721.ownerOf(tokenId) == from, \"ERC721: transfer from incorrect owner\") */\n      0x04\n      dup3\n      add\n        /* \"#utility.yul\":8382:8403   */\n      mstore\n        /* \"#utility.yul\":8439:8441   */\n      0x25\n        /* \"#utility.yul\":8419:8437   */\n      0x24\n      dup3\n      add\n        /* \"#utility.yul\":8412:8442   */\n      mstore\n        /* \"#utility.yul\":8478:8512   */\n      0x4552433732313a207472616e736665722066726f6d20696e636f727265637420\n        /* \"#utility.yul\":8458:8476   */\n      0x44\n      dup3\n      add\n        /* \"#utility.yul\":8451:8513   */\n      mstore\n      shl(0xd9, 0x37bbb732b9)\n        /* \"#utility.yul\":8529:8547   */\n      0x64\n      dup3\n      add\n        /* \"#utility.yul\":8522:8557   */\n      mstore\n        /* \"#utility.yul\":8574:8593   */\n      0x84\n      add\n        /* \"@openzeppelin/contracts@4.7.3/token/ERC721/ERC721.sol\":10361:10442  require(ERC721.ownerOf(tokenId) == from, \"ERC721: transfer from incorrect owner\") */\n      tag_117\n        /* \"#utility.yul\":8198:8599   */\n      jump\n        /* \"@openzeppelin/contracts@4.7.3/token/ERC721/ERC721.sol\":10361:10442  require(ERC721.ownerOf(tokenId) == from, \"ERC721: transfer from incorrect owner\") */\n    tag_229:\n      sub(shl(0xa0, 0x01), 0x01)\n        /* \"@openzeppelin/contracts@4.7.3/token/ERC721/ERC721.sol\":10460:10476  to != address(0) */\n      dup3\n      and\n        /* \"@openzeppelin/contracts@4.7.3/token/ERC721/ERC721.sol\":10452:10517  require(to != address(0), \"ERC721: transfer to the zero address\") */\n      tag_232\n      jumpi\n      mload(0x40)\n      shl(0xe5, 0x461bcd)\n      dup2\n      mstore\n        /* \"#utility.yul\":8806:8808   */\n      0x20\n        /* \"@openzeppelin/contracts@4.7.3/token/ERC721/ERC721.sol\":10452:10517  require(to != address(0), \"ERC721: transfer to the zero address\") */\n      0x04\n      dup3\n      add\n        /* \"#utility.yul\":8788:8809   */\n      mstore\n        /* \"#utility.yul\":8845:8847   */\n      0x24\n        /* \"#utility.yul\":8825:8843   */\n      dup1\n      dup3\n      add\n        /* \"#utility.yul\":8818:8848   */\n      mstore\n        /* \"#utility.yul\":8884:8918   */\n      0x4552433732313a207472616e7366657220746f20746865207a65726f20616464\n        /* \"#utility.yul\":8864:8882   */\n      0x44\n      dup3\n      add\n        /* \"#utility.yul\":8857:8919   */\n      mstore\n      shl(0xe0, 0x72657373)\n        /* \"#utility.yul\":8935:8953   */\n      0x64\n      dup3\n      add\n        /* \"#utility.yul\":8928:8962   */\n      mstore\n        /* \"#utility.yul\":8979:8998   */\n      0x84\n      add\n        /* \"@openzeppelin/contracts@4.7.3/token/ERC721/ERC721.sol\":10452:10517  require(to != address(0), \"ERC721: transfer to the zero address\") */\n      tag_117\n        /* \"#utility.yul\":8604:9004   */\n      jump\n        /* \"@openzeppelin/contracts@4.7.3/token/ERC721/ERC721.sol\":10452:10517  require(to != address(0), \"ERC721: transfer to the zero address\") */\n    tag_232:\n        /* \"@openzeppelin/contracts@4.7.3/token/ERC721/ERC721.sol\":10528:10567  _beforeTokenTransfer(from, to, tokenId) */\n      tag_235\n        /* \"@openzeppelin/contracts@4.7.3/token/ERC721/ERC721.sol\":10549:10553  from */\n      dup4\n        /* \"@openzeppelin/contracts@4.7.3/token/ERC721/ERC721.sol\":10555:10557  to */\n      dup4\n        /* \"@openzeppelin/contracts@4.7.3/token/ERC721/ERC721.sol\":10559:10566  tokenId */\n      dup4\n        /* \"@openzeppelin/contracts@4.7.3/token/ERC721/ERC721.sol\":10528:10548  _beforeTokenTransfer */\n      tag_236\n        /* \"@openzeppelin/contracts@4.7.3/token/ERC721/ERC721.sol\":10528:10567  _beforeTokenTransfer(from, to, tokenId) */\n      jump\t// in\n    tag_235:\n        /* \"@openzeppelin/contracts@4.7.3/token/ERC721/ERC721.sol\":10629:10658  _approve(address(0), tokenId) */\n      tag_237\n        /* \"@openzeppelin/contracts@4.7.3/token/ERC721/ERC721.sol\":10646:10647  0 */\n      0x00\n        /* \"@openzeppelin/contracts@4.7.3/token/ERC721/ERC721.sol\":10650:10657  tokenId */\n      dup3\n        /* \"@openzeppelin/contracts@4.7.3/token/ERC721/ERC721.sol\":10629:10637  _approve */\n      tag_128\n        /* \"@openzeppelin/contracts@4.7.3/token/ERC721/ERC721.sol\":10629:10658  _approve(address(0), tokenId) */\n      jump\t// in\n    tag_237:\n      sub(shl(0xa0, 0x01), 0x01)\n        /* \"@openzeppelin/contracts@4.7.3/token/ERC721/ERC721.sol\":10669:10684  _balances[from] */\n      dup4\n      and\n      0x00\n      swap1\n      dup2\n      mstore\n        /* \"@openzeppelin/contracts@4.7.3/token/ERC721/ERC721.sol\":10669:10678  _balances */\n      0x03\n        /* \"@openzeppelin/contracts@4.7.3/token/ERC721/ERC721.sol\":10669:10684  _balances[from] */\n      0x20\n      mstore\n      0x40\n      dup2\n      keccak256\n        /* \"@openzeppelin/contracts@4.7.3/token/ERC721/ERC721.sol\":10669:10689  _balances[from] -= 1 */\n      dup1\n      sload\n        /* \"@openzeppelin/contracts@4.7.3/token/ERC721/ERC721.sol\":10688:10689  1 */\n      0x01\n      swap3\n        /* \"@openzeppelin/contracts@4.7.3/token/ERC721/ERC721.sol\":10669:10684  _balances[from] */\n      swap1\n        /* \"@openzeppelin/contracts@4.7.3/token/ERC721/ERC721.sol\":10669:10689  _balances[from] -= 1 */\n      tag_238\n      swap1\n        /* \"@openzeppelin/contracts@4.7.3/token/ERC721/ERC721.sol\":10688:10689  1 */\n      dup5\n      swap1\n        /* \"@openzeppelin/contracts@4.7.3/token/ERC721/ERC721.sol\":10669:10689  _balances[from] -= 1 */\n      tag_239\n      jump\t// in\n    tag_238:\n      swap1\n      swap2\n      sstore\n      pop\n      pop\n      sub(shl(0xa0, 0x01), 0x01)\n        /* \"@openzeppelin/contracts@4.7.3/token/ERC721/ERC721.sol\":10699:10712  _balances[to] */\n      dup3\n      and\n      0x00\n      swap1\n      dup2\n      mstore\n        /* \"@openzeppelin/contracts@4.7.3/token/ERC721/ERC721.sol\":10699:10708  _balances */\n      0x03\n        /* \"@openzeppelin/contracts@4.7.3/token/ERC721/ERC721.sol\":10699:10712  _balances[to] */\n      0x20\n      mstore\n      0x40\n      dup2\n      keccak256\n        /* \"@openzeppelin/contracts@4.7.3/token/ERC721/ERC721.sol\":10699:10717  _balances[to] += 1 */\n      dup1\n      sload\n        /* \"@openzeppelin/contracts@4.7.3/token/ERC721/ERC721.sol\":10716:10717  1 */\n      0x01\n      swap3\n        /* \"@openzeppelin/contracts@4.7.3/token/ERC721/ERC721.sol\":10699:10712  _balances[to] */\n      swap1\n        /* \"@openzeppelin/contracts@4.7.3/token/ERC721/ERC721.sol\":10699:10717  _balances[to] += 1 */\n      tag_240\n      swap1\n        /* \"@openzeppelin/contracts@4.7.3/token/ERC721/ERC721.sol\":10716:10717  1 */\n      dup5\n      swap1\n        /* \"@openzeppelin/contracts@4.7.3/token/ERC721/ERC721.sol\":10699:10717  _balances[to] += 1 */\n      tag_241\n      jump\t// in\n    tag_240:\n      swap1\n      swap2\n      sstore\n      pop\n      pop\n        /* \"@openzeppelin/contracts@4.7.3/token/ERC721/ERC721.sol\":10727:10743  _owners[tokenId] */\n      0x00\n      dup2\n      dup2\n      mstore\n        /* \"@openzeppelin/contracts@4.7.3/token/ERC721/ERC721.sol\":10727:10734  _owners */\n      0x02\n        /* \"@openzeppelin/contracts@4.7.3/token/ERC721/ERC721.sol\":10727:10743  _owners[tokenId] */\n      0x20\n      mstore\n      0x40\n      dup1\n      dup3\n      keccak256\n        /* \"@openzeppelin/contracts@4.7.3/token/ERC721/ERC721.sol\":10727:10748  _owners[tokenId] = to */\n      dup1\n      sload\n      not(sub(shl(0xa0, 0x01), 0x01))\n      and\n      sub(shl(0xa0, 0x01), 0x01)\n      dup7\n      dup2\n      and\n      swap2\n      dup3\n      or\n      swap1\n      swap3\n      sstore\n        /* \"@openzeppelin/contracts@4.7.3/token/ERC721/ERC721.sol\":10764:10791  Transfer(from, to, tokenId) */\n      swap2\n      mload\n        /* \"@openzeppelin/contracts@4.7.3/token/ERC721/ERC721.sol\":10727:10743  _owners[tokenId] */\n      dup5\n      swap4\n        /* \"@openzeppelin/contracts@4.7.3/token/ERC721/ERC721.sol\":10764:10791  Transfer(from, to, tokenId) */\n      swap2\n      dup8\n      and\n      swap2\n      0xddf252ad1be2c89b69c2b068fc378daa952ba7f163c4a11628f55a4df523b3ef\n      swap2\n      log4\n        /* \"@openzeppelin/contracts@4.7.3/token/ERC721/ERC721.sol\":10802:10840  _afterTokenTransfer(from, to, tokenId) */\n      tag_127\n        /* \"@openzeppelin/contracts@4.7.3/token/ERC721/ERC721.sol\":10822:10826  from */\n      dup4\n        /* \"@openzeppelin/contracts@4.7.3/token/ERC721/ERC721.sol\":10828:10830  to */\n      dup4\n        /* \"@openzeppelin/contracts@4.7.3/token/ERC721/ERC721.sol\":10832:10839  tokenId */\n      dup4\n        /* \"@openzeppelin/contracts@4.7.3/token/ERC721/ERC721.sol\":10802:10821  _afterTokenTransfer */\n      tag_243\n        /* \"@openzeppelin/contracts@4.7.3/token/ERC721/ERC721.sol\":10802:10840  _afterTokenTransfer(from, to, tokenId) */\n      jump\t// in\n        /* \"@openzeppelin/contracts@4.7.3/token/ERC721/ERC721.sol\":7908:8016  function _safeMint(address to, uint256 tokenId) internal virtual {... */\n    tag_152:\n        /* \"@openzeppelin/contracts@4.7.3/token/ERC721/ERC721.sol\":7983:8009  _safeMint(to, tokenId, \"\") */\n      tag_151\n        /* \"@openzeppelin/contracts@4.7.3/token/ERC721/ERC721.sol\":7993:7995  to */\n      dup3\n        /* \"@openzeppelin/contracts@4.7.3/token/ERC721/ERC721.sol\":7997:8004  tokenId */\n      dup3\n        /* \"@openzeppelin/contracts@4.7.3/token/ERC721/ERC721.sol\":7983:8009  _safeMint(to, tokenId, \"\") */\n      mload(0x40)\n      dup1\n      0x20\n      add\n      0x40\n      mstore\n      dup1\n      0x00\n      dup2\n      mstore\n      pop\n        /* \"@openzeppelin/contracts@4.7.3/token/ERC721/ERC721.sol\":7983:7992  _safeMint */\n      tag_248\n        /* \"@openzeppelin/contracts@4.7.3/token/ERC721/ERC721.sol\":7983:8009  _safeMint(to, tokenId, \"\") */\n      jump\t// in\n        /* \"@openzeppelin/contracts@4.7.3/access/Ownable.sol\":2433:2620  function _transferOwnership(address newOwner) internal virtual {... */\n    tag_173:\n        /* \"@openzeppelin/contracts@4.7.3/access/Ownable.sol\":2525:2531  _owner */\n      0x07\n      dup1\n      sload\n      sub(shl(0xa0, 0x01), 0x01)\n        /* \"@openzeppelin/contracts@4.7.3/access/Ownable.sol\":2541:2558  _owner = newOwner */\n      dup4\n      dup2\n      and\n      not(sub(shl(0xa0, 0x01), 0x01))\n      dup4\n      and\n      dup2\n      or\n      swap1\n      swap4\n      sstore\n        /* \"@openzeppelin/contracts@4.7.3/access/Ownable.sol\":2573:2613  OwnershipTransferred(oldOwner, newOwner) */\n      mload(0x40)\n        /* \"@openzeppelin/contracts@4.7.3/access/Ownable.sol\":2525:2531  _owner */\n      swap2\n      and\n      swap2\n        /* \"@openzeppelin/contracts@4.7.3/access/Ownable.sol\":2541:2558  _owner = newOwner */\n      swap1\n        /* \"@openzeppelin/contracts@4.7.3/access/Ownable.sol\":2525:2531  _owner */\n      dup3\n      swap1\n        /* \"@openzeppelin/contracts@4.7.3/access/Ownable.sol\":2573:2613  OwnershipTransferred(oldOwner, newOwner) */\n      0x8be0079c531659141344cd1fd0a4f28419497f9722a3daafe3b4186f6b6457e0\n      swap1\n        /* \"@openzeppelin/contracts@4.7.3/access/Ownable.sol\":2506:2522  address oldOwner */\n      0x00\n      swap1\n        /* \"@openzeppelin/contracts@4.7.3/access/Ownable.sol\":2573:2613  OwnershipTransferred(oldOwner, newOwner) */\n      log3\n        /* \"@openzeppelin/contracts@4.7.3/access/Ownable.sol\":2496:2620  {... */\n      pop\n        /* \"@openzeppelin/contracts@4.7.3/access/Ownable.sol\":2433:2620  function _transferOwnership(address newOwner) internal virtual {... */\n      pop\n      jump\t// out\n        /* \"@openzeppelin/contracts@4.7.3/token/ERC721/ERC721.sol\":11266:11573  function _setApprovalForAll(... */\n    tag_184:\n        /* \"@openzeppelin/contracts@4.7.3/token/ERC721/ERC721.sol\":11416:11424  operator */\n      dup2\n      sub(shl(0xa0, 0x01), 0x01)\n        /* \"@openzeppelin/contracts@4.7.3/token/ERC721/ERC721.sol\":11407:11424  owner != operator */\n      and\n        /* \"@openzeppelin/contracts@4.7.3/token/ERC721/ERC721.sol\":11407:11412  owner */\n      dup4\n      sub(shl(0xa0, 0x01), 0x01)\n        /* \"@openzeppelin/contracts@4.7.3/token/ERC721/ERC721.sol\":11407:11424  owner != operator */\n      and\n      sub\n        /* \"@openzeppelin/contracts@4.7.3/token/ERC721/ERC721.sol\":11399:11454  require(owner != operator, \"ERC721: approve to caller\") */\n      tag_251\n      jumpi\n      mload(0x40)\n      shl(0xe5, 0x461bcd)\n      dup2\n      mstore\n        /* \"#utility.yul\":9606:9608   */\n      0x20\n        /* \"@openzeppelin/contracts@4.7.3/token/ERC721/ERC721.sol\":11399:11454  require(owner != operator, \"ERC721: approve to caller\") */\n      0x04\n      dup3\n      add\n        /* \"#utility.yul\":9588:9609   */\n      mstore\n        /* \"#utility.yul\":9645:9647   */\n      0x19\n        /* \"#utility.yul\":9625:9643   */\n      0x24\n      dup3\n      add\n        /* \"#utility.yul\":9618:9648   */\n      mstore\n        /* \"#utility.yul\":9684:9711   */\n      0x4552433732313a20617070726f766520746f2063616c6c657200000000000000\n        /* \"#utility.yul\":9664:9682   */\n      0x44\n      dup3\n      add\n        /* \"#utility.yul\":9657:9712   */\n      mstore\n        /* \"#utility.yul\":9729:9747   */\n      0x64\n      add\n        /* \"@openzeppelin/contracts@4.7.3/token/ERC721/ERC721.sol\":11399:11454  require(owner != operator, \"ERC721: approve to caller\") */\n      tag_117\n        /* \"#utility.yul\":9404:9753   */\n      jump\n        /* \"@openzeppelin/contracts@4.7.3/token/ERC721/ERC721.sol\":11399:11454  require(owner != operator, \"ERC721: approve to caller\") */\n    tag_251:\n      sub(shl(0xa0, 0x01), 0x01)\n        /* \"@openzeppelin/contracts@4.7.3/token/ERC721/ERC721.sol\":11464:11489  _operatorApprovals[owner] */\n      dup4\n      dup2\n      and\n      0x00\n      dup2\n      dup2\n      mstore\n        /* \"@openzeppelin/contracts@4.7.3/token/ERC721/ERC721.sol\":11464:11482  _operatorApprovals */\n      0x05\n        /* \"@openzeppelin/contracts@4.7.3/token/ERC721/ERC721.sol\":11464:11489  _operatorApprovals[owner] */\n      0x20\n      swap1\n      dup2\n      mstore\n      0x40\n      dup1\n      dup4\n      keccak256\n        /* \"@openzeppelin/contracts@4.7.3/token/ERC721/ERC721.sol\":11464:11499  _operatorApprovals[owner][operator] */\n      swap5\n      dup8\n      and\n      dup1\n      dup5\n      mstore\n      swap5\n      dup3\n      mstore\n      swap2\n      dup3\n      swap1\n      keccak256\n        /* \"@openzeppelin/contracts@4.7.3/token/ERC721/ERC721.sol\":11464:11510  _operatorApprovals[owner][operator] = approved */\n      dup1\n      sload\n      not(0xff)\n      and\n      dup7\n      iszero\n      iszero\n      swap1\n      dup2\n      or\n      swap1\n      swap2\n      sstore\n        /* \"@openzeppelin/contracts@4.7.3/token/ERC721/ERC721.sol\":11525:11566  ApprovalForAll(owner, operator, approved) */\n      swap2\n      mload\n        /* \"#utility.yul\":540:581   */\n      swap2\n      dup3\n      mstore\n        /* \"@openzeppelin/contracts@4.7.3/token/ERC721/ERC721.sol\":11525:11566  ApprovalForAll(owner, operator, approved) */\n      0x17307eab39ab6107e8899845ad3d59bd9653f200f220920489ca2b5937696c31\n      swap2\n        /* \"#utility.yul\":513:531   */\n      add\n        /* \"@openzeppelin/contracts@4.7.3/token/ERC721/ERC721.sol\":11525:11566  ApprovalForAll(owner, operator, approved) */\n      mload(0x40)\n      dup1\n      swap2\n      sub\n      swap1\n      log3\n        /* \"@openzeppelin/contracts@4.7.3/token/ERC721/ERC721.sol\":11266:11573  function _setApprovalForAll(... */\n      pop\n      pop\n      pop\n      jump\t// out\n        /* \"@openzeppelin/contracts@4.7.3/token/ERC721/ERC721.sol\":6426:6731  function _safeTransfer(... */\n    tag_191:\n        /* \"@openzeppelin/contracts@4.7.3/token/ERC721/ERC721.sol\":6576:6604  _transfer(from, to, tokenId) */\n      tag_256\n        /* \"@openzeppelin/contracts@4.7.3/token/ERC721/ERC721.sol\":6586:6590  from */\n      dup5\n        /* \"@openzeppelin/contracts@4.7.3/token/ERC721/ERC721.sol\":6592:6594  to */\n      dup5\n        /* \"@openzeppelin/contracts@4.7.3/token/ERC721/ERC721.sol\":6596:6603  tokenId */\n      dup5\n        /* \"@openzeppelin/contracts@4.7.3/token/ERC721/ERC721.sol\":6576:6585  _transfer */\n      tag_143\n        /* \"@openzeppelin/contracts@4.7.3/token/ERC721/ERC721.sol\":6576:6604  _transfer(from, to, tokenId) */\n      jump\t// in\n    tag_256:\n        /* \"@openzeppelin/contracts@4.7.3/token/ERC721/ERC721.sol\":6622:6669  _checkOnERC721Received(from, to, tokenId, data) */\n      tag_257\n        /* \"@openzeppelin/contracts@4.7.3/token/ERC721/ERC721.sol\":6645:6649  from */\n      dup5\n        /* \"@openzeppelin/contracts@4.7.3/token/ERC721/ERC721.sol\":6651:6653  to */\n      dup5\n        /* \"@openzeppelin/contracts@4.7.3/token/ERC721/ERC721.sol\":6655:6662  tokenId */\n      dup5\n        /* \"@openzeppelin/contracts@4.7.3/token/ERC721/ERC721.sol\":6664:6668  data */\n      dup5\n        /* \"@openzeppelin/contracts@4.7.3/token/ERC721/ERC721.sol\":6622:6644  _checkOnERC721Received */\n      tag_258\n        /* \"@openzeppelin/contracts@4.7.3/token/ERC721/ERC721.sol\":6622:6669  _checkOnERC721Received(from, to, tokenId, data) */\n      jump\t// in\n    tag_257:\n        /* \"@openzeppelin/contracts@4.7.3/token/ERC721/ERC721.sol\":6614:6724  require(_checkOnERC721Received(from, to, tokenId, data), \"ERC721: transfer to non ERC721Receiver implementer\") */\n      tag_190\n      jumpi\n      mload(0x40)\n      shl(0xe5, 0x461bcd)\n      dup2\n      mstore\n      0x04\n      add\n      tag_117\n      swap1\n      tag_261\n      jump\t// in\n        /* \"CryDapeSBT.sol\":705:897  function _baseURI() ... */\n    tag_194:\n        /* \"CryDapeSBT.sol\":781:794  string memory */\n      0x60\n        /* \"CryDapeSBT.sol\":813:889  return \"ipfs://bafybeidt5boy4ousc3jl7v6v5xvle6ybiteqduek7moil6gtzajazfxq2y/\" */\n      mload(0x40)\n      dup1\n      0x80\n      add\n      0x40\n      mstore\n      dup1\n      0x43\n      dup2\n      mstore\n      0x20\n      add\n      data_2430cf5ac400c0a5264ec72a49b9337eb0df6cee8346e0e4a4a8ce5ac4fd29e6\n      0x43\n      swap2\n      codecopy\n      swap1\n      pop\n        /* \"CryDapeSBT.sol\":705:897  function _baseURI() ... */\n      swap1\n      jump\t// out\n        /* \"@openzeppelin/contracts@4.7.3/token/ERC721/extensions/ERC721URIStorage.sol\":1669:1869  function _burn(uint256 tokenId) internal virtual override {... */\n    tag_220:\n        /* \"@openzeppelin/contracts@4.7.3/token/ERC721/extensions/ERC721URIStorage.sol\":1737:1757  super._burn(tokenId) */\n      tag_265\n        /* \"@openzeppelin/contracts@4.7.3/token/ERC721/extensions/ERC721URIStorage.sol\":1749:1756  tokenId */\n      dup2\n        /* \"@openzeppelin/contracts@4.7.3/token/ERC721/extensions/ERC721URIStorage.sol\":1737:1748  super._burn */\n      tag_266\n        /* \"@openzeppelin/contracts@4.7.3/token/ERC721/extensions/ERC721URIStorage.sol\":1737:1757  super._burn(tokenId) */\n      jump\t// in\n    tag_265:\n        /* \"@openzeppelin/contracts@4.7.3/token/ERC721/extensions/ERC721URIStorage.sol\":1778:1797  _tokenURIs[tokenId] */\n      0x00\n      dup2\n      dup2\n      mstore\n        /* \"@openzeppelin/contracts@4.7.3/token/ERC721/extensions/ERC721URIStorage.sol\":1778:1788  _tokenURIs */\n      0x06\n        /* \"@openzeppelin/contracts@4.7.3/token/ERC721/extensions/ERC721URIStorage.sol\":1778:1797  _tokenURIs[tokenId] */\n      0x20\n      mstore\n      0x40\n      swap1\n      keccak256\n        /* \"@openzeppelin/contracts@4.7.3/token/ERC721/extensions/ERC721URIStorage.sol\":1772:1805  bytes(_tokenURIs[tokenId]).length */\n      dup1\n      sload\n      tag_267\n      swap1\n      tag_106\n      jump\t// in\n    tag_267:\n        /* \"@openzeppelin/contracts@4.7.3/token/ERC721/extensions/ERC721URIStorage.sol\":1772:1810  bytes(_tokenURIs[tokenId]).length != 0 */\n      iszero\n      swap1\n      pop\n        /* \"@openzeppelin/contracts@4.7.3/token/ERC721/extensions/ERC721URIStorage.sol\":1768:1863  if (bytes(_tokenURIs[tokenId]).length != 0) {... */\n      tag_133\n      jumpi\n        /* \"@openzeppelin/contracts@4.7.3/token/ERC721/extensions/ERC721URIStorage.sol\":1833:1852  _tokenURIs[tokenId] */\n      0x00\n      dup2\n      dup2\n      mstore\n        /* \"@openzeppelin/contracts@4.7.3/token/ERC721/extensions/ERC721URIStorage.sol\":1833:1843  _tokenURIs */\n      0x06\n        /* \"@openzeppelin/contracts@4.7.3/token/ERC721/extensions/ERC721URIStorage.sol\":1833:1852  _tokenURIs[tokenId] */\n      0x20\n      mstore\n      0x40\n      dup2\n      keccak256\n        /* \"@openzeppelin/contracts@4.7.3/token/ERC721/extensions/ERC721URIStorage.sol\":1826:1852  delete _tokenURIs[tokenId] */\n      tag_133\n      swap2\n      tag_270\n      jump\t// in\n        /* \"CryDapeSBT.sol\":1773:2035  function _beforeTokenTransfer(... */\n    tag_236:\n      sub(shl(0xa0, 0x01), 0x01)\n        /* \"CryDapeSBT.sol\":1954:1972  from == address(0) */\n      dup4\n      and\n      iszero\n      dup1\n        /* \"CryDapeSBT.sol\":1954:1992  from == address(0) || to == address(0) */\n      tag_272\n      jumpi\n      pop\n      sub(shl(0xa0, 0x01), 0x01)\n        /* \"CryDapeSBT.sol\":1976:1992  to == address(0) */\n      dup3\n      and\n      iszero\n        /* \"CryDapeSBT.sol\":1954:1992  from == address(0) || to == address(0) */\n    tag_272:\n        /* \"CryDapeSBT.sol\":1946:2027  require(from == address(0) || to == address(0), \"You Cannot transfer this token\") */\n      tag_127\n      jumpi\n      mload(0x40)\n      shl(0xe5, 0x461bcd)\n      dup2\n      mstore\n        /* \"#utility.yul\":10379:10381   */\n      0x20\n        /* \"CryDapeSBT.sol\":1946:2027  require(from == address(0) || to == address(0), \"You Cannot transfer this token\") */\n      0x04\n      dup3\n      add\n        /* \"#utility.yul\":10361:10382   */\n      mstore\n        /* \"#utility.yul\":10418:10420   */\n      0x1e\n        /* \"#utility.yul\":10398:10416   */\n      0x24\n      dup3\n      add\n        /* \"#utility.yul\":10391:10421   */\n      mstore\n        /* \"#utility.yul\":10457:10489   */\n      0x596f752043616e6e6f74207472616e73666572207468697320746f6b656e0000\n        /* \"#utility.yul\":10437:10455   */\n      0x44\n      dup3\n      add\n        /* \"#utility.yul\":10430:10490   */\n      mstore\n        /* \"#utility.yul\":10507:10525   */\n      0x64\n      add\n        /* \"CryDapeSBT.sol\":1946:2027  require(from == address(0) || to == address(0), \"You Cannot transfer this token\") */\n      tag_117\n        /* \"#utility.yul\":10177:10531   */\n      jump\n        /* \"CryDapeSBT.sol\":2043:2385  function _afterTokenTransfer(... */\n    tag_243:\n      sub(shl(0xa0, 0x01), 0x01)\n        /* \"CryDapeSBT.sol\":2218:2236  from == address(0) */\n      dup4\n      and\n        /* \"CryDapeSBT.sol\":2214:2378  if (from == address(0)){... */\n      tag_277\n      jumpi\n        /* \"CryDapeSBT.sol\":2257:2281  Attest(to, firstTokenId) */\n      mload(0x40)\n        /* \"CryDapeSBT.sol\":2268:2280  firstTokenId */\n      dup2\n      swap1\n      sub(shl(0xa0, 0x01), 0x01)\n        /* \"CryDapeSBT.sol\":2257:2281  Attest(to, firstTokenId) */\n      dup5\n      and\n      swap1\n      0xe9274a84b19e9428826de6bae8c48329354f8f0e73f771b97cae2d9dccd45a27\n      swap1\n      0x00\n      swap1\n      log3\n        /* \"@openzeppelin/contracts@4.7.3/token/ERC721/ERC721.sol\":3537:3874  {... */\n      pop\n        /* \"@openzeppelin/contracts@4.7.3/token/ERC721/ERC721.sol\":3467:3874  function approve(address to, uint256 tokenId) public virtual override {... */\n      pop\n      pop\n      jump\t// out\n        /* \"CryDapeSBT.sol\":2214:2378  if (from == address(0)){... */\n    tag_277:\n      sub(shl(0xa0, 0x01), 0x01)\n        /* \"CryDapeSBT.sol\":2303:2319  to == address(0) */\n      dup3\n      and\n        /* \"CryDapeSBT.sol\":2299:2378  if (to == address(0)) {... */\n      tag_127\n      jumpi\n        /* \"CryDapeSBT.sol\":2341:2366  Revoke (to, firstTokenId) */\n      mload(0x40)\n        /* \"CryDapeSBT.sol\":2353:2365  firstTokenId */\n      dup2\n      swap1\n      sub(shl(0xa0, 0x01), 0x01)\n        /* \"CryDapeSBT.sol\":2341:2366  Revoke (to, firstTokenId) */\n      dup5\n      and\n      swap1\n      0xec9ab91322523c899ede7830ec9bfc992b5981cdcc27b91162fb23de5791117b\n      swap1\n      0x00\n      swap1\n      log3\n        /* \"CryDapeSBT.sol\":2043:2385  function _afterTokenTransfer(... */\n      pop\n      pop\n      pop\n      jump\t// out\n        /* \"@openzeppelin/contracts@4.7.3/token/ERC721/ERC721.sol\":8237:8546  function _safeMint(... */\n    tag_248:\n        /* \"@openzeppelin/contracts@4.7.3/token/ERC721/ERC721.sol\":8361:8379  _mint(to, tokenId) */\n      tag_281\n        /* \"@openzeppelin/contracts@4.7.3/token/ERC721/ERC721.sol\":8367:8369  to */\n      dup4\n        /* \"@openzeppelin/contracts@4.7.3/token/ERC721/ERC721.sol\":8371:8378  tokenId */\n      dup4\n        /* \"@openzeppelin/contracts@4.7.3/token/ERC721/ERC721.sol\":8361:8366  _mint */\n      tag_282\n        /* \"@openzeppelin/contracts@4.7.3/token/ERC721/ERC721.sol\":8361:8379  _mint(to, tokenId) */\n      jump\t// in\n    tag_281:\n        /* \"@openzeppelin/contracts@4.7.3/token/ERC721/ERC721.sol\":8410:8463  _checkOnERC721Received(address(0), to, tokenId, data) */\n      tag_283\n        /* \"@openzeppelin/contracts@4.7.3/token/ERC721/ERC721.sol\":8441:8442  0 */\n      0x00\n        /* \"@openzeppelin/contracts@4.7.3/token/ERC721/ERC721.sol\":8445:8447  to */\n      dup5\n        /* \"@openzeppelin/contracts@4.7.3/token/ERC721/ERC721.sol\":8449:8456  tokenId */\n      dup5\n        /* \"@openzeppelin/contracts@4.7.3/token/ERC721/ERC721.sol\":8458:8462  data */\n      dup5\n        /* \"@openzeppelin/contracts@4.7.3/token/ERC721/ERC721.sol\":8410:8432  _checkOnERC721Received */\n      tag_258\n        /* \"@openzeppelin/contracts@4.7.3/token/ERC721/ERC721.sol\":8410:8463  _checkOnERC721Received(address(0), to, tokenId, data) */\n      jump\t// in\n    tag_283:\n        /* \"@openzeppelin/contracts@4.7.3/token/ERC721/ERC721.sol\":8389:8539  require(... */\n      tag_127\n      jumpi\n      mload(0x40)\n      shl(0xe5, 0x461bcd)\n      dup2\n      mstore\n      0x04\n      add\n      tag_117\n      swap1\n      tag_261\n      jump\t// in\n        /* \"@openzeppelin/contracts@4.7.3/token/ERC721/ERC721.sol\":12342:13173  function _checkOnERC721Received(... */\n    tag_258:\n        /* \"@openzeppelin/contracts@4.7.3/token/ERC721/ERC721.sol\":12491:12495  bool */\n      0x00\n      sub(shl(0xa0, 0x01), 0x01)\n        /* \"@openzeppelin/contracts@4.7.3/token/ERC721/ERC721.sol\":12511:12524  to.isContract */\n      dup5\n      and\n        /* \"@openzeppelin/contracts@4.7.3/utils/Address.sol\":1465:1484  account.code.length */\n      extcodesize\n        /* \"@openzeppelin/contracts@4.7.3/utils/Address.sol\":1465:1488  account.code.length > 0 */\n      iszero\n        /* \"@openzeppelin/contracts@4.7.3/token/ERC721/ERC721.sol\":12507:13167  if (to.isContract()) {... */\n      tag_289\n      jumpi\n        /* \"@openzeppelin/contracts@4.7.3/token/ERC721/ERC721.sol\":12546:12617  IERC721Receiver(to).onERC721Received(_msgSender(), from, tokenId, data) */\n      mload(0x40)\n      shl(0xe1, 0x0a85bd01)\n      dup2\n      mstore\n      sub(shl(0xa0, 0x01), 0x01)\n        /* \"@openzeppelin/contracts@4.7.3/token/ERC721/ERC721.sol\":12546:12582  IERC721Receiver(to).onERC721Received */\n      dup6\n      and\n      swap1\n      0x150b7a02\n      swap1\n        /* \"@openzeppelin/contracts@4.7.3/token/ERC721/ERC721.sol\":12546:12617  IERC721Receiver(to).onERC721Received(_msgSender(), from, tokenId, data) */\n      tag_291\n      swap1\n        /* \"@openzeppelin/contracts@4.7.3/utils/Context.sol\":719:729  msg.sender */\n      caller\n      swap1\n        /* \"@openzeppelin/contracts@4.7.3/token/ERC721/ERC721.sol\":12597:12601  from */\n      dup10\n      swap1\n        /* \"@openzeppelin/contracts@4.7.3/token/ERC721/ERC721.sol\":12603:12610  tokenId */\n      dup9\n      swap1\n        /* \"@openzeppelin/contracts@4.7.3/token/ERC721/ERC721.sol\":12612:12616  data */\n      dup9\n      swap1\n        /* \"@openzeppelin/contracts@4.7.3/token/ERC721/ERC721.sol\":12546:12617  IERC721Receiver(to).onERC721Received(_msgSender(), from, tokenId, data) */\n      0x04\n      add\n      tag_292\n      jump\t// in\n    tag_291:\n      0x20\n      mload(0x40)\n      dup1\n      dup4\n      sub\n      dup2\n      0x00\n      dup8\n      gas\n      call\n      swap3\n      pop\n      pop\n      pop\n      dup1\n      iszero\n      tag_293\n      jumpi\n      pop\n      0x40\n      dup1\n      mload\n      0x1f\n      returndatasize\n      swap1\n      dup2\n      add\n      not(0x1f)\n      and\n      dup3\n      add\n      swap1\n      swap3\n      mstore\n      tag_294\n      swap2\n      dup2\n      add\n      swap1\n      tag_295\n      jump\t// in\n    tag_294:\n      0x01\n    tag_293:\n        /* \"@openzeppelin/contracts@4.7.3/token/ERC721/ERC721.sol\":12542:13115  try IERC721Receiver(to).onERC721Received(_msgSender(), from, tokenId, data) returns (bytes4 retval) {... */\n      tag_296\n      jumpi\n      returndatasize\n      dup1\n      dup1\n      iszero\n      tag_301\n      jumpi\n      mload(0x40)\n      swap2\n      pop\n      and(add(returndatasize, 0x3f), not(0x1f))\n      dup3\n      add\n      0x40\n      mstore\n      returndatasize\n      dup3\n      mstore\n      returndatasize\n      0x00\n      0x20\n      dup5\n      add\n      returndatacopy\n      jump(tag_300)\n    tag_301:\n      0x60\n      swap2\n      pop\n    tag_300:\n      pop\n        /* \"@openzeppelin/contracts@4.7.3/token/ERC721/ERC721.sol\":12784:12790  reason */\n      dup1\n        /* \"@openzeppelin/contracts@4.7.3/token/ERC721/ERC721.sol\":12784:12797  reason.length */\n      mload\n        /* \"@openzeppelin/contracts@4.7.3/token/ERC721/ERC721.sol\":12801:12802  0 */\n      0x00\n        /* \"@openzeppelin/contracts@4.7.3/token/ERC721/ERC721.sol\":12784:12802  reason.length == 0 */\n      sub\n        /* \"@openzeppelin/contracts@4.7.3/token/ERC721/ERC721.sol\":12780:13101  if (reason.length == 0) {... */\n      tag_302\n      jumpi\n        /* \"@openzeppelin/contracts@4.7.3/token/ERC721/ERC721.sol\":12826:12886  revert(\"ERC721: transfer to non ERC721Receiver implementer\") */\n      mload(0x40)\n      shl(0xe5, 0x461bcd)\n      dup2\n      mstore\n      0x04\n      add\n      tag_117\n      swap1\n      tag_261\n      jump\t// in\n        /* \"@openzeppelin/contracts@4.7.3/token/ERC721/ERC721.sol\":12780:13101  if (reason.length == 0) {... */\n    tag_302:\n        /* \"@openzeppelin/contracts@4.7.3/token/ERC721/ERC721.sol\":13053:13059  reason */\n      dup1\n        /* \"@openzeppelin/contracts@4.7.3/token/ERC721/ERC721.sol\":13047:13060  mload(reason) */\n      mload\n        /* \"@openzeppelin/contracts@4.7.3/token/ERC721/ERC721.sol\":13038:13044  reason */\n      dup2\n        /* \"@openzeppelin/contracts@4.7.3/token/ERC721/ERC721.sol\":13034:13036  32 */\n      0x20\n        /* \"@openzeppelin/contracts@4.7.3/token/ERC721/ERC721.sol\":13030:13045  add(32, reason) */\n      add\n        /* \"@openzeppelin/contracts@4.7.3/token/ERC721/ERC721.sol\":13023:13061  revert(add(32, reason), mload(reason)) */\n      revert\n        /* \"@openzeppelin/contracts@4.7.3/token/ERC721/ERC721.sol\":12542:13115  try IERC721Receiver(to).onERC721Received(_msgSender(), from, tokenId, data) returns (bytes4 retval) {... */\n    tag_296:\n      not(sub(shl(0xe0, 0x01), 0x01))\n        /* \"@openzeppelin/contracts@4.7.3/token/ERC721/ERC721.sol\":12667:12718  retval == IERC721Receiver.onERC721Received.selector */\n      and\n      shl(0xe1, 0x0a85bd01)\n      eq\n      swap1\n      pop\n        /* \"@openzeppelin/contracts@4.7.3/token/ERC721/ERC721.sol\":12660:12718  return retval == IERC721Receiver.onERC721Received.selector */\n      jump(tag_225)\n        /* \"@openzeppelin/contracts@4.7.3/token/ERC721/ERC721.sol\":12507:13167  if (to.isContract()) {... */\n    tag_289:\n      pop\n        /* \"@openzeppelin/contracts@4.7.3/token/ERC721/ERC721.sol\":13152:13156  true */\n      0x01\n        /* \"@openzeppelin/contracts@4.7.3/token/ERC721/ERC721.sol\":12342:13173  function _checkOnERC721Received(... */\n      swap5\n      swap4\n      pop\n      pop\n      pop\n      pop\n      jump\t// out\n        /* \"@openzeppelin/contracts@4.7.3/token/ERC721/ERC721.sol\":9512:9918  function _burn(uint256 tokenId) internal virtual {... */\n    tag_266:\n        /* \"@openzeppelin/contracts@4.7.3/token/ERC721/ERC721.sol\":9571:9584  address owner */\n      0x00\n        /* \"@openzeppelin/contracts@4.7.3/token/ERC721/ERC721.sol\":9587:9610  ERC721.ownerOf(tokenId) */\n      tag_308\n        /* \"@openzeppelin/contracts@4.7.3/token/ERC721/ERC721.sol\":9602:9609  tokenId */\n      dup3\n        /* \"@openzeppelin/contracts@4.7.3/token/ERC721/ERC721.sol\":9587:9601  ERC721.ownerOf */\n      tag_64\n        /* \"@openzeppelin/contracts@4.7.3/token/ERC721/ERC721.sol\":9587:9610  ERC721.ownerOf(tokenId) */\n      jump\t// in\n    tag_308:\n        /* \"@openzeppelin/contracts@4.7.3/token/ERC721/ERC721.sol\":9571:9610  address owner = ERC721.ownerOf(tokenId) */\n      swap1\n      pop\n        /* \"@openzeppelin/contracts@4.7.3/token/ERC721/ERC721.sol\":9621:9669  _beforeTokenTransfer(owner, address(0), tokenId) */\n      tag_309\n        /* \"@openzeppelin/contracts@4.7.3/token/ERC721/ERC721.sol\":9642:9647  owner */\n      dup2\n        /* \"@openzeppelin/contracts@4.7.3/token/ERC721/ERC721.sol\":9657:9658  0 */\n      0x00\n        /* \"@openzeppelin/contracts@4.7.3/token/ERC721/ERC721.sol\":9661:9668  tokenId */\n      dup5\n        /* \"@openzeppelin/contracts@4.7.3/token/ERC721/ERC721.sol\":9621:9641  _beforeTokenTransfer */\n      tag_236\n        /* \"@openzeppelin/contracts@4.7.3/token/ERC721/ERC721.sol\":9621:9669  _beforeTokenTransfer(owner, address(0), tokenId) */\n      jump\t// in\n    tag_309:\n        /* \"@openzeppelin/contracts@4.7.3/token/ERC721/ERC721.sol\":9707:9736  _approve(address(0), tokenId) */\n      tag_310\n        /* \"@openzeppelin/contracts@4.7.3/token/ERC721/ERC721.sol\":9724:9725  0 */\n      0x00\n        /* \"@openzeppelin/contracts@4.7.3/token/ERC721/ERC721.sol\":9728:9735  tokenId */\n      dup4\n        /* \"@openzeppelin/contracts@4.7.3/token/ERC721/ERC721.sol\":9707:9715  _approve */\n      tag_128\n        /* \"@openzeppelin/contracts@4.7.3/token/ERC721/ERC721.sol\":9707:9736  _approve(address(0), tokenId) */\n      jump\t// in\n    tag_310:\n      sub(shl(0xa0, 0x01), 0x01)\n        /* \"@openzeppelin/contracts@4.7.3/token/ERC721/ERC721.sol\":9747:9763  _balances[owner] */\n      dup2\n      and\n      0x00\n      swap1\n      dup2\n      mstore\n        /* \"@openzeppelin/contracts@4.7.3/token/ERC721/ERC721.sol\":9747:9756  _balances */\n      0x03\n        /* \"@openzeppelin/contracts@4.7.3/token/ERC721/ERC721.sol\":9747:9763  _balances[owner] */\n      0x20\n      mstore\n      0x40\n      dup2\n      keccak256\n        /* \"@openzeppelin/contracts@4.7.3/token/ERC721/ERC721.sol\":9747:9768  _balances[owner] -= 1 */\n      dup1\n      sload\n        /* \"@openzeppelin/contracts@4.7.3/token/ERC721/ERC721.sol\":9767:9768  1 */\n      0x01\n      swap3\n        /* \"@openzeppelin/contracts@4.7.3/token/ERC721/ERC721.sol\":9747:9763  _balances[owner] */\n      swap1\n        /* \"@openzeppelin/contracts@4.7.3/token/ERC721/ERC721.sol\":9747:9768  _balances[owner] -= 1 */\n      tag_311\n      swap1\n        /* \"@openzeppelin/contracts@4.7.3/token/ERC721/ERC721.sol\":9767:9768  1 */\n      dup5\n      swap1\n        /* \"@openzeppelin/contracts@4.7.3/token/ERC721/ERC721.sol\":9747:9768  _balances[owner] -= 1 */\n      tag_239\n      jump\t// in\n    tag_311:\n      swap1\n      swap2\n      sstore\n      pop\n      pop\n        /* \"@openzeppelin/contracts@4.7.3/token/ERC721/ERC721.sol\":9785:9801  _owners[tokenId] */\n      0x00\n      dup3\n      dup2\n      mstore\n        /* \"@openzeppelin/contracts@4.7.3/token/ERC721/ERC721.sol\":9785:9792  _owners */\n      0x02\n        /* \"@openzeppelin/contracts@4.7.3/token/ERC721/ERC721.sol\":9785:9801  _owners[tokenId] */\n      0x20\n      mstore\n      0x40\n      dup1\n      dup3\n      keccak256\n        /* \"@openzeppelin/contracts@4.7.3/token/ERC721/ERC721.sol\":9778:9801  delete _owners[tokenId] */\n      dup1\n      sload\n      not(sub(shl(0xa0, 0x01), 0x01))\n      and\n      swap1\n      sstore\n        /* \"@openzeppelin/contracts@4.7.3/token/ERC721/ERC721.sol\":9817:9853  Transfer(owner, address(0), tokenId) */\n      mload\n        /* \"@openzeppelin/contracts@4.7.3/token/ERC721/ERC721.sol\":9793:9800  tokenId */\n      dup4\n      swap2\n        /* \"@openzeppelin/contracts@4.7.3/token/ERC721/ERC721.sol\":9785:9801  _owners[tokenId] */\n      swap1\n      sub(shl(0xa0, 0x01), 0x01)\n        /* \"@openzeppelin/contracts@4.7.3/token/ERC721/ERC721.sol\":9817:9853  Transfer(owner, address(0), tokenId) */\n      dup5\n      and\n      swap1\n      0xddf252ad1be2c89b69c2b068fc378daa952ba7f163c4a11628f55a4df523b3ef\n      swap1\n        /* \"@openzeppelin/contracts@4.7.3/token/ERC721/ERC721.sol\":9785:9801  _owners[tokenId] */\n      dup4\n      swap1\n        /* \"@openzeppelin/contracts@4.7.3/token/ERC721/ERC721.sol\":9817:9853  Transfer(owner, address(0), tokenId) */\n      log4\n        /* \"@openzeppelin/contracts@4.7.3/token/ERC721/ERC721.sol\":9864:9911  _afterTokenTransfer(owner, address(0), tokenId) */\n      tag_151\n        /* \"@openzeppelin/contracts@4.7.3/token/ERC721/ERC721.sol\":9884:9889  owner */\n      dup2\n        /* \"@openzeppelin/contracts@4.7.3/token/ERC721/ERC721.sol\":9899:9900  0 */\n      0x00\n        /* \"@openzeppelin/contracts@4.7.3/token/ERC721/ERC721.sol\":9903:9910  tokenId */\n      dup5\n        /* \"@openzeppelin/contracts@4.7.3/token/ERC721/ERC721.sol\":9864:9883  _afterTokenTransfer */\n      tag_243\n        /* \"@openzeppelin/contracts@4.7.3/token/ERC721/ERC721.sol\":9864:9911  _afterTokenTransfer(owner, address(0), tokenId) */\n      jump\t// in\n        /* \"@openzeppelin/contracts@4.7.3/token/ERC721/ERC721.sol\":8868:9295  function _mint(address to, uint256 tokenId) internal virtual {... */\n    tag_282:\n      sub(shl(0xa0, 0x01), 0x01)\n        /* \"@openzeppelin/contracts@4.7.3/token/ERC721/ERC721.sol\":8947:8963  to != address(0) */\n      dup3\n      and\n        /* \"@openzeppelin/contracts@4.7.3/token/ERC721/ERC721.sol\":8939:9000  require(to != address(0), \"ERC721: mint to the zero address\") */\n      tag_314\n      jumpi\n      mload(0x40)\n      shl(0xe5, 0x461bcd)\n      dup2\n      mstore\n        /* \"#utility.yul\":11486:11488   */\n      0x20\n        /* \"@openzeppelin/contracts@4.7.3/token/ERC721/ERC721.sol\":8939:9000  require(to != address(0), \"ERC721: mint to the zero address\") */\n      0x04\n      dup3\n      add\n        /* \"#utility.yul\":11468:11489   */\n      dup2\n      swap1\n      mstore\n        /* \"#utility.yul\":11505:11523   */\n      0x24\n      dup3\n      add\n        /* \"#utility.yul\":11498:11528   */\n      mstore\n        /* \"#utility.yul\":11564:11598   */\n      0x4552433732313a206d696e7420746f20746865207a65726f2061646472657373\n        /* \"#utility.yul\":11544:11562   */\n      0x44\n      dup3\n      add\n        /* \"#utility.yul\":11537:11599   */\n      mstore\n        /* \"#utility.yul\":11616:11634   */\n      0x64\n      add\n        /* \"@openzeppelin/contracts@4.7.3/token/ERC721/ERC721.sol\":8939:9000  require(to != address(0), \"ERC721: mint to the zero address\") */\n      tag_117\n        /* \"#utility.yul\":11284:11640   */\n      jump\n        /* \"@openzeppelin/contracts@4.7.3/token/ERC721/ERC721.sol\":8939:9000  require(to != address(0), \"ERC721: mint to the zero address\") */\n    tag_314:\n        /* \"@openzeppelin/contracts@4.7.3/token/ERC721/ERC721.sol\":7099:7103  bool */\n      0x00\n        /* \"@openzeppelin/contracts@4.7.3/token/ERC721/ERC721.sol\":7122:7138  _owners[tokenId] */\n      dup2\n      dup2\n      mstore\n        /* \"@openzeppelin/contracts@4.7.3/token/ERC721/ERC721.sol\":7122:7129  _owners */\n      0x02\n        /* \"@openzeppelin/contracts@4.7.3/token/ERC721/ERC721.sol\":7122:7138  _owners[tokenId] */\n      0x20\n      mstore\n      0x40\n      swap1\n      keccak256\n      sload\n      sub(shl(0xa0, 0x01), 0x01)\n      and\n        /* \"@openzeppelin/contracts@4.7.3/token/ERC721/ERC721.sol\":7122:7152  _owners[tokenId] != address(0) */\n      iszero\n        /* \"@openzeppelin/contracts@4.7.3/token/ERC721/ERC721.sol\":9010:9068  require(!_exists(tokenId), \"ERC721: token already minted\") */\n      tag_318\n      jumpi\n      mload(0x40)\n      shl(0xe5, 0x461bcd)\n      dup2\n      mstore\n        /* \"#utility.yul\":11847:11849   */\n      0x20\n        /* \"@openzeppelin/contracts@4.7.3/token/ERC721/ERC721.sol\":9010:9068  require(!_exists(tokenId), \"ERC721: token already minted\") */\n      0x04\n      dup3\n      add\n        /* \"#utility.yul\":11829:11850   */\n      mstore\n        /* \"#utility.yul\":11886:11888   */\n      0x1c\n        /* \"#utility.yul\":11866:11884   */\n      0x24\n      dup3\n      add\n        /* \"#utility.yul\":11859:11889   */\n      mstore\n        /* \"#utility.yul\":11925:11955   */\n      0x4552433732313a20746f6b656e20616c7265616479206d696e74656400000000\n        /* \"#utility.yul\":11905:11923   */\n      0x44\n      dup3\n      add\n        /* \"#utility.yul\":11898:11956   */\n      mstore\n        /* \"#utility.yul\":11973:11991   */\n      0x64\n      add\n        /* \"@openzeppelin/contracts@4.7.3/token/ERC721/ERC721.sol\":9010:9068  require(!_exists(tokenId), \"ERC721: token already minted\") */\n      tag_117\n        /* \"#utility.yul\":11645:11997   */\n      jump\n        /* \"@openzeppelin/contracts@4.7.3/token/ERC721/ERC721.sol\":9010:9068  require(!_exists(tokenId), \"ERC721: token already minted\") */\n    tag_318:\n        /* \"@openzeppelin/contracts@4.7.3/token/ERC721/ERC721.sol\":9079:9124  _beforeTokenTransfer(address(0), to, tokenId) */\n      tag_321\n        /* \"@openzeppelin/contracts@4.7.3/token/ERC721/ERC721.sol\":9108:9109  0 */\n      0x00\n        /* \"@openzeppelin/contracts@4.7.3/token/ERC721/ERC721.sol\":9112:9114  to */\n      dup4\n        /* \"@openzeppelin/contracts@4.7.3/token/ERC721/ERC721.sol\":9116:9123  tokenId */\n      dup4\n        /* \"@openzeppelin/contracts@4.7.3/token/ERC721/ERC721.sol\":9079:9099  _beforeTokenTransfer */\n      tag_236\n        /* \"@openzeppelin/contracts@4.7.3/token/ERC721/ERC721.sol\":9079:9124  _beforeTokenTransfer(address(0), to, tokenId) */\n      jump\t// in\n    tag_321:\n      sub(shl(0xa0, 0x01), 0x01)\n        /* \"@openzeppelin/contracts@4.7.3/token/ERC721/ERC721.sol\":9135:9148  _balances[to] */\n      dup3\n      and\n      0x00\n      swap1\n      dup2\n      mstore\n        /* \"@openzeppelin/contracts@4.7.3/token/ERC721/ERC721.sol\":9135:9144  _balances */\n      0x03\n        /* \"@openzeppelin/contracts@4.7.3/token/ERC721/ERC721.sol\":9135:9148  _balances[to] */\n      0x20\n      mstore\n      0x40\n      dup2\n      keccak256\n        /* \"@openzeppelin/contracts@4.7.3/token/ERC721/ERC721.sol\":9135:9153  _balances[to] += 1 */\n      dup1\n      sload\n        /* \"@openzeppelin/contracts@4.7.3/token/ERC721/ERC721.sol\":9152:9153  1 */\n      0x01\n      swap3\n        /* \"@openzeppelin/contracts@4.7.3/token/ERC721/ERC721.sol\":9135:9148  _balances[to] */\n      swap1\n        /* \"@openzeppelin/contracts@4.7.3/token/ERC721/ERC721.sol\":9135:9153  _balances[to] += 1 */\n      tag_322\n      swap1\n        /* \"@openzeppelin/contracts@4.7.3/token/ERC721/ERC721.sol\":9152:9153  1 */\n      dup5\n      swap1\n        /* \"@openzeppelin/contracts@4.7.3/token/ERC721/ERC721.sol\":9135:9153  _balances[to] += 1 */\n      tag_241\n      jump\t// in\n    tag_322:\n      swap1\n      swap2\n      sstore\n      pop\n      pop\n        /* \"@openzeppelin/contracts@4.7.3/token/ERC721/ERC721.sol\":9163:9179  _owners[tokenId] */\n      0x00\n      dup2\n      dup2\n      mstore\n        /* \"@openzeppelin/contracts@4.7.3/token/ERC721/ERC721.sol\":9163:9170  _owners */\n      0x02\n        /* \"@openzeppelin/contracts@4.7.3/token/ERC721/ERC721.sol\":9163:9179  _owners[tokenId] */\n      0x20\n      mstore\n      0x40\n      dup1\n      dup3\n      keccak256\n        /* \"@openzeppelin/contracts@4.7.3/token/ERC721/ERC721.sol\":9163:9184  _owners[tokenId] = to */\n      dup1\n      sload\n      not(sub(shl(0xa0, 0x01), 0x01))\n      and\n      sub(shl(0xa0, 0x01), 0x01)\n      dup7\n      and\n      swap1\n      dup2\n      or\n      swap1\n      swap2\n      sstore\n        /* \"@openzeppelin/contracts@4.7.3/token/ERC721/ERC721.sol\":9200:9233  Transfer(address(0), to, tokenId) */\n      swap1\n      mload\n        /* \"@openzeppelin/contracts@4.7.3/token/ERC721/ERC721.sol\":9163:9179  _owners[tokenId] */\n      dup4\n      swap3\n      swap1\n        /* \"@openzeppelin/contracts@4.7.3/token/ERC721/ERC721.sol\":9200:9233  Transfer(address(0), to, tokenId) */\n      0xddf252ad1be2c89b69c2b068fc378daa952ba7f163c4a11628f55a4df523b3ef\n      swap1\n        /* \"@openzeppelin/contracts@4.7.3/token/ERC721/ERC721.sol\":9163:9179  _owners[tokenId] */\n      dup3\n      swap1\n        /* \"@openzeppelin/contracts@4.7.3/token/ERC721/ERC721.sol\":9200:9233  Transfer(address(0), to, tokenId) */\n      log4\n        /* \"@openzeppelin/contracts@4.7.3/token/ERC721/ERC721.sol\":9244:9288  _afterTokenTransfer(address(0), to, tokenId) */\n      tag_151\n        /* \"@openzeppelin/contracts@4.7.3/token/ERC721/ERC721.sol\":9272:9273  0 */\n      0x00\n        /* \"@openzeppelin/contracts@4.7.3/token/ERC721/ERC721.sol\":9276:9278  to */\n      dup4\n        /* \"@openzeppelin/contracts@4.7.3/token/ERC721/ERC721.sol\":9280:9287  tokenId */\n      dup4\n        /* \"@openzeppelin/contracts@4.7.3/token/ERC721/ERC721.sol\":9244:9263  _afterTokenTransfer */\n      tag_243\n        /* \"@openzeppelin/contracts@4.7.3/token/ERC721/ERC721.sol\":9244:9288  _afterTokenTransfer(address(0), to, tokenId) */\n      jump\t// in\n    tag_270:\n      pop\n      dup1\n      sload\n      tag_325\n      swap1\n      tag_106\n      jump\t// in\n    tag_325:\n      0x00\n      dup3\n      sstore\n      dup1\n      0x1f\n      lt\n      tag_327\n      jumpi\n      pop\n      pop\n      jump\t// out\n    tag_327:\n      0x1f\n      add\n      0x20\n      swap1\n      div\n      swap1\n      0x00\n      mstore\n      keccak256(0x00, 0x20)\n      swap1\n      dup2\n      add\n      swap1\n      tag_133\n      swap2\n      swap1\n    tag_330:\n      dup1\n      dup3\n      gt\n      iszero\n      tag_331\n      jumpi\n      0x00\n      dup2\n      sstore\n      0x01\n      add\n      jump(tag_330)\n    tag_331:\n      pop\n      swap1\n      jump\t// out\n        /* \"#utility.yul\":14:145   */\n    tag_332:\n      not(sub(shl(0xe0, 0x01), 0x01))\n        /* \"#utility.yul\":88:120   */\n      dup2\n      and\n        /* \"#utility.yul\":78:121   */\n      dup2\n      eq\n        /* \"#utility.yul\":68:139   */\n      tag_133\n      jumpi\n        /* \"#utility.yul\":135:136   */\n      0x00\n        /* \"#utility.yul\":132:133   */\n      dup1\n        /* \"#utility.yul\":125:137   */\n      revert\n        /* \"#utility.yul\":150:395   */\n    tag_27:\n        /* \"#utility.yul\":208:214   */\n      0x00\n        /* \"#utility.yul\":261:263   */\n      0x20\n        /* \"#utility.yul\":249:258   */\n      dup3\n        /* \"#utility.yul\":240:247   */\n      dup5\n        /* \"#utility.yul\":236:259   */\n      sub\n        /* \"#utility.yul\":232:264   */\n      slt\n        /* \"#utility.yul\":229:281   */\n      iszero\n      tag_341\n      jumpi\n        /* \"#utility.yul\":277:278   */\n      0x00\n        /* \"#utility.yul\":274:275   */\n      dup1\n        /* \"#utility.yul\":267:279   */\n      revert\n        /* \"#utility.yul\":229:281   */\n    tag_341:\n        /* \"#utility.yul\":316:325   */\n      dup2\n        /* \"#utility.yul\":303:326   */\n      calldataload\n        /* \"#utility.yul\":335:365   */\n      tag_342\n        /* \"#utility.yul\":359:364   */\n      dup2\n        /* \"#utility.yul\":335:365   */\n      tag_332\n      jump\t// in\n    tag_342:\n        /* \"#utility.yul\":384:389   */\n      swap4\n        /* \"#utility.yul\":150:395   */\n      swap3\n      pop\n      pop\n      pop\n      jump\t// out\n        /* \"#utility.yul\":592:1015   */\n    tag_333:\n        /* \"#utility.yul\":634:637   */\n      0x00\n        /* \"#utility.yul\":672:677   */\n      dup2\n        /* \"#utility.yul\":666:678   */\n      mload\n        /* \"#utility.yul\":699:705   */\n      dup1\n        /* \"#utility.yul\":694:697   */\n      dup5\n        /* \"#utility.yul\":687:706   */\n      mstore\n        /* \"#utility.yul\":724:725   */\n      0x00\n        /* \"#utility.yul\":734:896   */\n    tag_345:\n        /* \"#utility.yul\":748:754   */\n      dup2\n        /* \"#utility.yul\":745:746   */\n      dup2\n        /* \"#utility.yul\":742:755   */\n      lt\n        /* \"#utility.yul\":734:896   */\n      iszero\n      tag_347\n      jumpi\n        /* \"#utility.yul\":810:814   */\n      0x20\n        /* \"#utility.yul\":866:879   */\n      dup2\n      dup6\n      add\n        /* \"#utility.yul\":862:884   */\n      dup2\n      add\n        /* \"#utility.yul\":856:885   */\n      mload\n        /* \"#utility.yul\":838:849   */\n      dup7\n      dup4\n      add\n        /* \"#utility.yul\":834:854   */\n      dup3\n      add\n        /* \"#utility.yul\":827:886   */\n      mstore\n        /* \"#utility.yul\":763:775   */\n      add\n        /* \"#utility.yul\":734:896   */\n      jump(tag_345)\n    tag_347:\n        /* \"#utility.yul\":738:741   */\n      pop\n        /* \"#utility.yul\":941:942   */\n      0x00\n        /* \"#utility.yul\":934:938   */\n      0x20\n        /* \"#utility.yul\":925:931   */\n      dup3\n        /* \"#utility.yul\":920:923   */\n      dup7\n        /* \"#utility.yul\":916:932   */\n      add\n        /* \"#utility.yul\":912:939   */\n      add\n        /* \"#utility.yul\":905:943   */\n      mstore\n        /* \"#utility.yul\":1004:1008   */\n      0x20\n        /* \"#utility.yul\":997:999   */\n      0x1f\n        /* \"#utility.yul\":993:1000   */\n      not\n        /* \"#utility.yul\":988:990   */\n      0x1f\n        /* \"#utility.yul\":980:986   */\n      dup4\n        /* \"#utility.yul\":976:991   */\n      add\n        /* \"#utility.yul\":972:1001   */\n      and\n        /* \"#utility.yul\":967:970   */\n      dup6\n        /* \"#utility.yul\":963:1002   */\n      add\n        /* \"#utility.yul\":959:1009   */\n      add\n        /* \"#utility.yul\":952:1009   */\n      swap2\n      pop\n      pop\n        /* \"#utility.yul\":592:1015   */\n      swap3\n      swap2\n      pop\n      pop\n      jump\t// out\n        /* \"#utility.yul\":1020:1240   */\n    tag_34:\n        /* \"#utility.yul\":1169:1171   */\n      0x20\n        /* \"#utility.yul\":1158:1167   */\n      dup2\n        /* \"#utility.yul\":1151:1172   */\n      mstore\n        /* \"#utility.yul\":1132:1136   */\n      0x00\n        /* \"#utility.yul\":1189:1234   */\n      tag_342\n        /* \"#utility.yul\":1230:1232   */\n      0x20\n        /* \"#utility.yul\":1219:1228   */\n      dup4\n        /* \"#utility.yul\":1215:1233   */\n      add\n        /* \"#utility.yul\":1207:1213   */\n      dup5\n        /* \"#utility.yul\":1189:1234   */\n      tag_333\n      jump\t// in\n        /* \"#utility.yul\":1245:1425   */\n    tag_37:\n        /* \"#utility.yul\":1304:1310   */\n      0x00\n        /* \"#utility.yul\":1357:1359   */\n      0x20\n        /* \"#utility.yul\":1345:1354   */\n      dup3\n        /* \"#utility.yul\":1336:1343   */\n      dup5\n        /* \"#utility.yul\":1332:1355   */\n      sub\n        /* \"#utility.yul\":1328:1360   */\n      slt\n        /* \"#utility.yul\":1325:1377   */\n      iszero\n      tag_351\n      jumpi\n        /* \"#utility.yul\":1373:1374   */\n      0x00\n        /* \"#utility.yul\":1370:1371   */\n      dup1\n        /* \"#utility.yul\":1363:1375   */\n      revert\n        /* \"#utility.yul\":1325:1377   */\n    tag_351:\n      pop\n        /* \"#utility.yul\":1396:1419   */\n      calldataload\n      swap2\n        /* \"#utility.yul\":1245:1425   */\n      swap1\n      pop\n      jump\t// out\n        /* \"#utility.yul\":1638:1811   */\n    tag_334:\n        /* \"#utility.yul\":1706:1726   */\n      dup1\n      calldataload\n      sub(shl(0xa0, 0x01), 0x01)\n        /* \"#utility.yul\":1755:1786   */\n      dup2\n      and\n        /* \"#utility.yul\":1745:1787   */\n      dup2\n      eq\n        /* \"#utility.yul\":1735:1805   */\n      tag_354\n      jumpi\n        /* \"#utility.yul\":1801:1802   */\n      0x00\n        /* \"#utility.yul\":1798:1799   */\n      dup1\n        /* \"#utility.yul\":1791:1803   */\n      revert\n        /* \"#utility.yul\":1735:1805   */\n    tag_354:\n        /* \"#utility.yul\":1638:1811   */\n      swap2\n      swap1\n      pop\n      jump\t// out\n        /* \"#utility.yul\":1816:2070   */\n    tag_43:\n        /* \"#utility.yul\":1884:1890   */\n      0x00\n        /* \"#utility.yul\":1892:1898   */\n      dup1\n        /* \"#utility.yul\":1945:1947   */\n      0x40\n        /* \"#utility.yul\":1933:1942   */\n      dup4\n        /* \"#utility.yul\":1924:1931   */\n      dup6\n        /* \"#utility.yul\":1920:1943   */\n      sub\n        /* \"#utility.yul\":1916:1948   */\n      slt\n        /* \"#utility.yul\":1913:1965   */\n      iszero\n      tag_356\n      jumpi\n        /* \"#utility.yul\":1961:1962   */\n      0x00\n        /* \"#utility.yul\":1958:1959   */\n      dup1\n        /* \"#utility.yul\":1951:1963   */\n      revert\n        /* \"#utility.yul\":1913:1965   */\n    tag_356:\n        /* \"#utility.yul\":1984:2013   */\n      tag_357\n        /* \"#utility.yul\":2003:2012   */\n      dup4\n        /* \"#utility.yul\":1984:2013   */\n      tag_334\n      jump\t// in\n    tag_357:\n        /* \"#utility.yul\":1974:2013   */\n      swap5\n        /* \"#utility.yul\":2060:2062   */\n      0x20\n        /* \"#utility.yul\":2045:2063   */\n      swap4\n      swap1\n      swap4\n      add\n        /* \"#utility.yul\":2032:2064   */\n      calldataload\n      swap4\n      pop\n      pop\n      pop\n        /* \"#utility.yul\":1816:2070   */\n      jump\t// out\n        /* \"#utility.yul\":2075:2403   */\n    tag_50:\n        /* \"#utility.yul\":2152:2158   */\n      0x00\n        /* \"#utility.yul\":2160:2166   */\n      dup1\n        /* \"#utility.yul\":2168:2174   */\n      0x00\n        /* \"#utility.yul\":2221:2223   */\n      0x60\n        /* \"#utility.yul\":2209:2218   */\n      dup5\n        /* \"#utility.yul\":2200:2207   */\n      dup7\n        /* \"#utility.yul\":2196:2219   */\n      sub\n        /* \"#utility.yul\":2192:2224   */\n      slt\n        /* \"#utility.yul\":2189:2241   */\n      iszero\n      tag_359\n      jumpi\n        /* \"#utility.yul\":2237:2238   */\n      0x00\n        /* \"#utility.yul\":2234:2235   */\n      dup1\n        /* \"#utility.yul\":2227:2239   */\n      revert\n        /* \"#utility.yul\":2189:2241   */\n    tag_359:\n        /* \"#utility.yul\":2260:2289   */\n      tag_360\n        /* \"#utility.yul\":2279:2288   */\n      dup5\n        /* \"#utility.yul\":2260:2289   */\n      tag_334\n      jump\t// in\n    tag_360:\n        /* \"#utility.yul\":2250:2289   */\n      swap3\n      pop\n        /* \"#utility.yul\":2308:2346   */\n      tag_361\n        /* \"#utility.yul\":2342:2344   */\n      0x20\n        /* \"#utility.yul\":2331:2340   */\n      dup6\n        /* \"#utility.yul\":2327:2345   */\n      add\n        /* \"#utility.yul\":2308:2346   */\n      tag_334\n      jump\t// in\n    tag_361:\n        /* \"#utility.yul\":2298:2346   */\n      swap2\n      pop\n        /* \"#utility.yul\":2393:2395   */\n      0x40\n        /* \"#utility.yul\":2382:2391   */\n      dup5\n        /* \"#utility.yul\":2378:2396   */\n      add\n        /* \"#utility.yul\":2365:2397   */\n      calldataload\n        /* \"#utility.yul\":2355:2397   */\n      swap1\n      pop\n        /* \"#utility.yul\":2075:2403   */\n      swap3\n      pop\n      swap3\n      pop\n      swap3\n      jump\t// out\n        /* \"#utility.yul\":2408:2594   */\n    tag_54:\n        /* \"#utility.yul\":2467:2473   */\n      0x00\n        /* \"#utility.yul\":2520:2522   */\n      0x20\n        /* \"#utility.yul\":2508:2517   */\n      dup3\n        /* \"#utility.yul\":2499:2506   */\n      dup5\n        /* \"#utility.yul\":2495:2518   */\n      sub\n        /* \"#utility.yul\":2491:2523   */\n      slt\n        /* \"#utility.yul\":2488:2540   */\n      iszero\n      tag_363\n      jumpi\n        /* \"#utility.yul\":2536:2537   */\n      0x00\n        /* \"#utility.yul\":2533:2534   */\n      dup1\n        /* \"#utility.yul\":2526:2538   */\n      revert\n        /* \"#utility.yul\":2488:2540   */\n    tag_363:\n        /* \"#utility.yul\":2559:2588   */\n      tag_342\n        /* \"#utility.yul\":2578:2587   */\n      dup3\n        /* \"#utility.yul\":2559:2588   */\n      tag_334\n      jump\t// in\n        /* \"#utility.yul\":2781:3128   */\n    tag_81:\n        /* \"#utility.yul\":2846:2852   */\n      0x00\n        /* \"#utility.yul\":2854:2860   */\n      dup1\n        /* \"#utility.yul\":2907:2909   */\n      0x40\n        /* \"#utility.yul\":2895:2904   */\n      dup4\n        /* \"#utility.yul\":2886:2893   */\n      dup6\n        /* \"#utility.yul\":2882:2905   */\n      sub\n        /* \"#utility.yul\":2878:2910   */\n      slt\n        /* \"#utility.yul\":2875:2927   */\n      iszero\n      tag_367\n      jumpi\n        /* \"#utility.yul\":2923:2924   */\n      0x00\n        /* \"#utility.yul\":2920:2921   */\n      dup1\n        /* \"#utility.yul\":2913:2925   */\n      revert\n        /* \"#utility.yul\":2875:2927   */\n    tag_367:\n        /* \"#utility.yul\":2946:2975   */\n      tag_368\n        /* \"#utility.yul\":2965:2974   */\n      dup4\n        /* \"#utility.yul\":2946:2975   */\n      tag_334\n      jump\t// in\n    tag_368:\n        /* \"#utility.yul\":2936:2975   */\n      swap2\n      pop\n        /* \"#utility.yul\":3025:3027   */\n      0x20\n        /* \"#utility.yul\":3014:3023   */\n      dup4\n        /* \"#utility.yul\":3010:3028   */\n      add\n        /* \"#utility.yul\":2997:3029   */\n      calldataload\n        /* \"#utility.yul\":3072:3077   */\n      dup1\n        /* \"#utility.yul\":3065:3078   */\n      iszero\n        /* \"#utility.yul\":3058:3079   */\n      iszero\n        /* \"#utility.yul\":3051:3056   */\n      dup2\n        /* \"#utility.yul\":3048:3080   */\n      eq\n        /* \"#utility.yul\":3038:3098   */\n      tag_369\n      jumpi\n        /* \"#utility.yul\":3094:3095   */\n      0x00\n        /* \"#utility.yul\":3091:3092   */\n      dup1\n        /* \"#utility.yul\":3084:3096   */\n      revert\n        /* \"#utility.yul\":3038:3098   */\n    tag_369:\n        /* \"#utility.yul\":3117:3122   */\n      dup1\n        /* \"#utility.yul\":3107:3122   */\n      swap2\n      pop\n      pop\n        /* \"#utility.yul\":2781:3128   */\n      swap3\n      pop\n      swap3\n      swap1\n      pop\n      jump\t// out\n        /* \"#utility.yul\":3133:3260   */\n    tag_335:\n        /* \"#utility.yul\":3194:3204   */\n      0x4e487b71\n        /* \"#utility.yul\":3189:3192   */\n      0xe0\n        /* \"#utility.yul\":3185:3205   */\n      shl\n        /* \"#utility.yul\":3182:3183   */\n      0x00\n        /* \"#utility.yul\":3175:3206   */\n      mstore\n        /* \"#utility.yul\":3225:3229   */\n      0x41\n        /* \"#utility.yul\":3222:3223   */\n      0x04\n        /* \"#utility.yul\":3215:3230   */\n      mstore\n        /* \"#utility.yul\":3249:3253   */\n      0x24\n        /* \"#utility.yul\":3246:3247   */\n      0x00\n        /* \"#utility.yul\":3239:3254   */\n      revert\n        /* \"#utility.yul\":3265:4403   */\n    tag_85:\n        /* \"#utility.yul\":3360:3366   */\n      0x00\n        /* \"#utility.yul\":3368:3374   */\n      dup1\n        /* \"#utility.yul\":3376:3382   */\n      0x00\n        /* \"#utility.yul\":3384:3390   */\n      dup1\n        /* \"#utility.yul\":3437:3440   */\n      0x80\n        /* \"#utility.yul\":3425:3434   */\n      dup6\n        /* \"#utility.yul\":3416:3423   */\n      dup8\n        /* \"#utility.yul\":3412:3435   */\n      sub\n        /* \"#utility.yul\":3408:3441   */\n      slt\n        /* \"#utility.yul\":3405:3458   */\n      iszero\n      tag_372\n      jumpi\n        /* \"#utility.yul\":3454:3455   */\n      0x00\n        /* \"#utility.yul\":3451:3452   */\n      dup1\n        /* \"#utility.yul\":3444:3456   */\n      revert\n        /* \"#utility.yul\":3405:3458   */\n    tag_372:\n        /* \"#utility.yul\":3477:3506   */\n      tag_373\n        /* \"#utility.yul\":3496:3505   */\n      dup6\n        /* \"#utility.yul\":3477:3506   */\n      tag_334\n      jump\t// in\n    tag_373:\n        /* \"#utility.yul\":3467:3506   */\n      swap4\n      pop\n        /* \"#utility.yul\":3525:3563   */\n      tag_374\n        /* \"#utility.yul\":3559:3561   */\n      0x20\n        /* \"#utility.yul\":3548:3557   */\n      dup7\n        /* \"#utility.yul\":3544:3562   */\n      add\n        /* \"#utility.yul\":3525:3563   */\n      tag_334\n      jump\t// in\n    tag_374:\n        /* \"#utility.yul\":3515:3563   */\n      swap3\n      pop\n        /* \"#utility.yul\":3610:3612   */\n      0x40\n        /* \"#utility.yul\":3599:3608   */\n      dup6\n        /* \"#utility.yul\":3595:3613   */\n      add\n        /* \"#utility.yul\":3582:3614   */\n      calldataload\n        /* \"#utility.yul\":3572:3614   */\n      swap2\n      pop\n        /* \"#utility.yul\":3665:3667   */\n      0x60\n        /* \"#utility.yul\":3654:3663   */\n      dup6\n        /* \"#utility.yul\":3650:3668   */\n      add\n        /* \"#utility.yul\":3637:3669   */\n      calldataload\n        /* \"#utility.yul\":3688:3706   */\n      0xffffffffffffffff\n        /* \"#utility.yul\":3729:3731   */\n      dup1\n        /* \"#utility.yul\":3721:3727   */\n      dup3\n        /* \"#utility.yul\":3718:3732   */\n      gt\n        /* \"#utility.yul\":3715:3749   */\n      iszero\n      tag_375\n      jumpi\n        /* \"#utility.yul\":3745:3746   */\n      0x00\n        /* \"#utility.yul\":3742:3743   */\n      dup1\n        /* \"#utility.yul\":3735:3747   */\n      revert\n        /* \"#utility.yul\":3715:3749   */\n    tag_375:\n        /* \"#utility.yul\":3783:3789   */\n      dup2\n        /* \"#utility.yul\":3772:3781   */\n      dup8\n        /* \"#utility.yul\":3768:3790   */\n      add\n        /* \"#utility.yul\":3758:3790   */\n      swap2\n      pop\n        /* \"#utility.yul\":3828:3835   */\n      dup8\n        /* \"#utility.yul\":3821:3825   */\n      0x1f\n        /* \"#utility.yul\":3817:3819   */\n      dup4\n        /* \"#utility.yul\":3813:3826   */\n      add\n        /* \"#utility.yul\":3809:3836   */\n      slt\n        /* \"#utility.yul\":3799:3854   */\n      tag_376\n      jumpi\n        /* \"#utility.yul\":3850:3851   */\n      0x00\n        /* \"#utility.yul\":3847:3848   */\n      dup1\n        /* \"#utility.yul\":3840:3852   */\n      revert\n        /* \"#utility.yul\":3799:3854   */\n    tag_376:\n        /* \"#utility.yul\":3886:3888   */\n      dup2\n        /* \"#utility.yul\":3873:3889   */\n      calldataload\n        /* \"#utility.yul\":3908:3910   */\n      dup2\n        /* \"#utility.yul\":3904:3906   */\n      dup2\n        /* \"#utility.yul\":3901:3911   */\n      gt\n        /* \"#utility.yul\":3898:3934   */\n      iszero\n      tag_378\n      jumpi\n        /* \"#utility.yul\":3914:3932   */\n      tag_378\n      tag_335\n      jump\t// in\n    tag_378:\n        /* \"#utility.yul\":3989:3991   */\n      0x40\n        /* \"#utility.yul\":3983:3992   */\n      mload\n        /* \"#utility.yul\":3957:3959   */\n      0x1f\n        /* \"#utility.yul\":4043:4056   */\n      dup3\n      add\n      not(0x1f)\n        /* \"#utility.yul\":4039:4061   */\n      swap1\n      dup2\n      and\n        /* \"#utility.yul\":4063:4065   */\n      0x3f\n        /* \"#utility.yul\":4035:4066   */\n      add\n        /* \"#utility.yul\":4031:4071   */\n      and\n        /* \"#utility.yul\":4019:4072   */\n      dup2\n      add\n      swap1\n        /* \"#utility.yul\":4087:4105   */\n      dup4\n      dup3\n      gt\n        /* \"#utility.yul\":4107:4129   */\n      dup2\n      dup4\n      lt\n        /* \"#utility.yul\":4084:4130   */\n      or\n        /* \"#utility.yul\":4081:4153   */\n      iszero\n      tag_380\n      jumpi\n        /* \"#utility.yul\":4133:4151   */\n      tag_380\n      tag_335\n      jump\t// in\n    tag_380:\n        /* \"#utility.yul\":4173:4183   */\n      dup2\n        /* \"#utility.yul\":4169:4171   */\n      0x40\n        /* \"#utility.yul\":4162:4184   */\n      mstore\n        /* \"#utility.yul\":4208:4210   */\n      dup3\n        /* \"#utility.yul\":4200:4206   */\n      dup2\n        /* \"#utility.yul\":4193:4211   */\n      mstore\n        /* \"#utility.yul\":4248:4255   */\n      dup11\n        /* \"#utility.yul\":4243:4245   */\n      0x20\n        /* \"#utility.yul\":4238:4240   */\n      dup5\n        /* \"#utility.yul\":4234:4236   */\n      dup8\n        /* \"#utility.yul\":4230:4241   */\n      add\n        /* \"#utility.yul\":4226:4246   */\n      add\n        /* \"#utility.yul\":4223:4256   */\n      gt\n        /* \"#utility.yul\":4220:4273   */\n      iszero\n      tag_381\n      jumpi\n        /* \"#utility.yul\":4269:4270   */\n      0x00\n        /* \"#utility.yul\":4266:4267   */\n      dup1\n        /* \"#utility.yul\":4259:4271   */\n      revert\n        /* \"#utility.yul\":4220:4273   */\n    tag_381:\n        /* \"#utility.yul\":4325:4327   */\n      dup3\n        /* \"#utility.yul\":4320:4322   */\n      0x20\n        /* \"#utility.yul\":4316:4318   */\n      dup7\n        /* \"#utility.yul\":4312:4323   */\n      add\n        /* \"#utility.yul\":4307:4309   */\n      0x20\n        /* \"#utility.yul\":4299:4305   */\n      dup4\n        /* \"#utility.yul\":4295:4310   */\n      add\n        /* \"#utility.yul\":4282:4328   */\n      calldatacopy\n        /* \"#utility.yul\":4370:4371   */\n      0x00\n        /* \"#utility.yul\":4365:4367   */\n      0x20\n        /* \"#utility.yul\":4360:4362   */\n      dup5\n        /* \"#utility.yul\":4352:4358   */\n      dup4\n        /* \"#utility.yul\":4348:4363   */\n      add\n        /* \"#utility.yul\":4344:4368   */\n      add\n        /* \"#utility.yul\":4337:4372   */\n      mstore\n        /* \"#utility.yul\":4391:4397   */\n      dup1\n        /* \"#utility.yul\":4381:4397   */\n      swap6\n      pop\n      pop\n      pop\n      pop\n      pop\n      pop\n        /* \"#utility.yul\":3265:4403   */\n      swap3\n      swap6\n      swap2\n      swap5\n      pop\n      swap3\n      pop\n      jump\t// out\n        /* \"#utility.yul\":4408:4668   */\n    tag_93:\n        /* \"#utility.yul\":4476:4482   */\n      0x00\n        /* \"#utility.yul\":4484:4490   */\n      dup1\n        /* \"#utility.yul\":4537:4539   */\n      0x40\n        /* \"#utility.yul\":4525:4534   */\n      dup4\n        /* \"#utility.yul\":4516:4523   */\n      dup6\n        /* \"#utility.yul\":4512:4535   */\n      sub\n        /* \"#utility.yul\":4508:4540   */\n      slt\n        /* \"#utility.yul\":4505:4557   */\n      iszero\n      tag_383\n      jumpi\n        /* \"#utility.yul\":4553:4554   */\n      0x00\n        /* \"#utility.yul\":4550:4551   */\n      dup1\n        /* \"#utility.yul\":4543:4555   */\n      revert\n        /* \"#utility.yul\":4505:4557   */\n    tag_383:\n        /* \"#utility.yul\":4576:4605   */\n      tag_384\n        /* \"#utility.yul\":4595:4604   */\n      dup4\n        /* \"#utility.yul\":4576:4605   */\n      tag_334\n      jump\t// in\n    tag_384:\n        /* \"#utility.yul\":4566:4605   */\n      swap2\n      pop\n        /* \"#utility.yul\":4624:4662   */\n      tag_385\n        /* \"#utility.yul\":4658:4660   */\n      0x20\n        /* \"#utility.yul\":4647:4656   */\n      dup5\n        /* \"#utility.yul\":4643:4661   */\n      add\n        /* \"#utility.yul\":4624:4662   */\n      tag_334\n      jump\t// in\n    tag_385:\n        /* \"#utility.yul\":4614:4662   */\n      swap1\n      pop\n        /* \"#utility.yul\":4408:4668   */\n      swap3\n      pop\n      swap3\n      swap1\n      pop\n      jump\t// out\n        /* \"#utility.yul\":4673:5053   */\n    tag_106:\n        /* \"#utility.yul\":4752:4753   */\n      0x01\n        /* \"#utility.yul\":4748:4760   */\n      dup2\n      dup2\n      shr\n      swap1\n        /* \"#utility.yul\":4795:4807   */\n      dup3\n      and\n      dup1\n        /* \"#utility.yul\":4816:4877   */\n      tag_387\n      jumpi\n        /* \"#utility.yul\":4870:4874   */\n      0x7f\n        /* \"#utility.yul\":4862:4868   */\n      dup3\n        /* \"#utility.yul\":4858:4875   */\n      and\n        /* \"#utility.yul\":4848:4875   */\n      swap2\n      pop\n        /* \"#utility.yul\":4816:4877   */\n    tag_387:\n        /* \"#utility.yul\":4923:4925   */\n      0x20\n        /* \"#utility.yul\":4915:4921   */\n      dup3\n        /* \"#utility.yul\":4912:4926   */\n      lt\n        /* \"#utility.yul\":4892:4910   */\n      dup2\n        /* \"#utility.yul\":4889:4927   */\n      sub\n        /* \"#utility.yul\":4886:5047   */\n      tag_388\n      jumpi\n        /* \"#utility.yul\":4969:4979   */\n      0x4e487b71\n        /* \"#utility.yul\":4964:4967   */\n      0xe0\n        /* \"#utility.yul\":4960:4980   */\n      shl\n        /* \"#utility.yul\":4957:4958   */\n      0x00\n        /* \"#utility.yul\":4950:4981   */\n      mstore\n        /* \"#utility.yul\":5004:5008   */\n      0x22\n        /* \"#utility.yul\":5001:5002   */\n      0x04\n        /* \"#utility.yul\":4994:5009   */\n      mstore\n        /* \"#utility.yul\":5032:5036   */\n      0x24\n        /* \"#utility.yul\":5029:5030   */\n      0x00\n        /* \"#utility.yul\":5022:5037   */\n      revert\n        /* \"#utility.yul\":4886:5047   */\n    tag_388:\n      pop\n        /* \"#utility.yul\":4673:5053   */\n      swap2\n      swap1\n      pop\n      jump\t// out\n        /* \"#utility.yul\":5891:6301   */\n    tag_141:\n        /* \"#utility.yul\":6093:6095   */\n      0x20\n        /* \"#utility.yul\":6075:6096   */\n      dup1\n      dup3\n      mstore\n        /* \"#utility.yul\":6132:6134   */\n      0x2e\n        /* \"#utility.yul\":6112:6130   */\n      swap1\n      dup3\n      add\n        /* \"#utility.yul\":6105:6135   */\n      mstore\n        /* \"#utility.yul\":6171:6205   */\n      0x4552433732313a2063616c6c6572206973206e6f7420746f6b656e206f776e65\n        /* \"#utility.yul\":6166:6168   */\n      0x40\n        /* \"#utility.yul\":6151:6169   */\n      dup3\n      add\n        /* \"#utility.yul\":6144:6206   */\n      mstore\n      shl(0x92, 0x1c881b9bdc88185c1c1c9bdd9959)\n        /* \"#utility.yul\":6237:6239   */\n      0x60\n        /* \"#utility.yul\":6222:6240   */\n      dup3\n      add\n        /* \"#utility.yul\":6215:6259   */\n      mstore\n        /* \"#utility.yul\":6291:6294   */\n      0x80\n        /* \"#utility.yul\":6276:6295   */\n      add\n      swap1\n        /* \"#utility.yul\":5891:6301   */\n      jump\t// out\n        /* \"#utility.yul\":9009:9136   */\n    tag_336:\n        /* \"#utility.yul\":9070:9080   */\n      0x4e487b71\n        /* \"#utility.yul\":9065:9068   */\n      0xe0\n        /* \"#utility.yul\":9061:9081   */\n      shl\n        /* \"#utility.yul\":9058:9059   */\n      0x00\n        /* \"#utility.yul\":9051:9082   */\n      mstore\n        /* \"#utility.yul\":9101:9105   */\n      0x11\n        /* \"#utility.yul\":9098:9099   */\n      0x04\n        /* \"#utility.yul\":9091:9106   */\n      mstore\n        /* \"#utility.yul\":9125:9129   */\n      0x24\n        /* \"#utility.yul\":9122:9123   */\n      0x00\n        /* \"#utility.yul\":9115:9130   */\n      revert\n        /* \"#utility.yul\":9141:9269   */\n    tag_239:\n        /* \"#utility.yul\":9208:9217   */\n      dup2\n      dup2\n      sub\n        /* \"#utility.yul\":9229:9240   */\n      dup2\n      dup2\n      gt\n        /* \"#utility.yul\":9226:9263   */\n      iszero\n      tag_102\n      jumpi\n        /* \"#utility.yul\":9243:9261   */\n      tag_102\n      tag_336\n      jump\t// in\n        /* \"#utility.yul\":9274:9399   */\n    tag_241:\n        /* \"#utility.yul\":9339:9348   */\n      dup1\n      dup3\n      add\n        /* \"#utility.yul\":9360:9370   */\n      dup1\n      dup3\n      gt\n        /* \"#utility.yul\":9357:9393   */\n      iszero\n      tag_102\n      jumpi\n        /* \"#utility.yul\":9373:9391   */\n      tag_102\n      tag_336\n      jump\t// in\n        /* \"#utility.yul\":9758:10172   */\n    tag_261:\n        /* \"#utility.yul\":9960:9962   */\n      0x20\n        /* \"#utility.yul\":9942:9963   */\n      dup1\n      dup3\n      mstore\n        /* \"#utility.yul\":9999:10001   */\n      0x32\n        /* \"#utility.yul\":9979:9997   */\n      swap1\n      dup3\n      add\n        /* \"#utility.yul\":9972:10002   */\n      mstore\n        /* \"#utility.yul\":10038:10072   */\n      0x4552433732313a207472616e7366657220746f206e6f6e204552433732315265\n        /* \"#utility.yul\":10033:10035   */\n      0x40\n        /* \"#utility.yul\":10018:10036   */\n      dup3\n      add\n        /* \"#utility.yul\":10011:10073   */\n      mstore\n      shl(0x71, 0x31b2b4bb32b91034b6b83632b6b2b73a32b9)\n        /* \"#utility.yul\":10104:10106   */\n      0x60\n        /* \"#utility.yul\":10089:10107   */\n      dup3\n      add\n        /* \"#utility.yul\":10082:10130   */\n      mstore\n        /* \"#utility.yul\":10162:10165   */\n      0x80\n        /* \"#utility.yul\":10147:10166   */\n      add\n      swap1\n        /* \"#utility.yul\":9758:10172   */\n      jump\t// out\n        /* \"#utility.yul\":10536:11025   */\n    tag_292:\n      sub(shl(0xa0, 0x01), 0x01)\n        /* \"#utility.yul\":10805:10820   */\n      dup6\n      dup2\n      and\n        /* \"#utility.yul\":10787:10821   */\n      dup3\n      mstore\n        /* \"#utility.yul\":10857:10872   */\n      dup5\n      and\n        /* \"#utility.yul\":10852:10854   */\n      0x20\n        /* \"#utility.yul\":10837:10855   */\n      dup3\n      add\n        /* \"#utility.yul\":10830:10873   */\n      mstore\n        /* \"#utility.yul\":10904:10906   */\n      0x40\n        /* \"#utility.yul\":10889:10907   */\n      dup2\n      add\n        /* \"#utility.yul\":10882:10916   */\n      dup4\n      swap1\n      mstore\n        /* \"#utility.yul\":10952:10955   */\n      0x80\n        /* \"#utility.yul\":10947:10949   */\n      0x60\n        /* \"#utility.yul\":10932:10950   */\n      dup3\n      add\n        /* \"#utility.yul\":10925:10956   */\n      dup2\n      swap1\n      mstore\n        /* \"#utility.yul\":10730:10734   */\n      0x00\n      swap1\n        /* \"#utility.yul\":10973:11019   */\n      tag_410\n      swap1\n        /* \"#utility.yul\":10999:11018   */\n      dup4\n      add\n        /* \"#utility.yul\":10991:10997   */\n      dup5\n        /* \"#utility.yul\":10973:11019   */\n      tag_333\n      jump\t// in\n    tag_410:\n        /* \"#utility.yul\":10965:11019   */\n      swap7\n        /* \"#utility.yul\":10536:11025   */\n      swap6\n      pop\n      pop\n      pop\n      pop\n      pop\n      pop\n      jump\t// out\n        /* \"#utility.yul\":11030:11279   */\n    tag_295:\n        /* \"#utility.yul\":11099:11105   */\n      0x00\n        /* \"#utility.yul\":11152:11154   */\n      0x20\n        /* \"#utility.yul\":11140:11149   */\n      dup3\n        /* \"#utility.yul\":11131:11138   */\n      dup5\n        /* \"#utility.yul\":11127:11150   */\n      sub\n        /* \"#utility.yul\":11123:11155   */\n      slt\n        /* \"#utility.yul\":11120:11172   */\n      iszero\n      tag_412\n      jumpi\n        /* \"#utility.yul\":11168:11169   */\n      0x00\n        /* \"#utility.yul\":11165:11166   */\n      dup1\n        /* \"#utility.yul\":11158:11170   */\n      revert\n        /* \"#utility.yul\":11120:11172   */\n    tag_412:\n        /* \"#utility.yul\":11200:11209   */\n      dup2\n        /* \"#utility.yul\":11194:11210   */\n      mload\n        /* \"#utility.yul\":11219:11249   */\n      tag_342\n        /* \"#utility.yul\":11243:11248   */\n      dup2\n        /* \"#utility.yul\":11219:11249   */\n      tag_332\n      jump\t// in\n    stop\n    data_2430cf5ac400c0a5264ec72a49b9337eb0df6cee8346e0e4a4a8ce5ac4fd29e6 697066733a2f2f62616679626569647435626f79346f757363336a6c377636763578766c65367962697465716475656b376d6f696c3667747a616a617a66787132792f\n\n    auxdata: 0xa2646970667358221220ad647847b27a3bb5914331664810c40b5130f0b97cd01d1923b491eda796eb9164736f6c63430008170033\n}\n",
				"bytecode": {
					"linkReferences": {},
					"object": "608060405234801562000010575f80fd5b506040518060400160405280600a81526020016910dc9e51185c1954d09560b21b8152506040518060400160405280600381526020016221a9a160e91b815250815f908162000060919062000185565b5060016200006f828262000185565b5050506200008c620000866200009260201b60201c565b62000096565b62000251565b3390565b600780546001600160a01b038381166001600160a01b0319831681179093556040519116919082907f8be0079c531659141344cd1fd0a4f28419497f9722a3daafe3b4186f6b6457e0905f90a35050565b634e487b7160e01b5f52604160045260245ffd5b600181811c908216806200011057607f821691505b6020821081036200012f57634e487b7160e01b5f52602260045260245ffd5b50919050565b601f8211156200018057805f5260205f20601f840160051c810160208510156200015c5750805b601f840160051c820191505b818110156200017d575f815560010162000168565b50505b505050565b81516001600160401b03811115620001a157620001a1620000e7565b620001b981620001b28454620000fb565b8462000135565b602080601f831160018114620001ef575f8415620001d75750858301515b5f19600386901b1c1916600185901b17855562000249565b5f85815260208120601f198616915b828110156200021f57888601518255948401946001909101908401620001fe565b50858210156200023d57878501515f19600388901b60f8161c191681555b505060018460011b0185555b505050505050565b611588806200025f5f395ff3fe608060405234801561000f575f80fd5b506004361061011c575f3560e01c80636352211e116100a9578063a22cb4651161006e578063a22cb46514610251578063b88d4fde14610264578063c87b56dd14610277578063e985e9c51461028a578063f2fde38b1461029d575f80fd5b80636352211e146101fc57806370a082311461020f578063715018a6146102305780638da5cb5b1461023857806395d89b4114610249575f80fd5b806320c5429b116100ef57806320c5429b1461019d57806323b872dd146101b057806340d097c3146101c357806342842e0e146101d657806342966c68146101e9575f80fd5b806301ffc9a71461012057806306fdde0314610148578063081812fc1461015d578063095ea7b314610188575b5f80fd5b61013361012e366004611130565b6102b0565b60405190151581526020015b60405180910390f35b610150610301565b60405161013f9190611195565b61017061016b3660046111a7565b610390565b6040516001600160a01b03909116815260200161013f565b61019b6101963660046111d9565b6103b5565b005b61019b6101ab3660046111a7565b6104ce565b61019b6101be366004611201565b6104e2565b61019b6101d136600461123a565b610513565b61019b6101e4366004611201565b610543565b61019b6101f73660046111a7565b61055d565b61017061020a3660046111a7565b6105bd565b61022261021d36600461123a565b61061c565b60405190815260200161013f565b61019b6106a0565b6007546001600160a01b0316610170565b6101506106b3565b61019b61025f366004611253565b6106c2565b61019b6102723660046112a0565b6106cd565b6101506102853660046111a7565b610705565b610133610298366004611375565b61070f565b61019b6102ab36600461123a565b61073c565b5f6001600160e01b031982166380ac58cd60e01b14806102e057506001600160e01b03198216635b5e139f60e01b145b806102fb57506301ffc9a760e01b6001600160e01b03198316145b92915050565b60605f805461030f906113a6565b80601f016020809104026020016040519081016040528092919081815260200182805461033b906113a6565b80156103865780601f1061035d57610100808354040283529160200191610386565b820191905f5260205f20905b81548152906001019060200180831161036957829003601f168201915b5050505050905090565b5f61039a826107b2565b505f908152600460205260409020546001600160a01b031690565b5f6103bf826105bd565b9050806001600160a01b0316836001600160a01b0316036104315760405162461bcd60e51b815260206004820152602160248201527f4552433732313a20617070726f76616c20746f2063757272656e74206f776e656044820152603960f91b60648201526084015b60405180910390fd5b336001600160a01b038216148061044d575061044d813361070f565b6104bf5760405162461bcd60e51b815260206004820152603e60248201527f4552433732313a20617070726f76652063616c6c6572206973206e6f7420746f60448201527f6b656e206f776e6572206e6f7220617070726f76656420666f7220616c6c00006064820152608401610428565b6104c98383610810565b505050565b6104d661087d565b6104df816108d7565b50565b6104ec33826108e0565b6105085760405162461bcd60e51b8152600401610428906113de565b6104c983838361093e565b61051b61087d565b5f61052560085490565b9050610535600880546001019055565b61053f8282610ae7565b5050565b6104c983838360405180602001604052805f8152506106cd565b33610567826105bd565b6001600160a01b0316146104d65760405162461bcd60e51b815260206004820181905260248201527f596f7520617265206e6f7420746865206f776e6572206f6620746f6b656e49646044820152606401610428565b5f818152600260205260408120546001600160a01b0316806102fb5760405162461bcd60e51b8152602060048201526018602482015277115490cdcc8c4e881a5b9d985b1a59081d1bdad95b88125160421b6044820152606401610428565b5f6001600160a01b0382166106855760405162461bcd60e51b815260206004820152602960248201527f4552433732313a2061646472657373207a65726f206973206e6f7420612076616044820152683634b21037bbb732b960b91b6064820152608401610428565b506001600160a01b03165f9081526003602052604090205490565b6106a861087d565b6106b15f610b00565b565b60606001805461030f906113a6565b61053f338383610b51565b6106d733836108e0565b6106f35760405162461bcd60e51b8152600401610428906113de565b6106ff84848484610c1e565b50505050565b60606102fb610c51565b6001600160a01b039182165f90815260056020908152604080832093909416825291909152205460ff1690565b61074461087d565b6001600160a01b0381166107a95760405162461bcd60e51b815260206004820152602660248201527f4f776e61626c653a206e6577206f776e657220697320746865207a65726f206160448201526564647265737360d01b6064820152608401610428565b6104df81610b00565b5f818152600260205260409020546001600160a01b03166104df5760405162461bcd60e51b8152602060048201526018602482015277115490cdcc8c4e881a5b9d985b1a59081d1bdad95b88125160421b6044820152606401610428565b5f81815260046020526040902080546001600160a01b0319166001600160a01b0384169081179091558190610844826105bd565b6001600160a01b03167f8c5be1e5ebec7d5bd14f71427d1e84f3dd0314c0f7b2291e5b200ac8c7c3b92560405160405180910390a45050565b6007546001600160a01b031633146106b15760405162461bcd60e51b815260206004820181905260248201527f4f776e61626c653a2063616c6c6572206973206e6f7420746865206f776e65726044820152606401610428565b6104df81610c71565b5f806108eb836105bd565b9050806001600160a01b0316846001600160a01b031614806109125750610912818561070f565b806109365750836001600160a01b031661092b84610390565b6001600160a01b0316145b949350505050565b826001600160a01b0316610951826105bd565b6001600160a01b0316146109b55760405162461bcd60e51b815260206004820152602560248201527f4552433732313a207472616e736665722066726f6d20696e636f72726563742060448201526437bbb732b960d91b6064820152608401610428565b6001600160a01b038216610a175760405162461bcd60e51b8152602060048201526024808201527f4552433732313a207472616e7366657220746f20746865207a65726f206164646044820152637265737360e01b6064820152608401610428565b610a22838383610caf565b610a2c5f82610810565b6001600160a01b0383165f908152600360205260408120805460019290610a54908490611440565b90915550506001600160a01b0382165f908152600360205260408120805460019290610a81908490611453565b90915550505f8181526002602052604080822080546001600160a01b0319166001600160a01b0386811691821790925591518493918716917fddf252ad1be2c89b69c2b068fc378daa952ba7f163c4a11628f55a4df523b3ef91a46104c9838383610d18565b61053f828260405180602001604052805f815250610da8565b600780546001600160a01b038381166001600160a01b0319831681179093556040519116919082907f8be0079c531659141344cd1fd0a4f28419497f9722a3daafe3b4186f6b6457e0905f90a35050565b816001600160a01b0316836001600160a01b031603610bb25760405162461bcd60e51b815260206004820152601960248201527f4552433732313a20617070726f766520746f2063616c6c6572000000000000006044820152606401610428565b6001600160a01b038381165f81815260056020908152604080832094871680845294825291829020805460ff191686151590811790915591519182527f17307eab39ab6107e8899845ad3d59bd9653f200f220920489ca2b5937696c31910160405180910390a3505050565b610c2984848461093e565b610c3584848484610dda565b6106ff5760405162461bcd60e51b815260040161042890611466565b606060405180608001604052806043815260200161151060439139905090565b610c7a81610ed7565b5f8181526006602052604090208054610c92906113a6565b1590506104df575f8181526006602052604081206104df916110d1565b6001600160a01b0383161580610ccc57506001600160a01b038216155b6104c95760405162461bcd60e51b815260206004820152601e60248201527f596f752043616e6e6f74207472616e73666572207468697320746f6b656e00006044820152606401610428565b6001600160a01b038316610d605760405181906001600160a01b038416907fe9274a84b19e9428826de6bae8c48329354f8f0e73f771b97cae2d9dccd45a27905f90a3505050565b6001600160a01b0382166104c95760405181906001600160a01b038416907fec9ab91322523c899ede7830ec9bfc992b5981cdcc27b91162fb23de5791117b905f90a3505050565b610db28383610f80565b610dbe5f848484610dda565b6104c95760405162461bcd60e51b815260040161042890611466565b5f6001600160a01b0384163b15610ecc57604051630a85bd0160e11b81526001600160a01b0385169063150b7a0290610e1d9033908990889088906004016114b8565b6020604051808303815f875af1925050508015610e57575060408051601f3d908101601f19168201909252610e54918101906114f4565b60015b610eb2573d808015610e84576040519150601f19603f3d011682016040523d82523d5f602084013e610e89565b606091505b5080515f03610eaa5760405162461bcd60e51b815260040161042890611466565b805181602001fd5b6001600160e01b031916630a85bd0160e11b149050610936565b506001949350505050565b5f610ee1826105bd565b9050610eee815f84610caf565b610ef85f83610810565b6001600160a01b0381165f908152600360205260408120805460019290610f20908490611440565b90915550505f8281526002602052604080822080546001600160a01b0319169055518391906001600160a01b038416907fddf252ad1be2c89b69c2b068fc378daa952ba7f163c4a11628f55a4df523b3ef908390a461053f815f84610d18565b6001600160a01b038216610fd65760405162461bcd60e51b815260206004820181905260248201527f4552433732313a206d696e7420746f20746865207a65726f20616464726573736044820152606401610428565b5f818152600260205260409020546001600160a01b03161561103a5760405162461bcd60e51b815260206004820152601c60248201527f4552433732313a20746f6b656e20616c7265616479206d696e746564000000006044820152606401610428565b6110455f8383610caf565b6001600160a01b0382165f90815260036020526040812080546001929061106d908490611453565b90915550505f8181526002602052604080822080546001600160a01b0319166001600160a01b03861690811790915590518392907fddf252ad1be2c89b69c2b068fc378daa952ba7f163c4a11628f55a4df523b3ef908290a461053f5f8383610d18565b5080546110dd906113a6565b5f825580601f106110ec575050565b601f0160209004905f5260205f20908101906104df91905b80821115611117575f8155600101611104565b5090565b6001600160e01b0319811681146104df575f80fd5b5f60208284031215611140575f80fd5b813561114b8161111b565b9392505050565b5f81518084525f5b818110156111765760208185018101518683018201520161115a565b505f602082860101526020601f19601f83011685010191505092915050565b602081525f61114b6020830184611152565b5f602082840312156111b7575f80fd5b5035919050565b80356001600160a01b03811681146111d4575f80fd5b919050565b5f80604083850312156111ea575f80fd5b6111f3836111be565b946020939093013593505050565b5f805f60608486031215611213575f80fd5b61121c846111be565b925061122a602085016111be565b9150604084013590509250925092565b5f6020828403121561124a575f80fd5b61114b826111be565b5f8060408385031215611264575f80fd5b61126d836111be565b915060208301358015158114611281575f80fd5b809150509250929050565b634e487b7160e01b5f52604160045260245ffd5b5f805f80608085870312156112b3575f80fd5b6112bc856111be565b93506112ca602086016111be565b925060408501359150606085013567ffffffffffffffff808211156112ed575f80fd5b818701915087601f830112611300575f80fd5b8135818111156113125761131261128c565b604051601f8201601f19908116603f0116810190838211818310171561133a5761133a61128c565b816040528281528a6020848701011115611352575f80fd5b826020860160208301375f60208483010152809550505050505092959194509250565b5f8060408385031215611386575f80fd5b61138f836111be565b915061139d602084016111be565b90509250929050565b600181811c908216806113ba57607f821691505b6020821081036113d857634e487b7160e01b5f52602260045260245ffd5b50919050565b6020808252602e908201527f4552433732313a2063616c6c6572206973206e6f7420746f6b656e206f776e6560408201526d1c881b9bdc88185c1c1c9bdd995960921b606082015260800190565b634e487b7160e01b5f52601160045260245ffd5b818103818111156102fb576102fb61142c565b808201808211156102fb576102fb61142c565b60208082526032908201527f4552433732313a207472616e7366657220746f206e6f6e20455243373231526560408201527131b2b4bb32b91034b6b83632b6b2b73a32b960711b606082015260800190565b6001600160a01b03858116825284166020820152604081018390526080606082018190525f906114ea90830184611152565b9695505050505050565b5f60208284031215611504575f80fd5b815161114b8161111b56fe697066733a2f2f62616679626569647435626f79346f757363336a6c377636763578766c65367962697465716475656b376d6f696c3667747a616a617a66787132792fa2646970667358221220ad647847b27a3bb5914331664810c40b5130f0b97cd01d1923b491eda796eb9164736f6c63430008170033",
					"opcodes": "PUSH1 0x80 PUSH1 0x40 MSTORE CALLVALUE DUP1 ISZERO PUSH3 0x10 JUMPI PUSH0 DUP1 REVERT JUMPDEST POP PUSH1 0x40 MLOAD DUP1 PUSH1 0x40 ADD PUSH1 0x40 MSTORE DUP1 PUSH1 0xA DUP2 MSTORE PUSH1 0x20 ADD PUSH10 0x10DC9E51185C1954D095 PUSH1 0xB2 SHL DUP2 MSTORE POP PUSH1 0x40 MLOAD DUP1 PUSH1 0x40 ADD PUSH1 0x40 MSTORE DUP1 PUSH1 0x3 DUP2 MSTORE PUSH1 0x20 ADD PUSH3 0x21A9A1 PUSH1 0xE9 SHL DUP2 MSTORE POP DUP2 PUSH0 SWAP1 DUP2 PUSH3 0x60 SWAP2 SWAP1 PUSH3 0x185 JUMP JUMPDEST POP PUSH1 0x1 PUSH3 0x6F DUP3 DUP3 PUSH3 0x185 JUMP JUMPDEST POP POP POP PUSH3 0x8C PUSH3 0x86 PUSH3 0x92 PUSH1 0x20 SHL PUSH1 0x20 SHR JUMP JUMPDEST PUSH3 0x96 JUMP JUMPDEST PUSH3 0x251 JUMP JUMPDEST CALLER SWAP1 JUMP JUMPDEST PUSH1 0x7 DUP1 SLOAD PUSH1 0x1 PUSH1 0x1 PUSH1 0xA0 SHL SUB DUP4 DUP2 AND PUSH1 0x1 PUSH1 0x1 PUSH1 0xA0 SHL SUB NOT DUP4 AND DUP2 OR SWAP1 SWAP4 SSTORE PUSH1 0x40 MLOAD SWAP2 AND SWAP2 SWAP1 DUP3 SWAP1 PUSH32 0x8BE0079C531659141344CD1FD0A4F28419497F9722A3DAAFE3B4186F6B6457E0 SWAP1 PUSH0 SWAP1 LOG3 POP POP JUMP JUMPDEST PUSH4 0x4E487B71 PUSH1 0xE0 SHL PUSH0 MSTORE PUSH1 0x41 PUSH1 0x4 MSTORE PUSH1 0x24 PUSH0 REVERT JUMPDEST PUSH1 0x1 DUP2 DUP2 SHR SWAP1 DUP3 AND DUP1 PUSH3 0x110 JUMPI PUSH1 0x7F DUP3 AND SWAP2 POP JUMPDEST PUSH1 0x20 DUP3 LT DUP2 SUB PUSH3 0x12F JUMPI PUSH4 0x4E487B71 PUSH1 0xE0 SHL PUSH0 MSTORE PUSH1 0x22 PUSH1 0x4 MSTORE PUSH1 0x24 PUSH0 REVERT JUMPDEST POP SWAP2 SWAP1 POP JUMP JUMPDEST PUSH1 0x1F DUP3 GT ISZERO PUSH3 0x180 JUMPI DUP1 PUSH0 MSTORE PUSH1 0x20 PUSH0 KECCAK256 PUSH1 0x1F DUP5 ADD PUSH1 0x5 SHR DUP2 ADD PUSH1 0x20 DUP6 LT ISZERO PUSH3 0x15C JUMPI POP DUP1 JUMPDEST PUSH1 0x1F DUP5 ADD PUSH1 0x5 SHR DUP3 ADD SWAP2 POP JUMPDEST DUP2 DUP2 LT ISZERO PUSH3 0x17D JUMPI PUSH0 DUP2 SSTORE PUSH1 0x1 ADD PUSH3 0x168 JUMP JUMPDEST POP POP JUMPDEST POP POP POP JUMP JUMPDEST DUP2 MLOAD PUSH1 0x1 PUSH1 0x1 PUSH1 0x40 SHL SUB DUP2 GT ISZERO PUSH3 0x1A1 JUMPI PUSH3 0x1A1 PUSH3 0xE7 JUMP JUMPDEST PUSH3 0x1B9 DUP2 PUSH3 0x1B2 DUP5 SLOAD PUSH3 0xFB JUMP JUMPDEST DUP5 PUSH3 0x135 JUMP JUMPDEST PUSH1 0x20 DUP1 PUSH1 0x1F DUP4 GT PUSH1 0x1 DUP2 EQ PUSH3 0x1EF JUMPI PUSH0 DUP5 ISZERO PUSH3 0x1D7 JUMPI POP DUP6 DUP4 ADD MLOAD JUMPDEST PUSH0 NOT PUSH1 0x3 DUP7 SWAP1 SHL SHR NOT AND PUSH1 0x1 DUP6 SWAP1 SHL OR DUP6 SSTORE PUSH3 0x249 JUMP JUMPDEST PUSH0 DUP6 DUP2 MSTORE PUSH1 0x20 DUP2 KECCAK256 PUSH1 0x1F NOT DUP7 AND SWAP2 JUMPDEST DUP3 DUP2 LT ISZERO PUSH3 0x21F JUMPI DUP9 DUP7 ADD MLOAD DUP3 SSTORE SWAP5 DUP5 ADD SWAP5 PUSH1 0x1 SWAP1 SWAP2 ADD SWAP1 DUP5 ADD PUSH3 0x1FE JUMP JUMPDEST POP DUP6 DUP3 LT ISZERO PUSH3 0x23D JUMPI DUP8 DUP6 ADD MLOAD PUSH0 NOT PUSH1 0x3 DUP9 SWAP1 SHL PUSH1 0xF8 AND SHR NOT AND DUP2 SSTORE JUMPDEST POP POP PUSH1 0x1 DUP5 PUSH1 0x1 SHL ADD DUP6 SSTORE JUMPDEST POP POP POP POP POP POP JUMP JUMPDEST PUSH2 0x1588 DUP1 PUSH3 0x25F PUSH0 CODECOPY PUSH0 RETURN INVALID PUSH1 0x80 PUSH1 0x40 MSTORE CALLVALUE DUP1 ISZERO PUSH2 0xF JUMPI PUSH0 DUP1 REVERT JUMPDEST POP PUSH1 0x4 CALLDATASIZE LT PUSH2 0x11C JUMPI PUSH0 CALLDATALOAD PUSH1 0xE0 SHR DUP1 PUSH4 0x6352211E GT PUSH2 0xA9 JUMPI DUP1 PUSH4 0xA22CB465 GT PUSH2 0x6E JUMPI DUP1 PUSH4 0xA22CB465 EQ PUSH2 0x251 JUMPI DUP1 PUSH4 0xB88D4FDE EQ PUSH2 0x264 JUMPI DUP1 PUSH4 0xC87B56DD EQ PUSH2 0x277 JUMPI DUP1 PUSH4 0xE985E9C5 EQ PUSH2 0x28A JUMPI DUP1 PUSH4 0xF2FDE38B EQ PUSH2 0x29D JUMPI PUSH0 DUP1 REVERT JUMPDEST DUP1 PUSH4 0x6352211E EQ PUSH2 0x1FC JUMPI DUP1 PUSH4 0x70A08231 EQ PUSH2 0x20F JUMPI DUP1 PUSH4 0x715018A6 EQ PUSH2 0x230 JUMPI DUP1 PUSH4 0x8DA5CB5B EQ PUSH2 0x238 JUMPI DUP1 PUSH4 0x95D89B41 EQ PUSH2 0x249 JUMPI PUSH0 DUP1 REVERT JUMPDEST DUP1 PUSH4 0x20C5429B GT PUSH2 0xEF JUMPI DUP1 PUSH4 0x20C5429B EQ PUSH2 0x19D JUMPI DUP1 PUSH4 0x23B872DD EQ PUSH2 0x1B0 JUMPI DUP1 PUSH4 0x40D097C3 EQ PUSH2 0x1C3 JUMPI DUP1 PUSH4 0x42842E0E EQ PUSH2 0x1D6 JUMPI DUP1 PUSH4 0x42966C68 EQ PUSH2 0x1E9 JUMPI PUSH0 DUP1 REVERT JUMPDEST DUP1 PUSH4 0x1FFC9A7 EQ PUSH2 0x120 JUMPI DUP1 PUSH4 0x6FDDE03 EQ PUSH2 0x148 JUMPI DUP1 PUSH4 0x81812FC EQ PUSH2 0x15D JUMPI DUP1 PUSH4 0x95EA7B3 EQ PUSH2 0x188 JUMPI JUMPDEST PUSH0 DUP1 REVERT JUMPDEST PUSH2 0x133 PUSH2 0x12E CALLDATASIZE PUSH1 0x4 PUSH2 0x1130 JUMP JUMPDEST PUSH2 0x2B0 JUMP JUMPDEST PUSH1 0x40 MLOAD SWAP1 ISZERO ISZERO DUP2 MSTORE PUSH1 0x20 ADD JUMPDEST PUSH1 0x40 MLOAD DUP1 SWAP2 SUB SWAP1 RETURN JUMPDEST PUSH2 0x150 PUSH2 0x301 JUMP JUMPDEST PUSH1 0x40 MLOAD PUSH2 0x13F SWAP2 SWAP1 PUSH2 0x1195 JUMP JUMPDEST PUSH2 0x170 PUSH2 0x16B CALLDATASIZE PUSH1 0x4 PUSH2 0x11A7 JUMP JUMPDEST PUSH2 0x390 JUMP JUMPDEST PUSH1 0x40 MLOAD PUSH1 0x1 PUSH1 0x1 PUSH1 0xA0 SHL SUB SWAP1 SWAP2 AND DUP2 MSTORE PUSH1 0x20 ADD PUSH2 0x13F JUMP JUMPDEST PUSH2 0x19B PUSH2 0x196 CALLDATASIZE PUSH1 0x4 PUSH2 0x11D9 JUMP JUMPDEST PUSH2 0x3B5 JUMP JUMPDEST STOP JUMPDEST PUSH2 0x19B PUSH2 0x1AB CALLDATASIZE PUSH1 0x4 PUSH2 0x11A7 JUMP JUMPDEST PUSH2 0x4CE JUMP JUMPDEST PUSH2 0x19B PUSH2 0x1BE CALLDATASIZE PUSH1 0x4 PUSH2 0x1201 JUMP JUMPDEST PUSH2 0x4E2 JUMP JUMPDEST PUSH2 0x19B PUSH2 0x1D1 CALLDATASIZE PUSH1 0x4 PUSH2 0x123A JUMP JUMPDEST PUSH2 0x513 JUMP JUMPDEST PUSH2 0x19B PUSH2 0x1E4 CALLDATASIZE PUSH1 0x4 PUSH2 0x1201 JUMP JUMPDEST PUSH2 0x543 JUMP JUMPDEST PUSH2 0x19B PUSH2 0x1F7 CALLDATASIZE PUSH1 0x4 PUSH2 0x11A7 JUMP JUMPDEST PUSH2 0x55D JUMP JUMPDEST PUSH2 0x170 PUSH2 0x20A CALLDATASIZE PUSH1 0x4 PUSH2 0x11A7 JUMP JUMPDEST PUSH2 0x5BD JUMP JUMPDEST PUSH2 0x222 PUSH2 0x21D CALLDATASIZE PUSH1 0x4 PUSH2 0x123A JUMP JUMPDEST PUSH2 0x61C JUMP JUMPDEST PUSH1 0x40 MLOAD SWAP1 DUP2 MSTORE PUSH1 0x20 ADD PUSH2 0x13F JUMP JUMPDEST PUSH2 0x19B PUSH2 0x6A0 JUMP JUMPDEST PUSH1 0x7 SLOAD PUSH1 0x1 PUSH1 0x1 PUSH1 0xA0 SHL SUB AND PUSH2 0x170 JUMP JUMPDEST PUSH2 0x150 PUSH2 0x6B3 JUMP JUMPDEST PUSH2 0x19B PUSH2 0x25F CALLDATASIZE PUSH1 0x4 PUSH2 0x1253 JUMP JUMPDEST PUSH2 0x6C2 JUMP JUMPDEST PUSH2 0x19B PUSH2 0x272 CALLDATASIZE PUSH1 0x4 PUSH2 0x12A0 JUMP JUMPDEST PUSH2 0x6CD JUMP JUMPDEST PUSH2 0x150 PUSH2 0x285 CALLDATASIZE PUSH1 0x4 PUSH2 0x11A7 JUMP JUMPDEST PUSH2 0x705 JUMP JUMPDEST PUSH2 0x133 PUSH2 0x298 CALLDATASIZE PUSH1 0x4 PUSH2 0x1375 JUMP JUMPDEST PUSH2 0x70F JUMP JUMPDEST PUSH2 0x19B PUSH2 0x2AB CALLDATASIZE PUSH1 0x4 PUSH2 0x123A JUMP JUMPDEST PUSH2 0x73C JUMP JUMPDEST PUSH0 PUSH1 0x1 PUSH1 0x1 PUSH1 0xE0 SHL SUB NOT DUP3 AND PUSH4 0x80AC58CD PUSH1 0xE0 SHL EQ DUP1 PUSH2 0x2E0 JUMPI POP PUSH1 0x1 PUSH1 0x1 PUSH1 0xE0 SHL SUB NOT DUP3 AND PUSH4 0x5B5E139F PUSH1 0xE0 SHL EQ JUMPDEST DUP1 PUSH2 0x2FB JUMPI POP PUSH4 0x1FFC9A7 PUSH1 0xE0 SHL PUSH1 0x1 PUSH1 0x1 PUSH1 0xE0 SHL SUB NOT DUP4 AND EQ JUMPDEST SWAP3 SWAP2 POP POP JUMP JUMPDEST PUSH1 0x60 PUSH0 DUP1 SLOAD PUSH2 0x30F SWAP1 PUSH2 0x13A6 JUMP JUMPDEST DUP1 PUSH1 0x1F ADD PUSH1 0x20 DUP1 SWAP2 DIV MUL PUSH1 0x20 ADD PUSH1 0x40 MLOAD SWAP1 DUP2 ADD PUSH1 0x40 MSTORE DUP1 SWAP3 SWAP2 SWAP1 DUP2 DUP2 MSTORE PUSH1 0x20 ADD DUP3 DUP1 SLOAD PUSH2 0x33B SWAP1 PUSH2 0x13A6 JUMP JUMPDEST DUP1 ISZERO PUSH2 0x386 JUMPI DUP1 PUSH1 0x1F LT PUSH2 0x35D JUMPI PUSH2 0x100 DUP1 DUP4 SLOAD DIV MUL DUP4 MSTORE SWAP2 PUSH1 0x20 ADD SWAP2 PUSH2 0x386 JUMP JUMPDEST DUP3 ADD SWAP2 SWAP1 PUSH0 MSTORE PUSH1 0x20 PUSH0 KECCAK256 SWAP1 JUMPDEST DUP2 SLOAD DUP2 MSTORE SWAP1 PUSH1 0x1 ADD SWAP1 PUSH1 0x20 ADD DUP1 DUP4 GT PUSH2 0x369 JUMPI DUP3 SWAP1 SUB PUSH1 0x1F AND DUP3 ADD SWAP2 JUMPDEST POP POP POP POP POP SWAP1 POP SWAP1 JUMP JUMPDEST PUSH0 PUSH2 0x39A DUP3 PUSH2 0x7B2 JUMP JUMPDEST POP PUSH0 SWAP1 DUP2 MSTORE PUSH1 0x4 PUSH1 0x20 MSTORE PUSH1 0x40 SWAP1 KECCAK256 SLOAD PUSH1 0x1 PUSH1 0x1 PUSH1 0xA0 SHL SUB AND SWAP1 JUMP JUMPDEST PUSH0 PUSH2 0x3BF DUP3 PUSH2 0x5BD JUMP JUMPDEST SWAP1 POP DUP1 PUSH1 0x1 PUSH1 0x1 PUSH1 0xA0 SHL SUB AND DUP4 PUSH1 0x1 PUSH1 0x1 PUSH1 0xA0 SHL SUB AND SUB PUSH2 0x431 JUMPI PUSH1 0x40 MLOAD PUSH3 0x461BCD PUSH1 0xE5 SHL DUP2 MSTORE PUSH1 0x20 PUSH1 0x4 DUP3 ADD MSTORE PUSH1 0x21 PUSH1 0x24 DUP3 ADD MSTORE PUSH32 0x4552433732313A20617070726F76616C20746F2063757272656E74206F776E65 PUSH1 0x44 DUP3 ADD MSTORE PUSH1 0x39 PUSH1 0xF9 SHL PUSH1 0x64 DUP3 ADD MSTORE PUSH1 0x84 ADD JUMPDEST PUSH1 0x40 MLOAD DUP1 SWAP2 SUB SWAP1 REVERT JUMPDEST CALLER PUSH1 0x1 PUSH1 0x1 PUSH1 0xA0 SHL SUB DUP3 AND EQ DUP1 PUSH2 0x44D JUMPI POP PUSH2 0x44D DUP2 CALLER PUSH2 0x70F JUMP JUMPDEST PUSH2 0x4BF JUMPI PUSH1 0x40 MLOAD PUSH3 0x461BCD PUSH1 0xE5 SHL DUP2 MSTORE PUSH1 0x20 PUSH1 0x4 DUP3 ADD MSTORE PUSH1 0x3E PUSH1 0x24 DUP3 ADD MSTORE PUSH32 0x4552433732313A20617070726F76652063616C6C6572206973206E6F7420746F PUSH1 0x44 DUP3 ADD MSTORE PUSH32 0x6B656E206F776E6572206E6F7220617070726F76656420666F7220616C6C0000 PUSH1 0x64 DUP3 ADD MSTORE PUSH1 0x84 ADD PUSH2 0x428 JUMP JUMPDEST PUSH2 0x4C9 DUP4 DUP4 PUSH2 0x810 JUMP JUMPDEST POP POP POP JUMP JUMPDEST PUSH2 0x4D6 PUSH2 0x87D JUMP JUMPDEST PUSH2 0x4DF DUP2 PUSH2 0x8D7 JUMP JUMPDEST POP JUMP JUMPDEST PUSH2 0x4EC CALLER DUP3 PUSH2 0x8E0 JUMP JUMPDEST PUSH2 0x508 JUMPI PUSH1 0x40 MLOAD PUSH3 0x461BCD PUSH1 0xE5 SHL DUP2 MSTORE PUSH1 0x4 ADD PUSH2 0x428 SWAP1 PUSH2 0x13DE JUMP JUMPDEST PUSH2 0x4C9 DUP4 DUP4 DUP4 PUSH2 0x93E JUMP JUMPDEST PUSH2 0x51B PUSH2 0x87D JUMP JUMPDEST PUSH0 PUSH2 0x525 PUSH1 0x8 SLOAD SWAP1 JUMP JUMPDEST SWAP1 POP PUSH2 0x535 PUSH1 0x8 DUP1 SLOAD PUSH1 0x1 ADD SWAP1 SSTORE JUMP JUMPDEST PUSH2 0x53F DUP3 DUP3 PUSH2 0xAE7 JUMP JUMPDEST POP POP JUMP JUMPDEST PUSH2 0x4C9 DUP4 DUP4 DUP4 PUSH1 0x40 MLOAD DUP1 PUSH1 0x20 ADD PUSH1 0x40 MSTORE DUP1 PUSH0 DUP2 MSTORE POP PUSH2 0x6CD JUMP JUMPDEST CALLER PUSH2 0x567 DUP3 PUSH2 0x5BD JUMP JUMPDEST PUSH1 0x1 PUSH1 0x1 PUSH1 0xA0 SHL SUB AND EQ PUSH2 0x4D6 JUMPI PUSH1 0x40 MLOAD PUSH3 0x461BCD PUSH1 0xE5 SHL DUP2 MSTORE PUSH1 0x20 PUSH1 0x4 DUP3 ADD DUP2 SWAP1 MSTORE PUSH1 0x24 DUP3 ADD MSTORE PUSH32 0x596F7520617265206E6F7420746865206F776E6572206F6620746F6B656E4964 PUSH1 0x44 DUP3 ADD MSTORE PUSH1 0x64 ADD PUSH2 0x428 JUMP JUMPDEST PUSH0 DUP2 DUP2 MSTORE PUSH1 0x2 PUSH1 0x20 MSTORE PUSH1 0x40 DUP2 KECCAK256 SLOAD PUSH1 0x1 PUSH1 0x1 PUSH1 0xA0 SHL SUB AND DUP1 PUSH2 0x2FB JUMPI PUSH1 0x40 MLOAD PUSH3 0x461BCD PUSH1 0xE5 SHL DUP2 MSTORE PUSH1 0x20 PUSH1 0x4 DUP3 ADD MSTORE PUSH1 0x18 PUSH1 0x24 DUP3 ADD MSTORE PUSH24 0x115490CDCC8C4E881A5B9D985B1A59081D1BDAD95B881251 PUSH1 0x42 SHL PUSH1 0x44 DUP3 ADD MSTORE PUSH1 0x64 ADD PUSH2 0x428 JUMP JUMPDEST PUSH0 PUSH1 0x1 PUSH1 0x1 PUSH1 0xA0 SHL SUB DUP3 AND PUSH2 0x685 JUMPI PUSH1 0x40 MLOAD PUSH3 0x461BCD PUSH1 0xE5 SHL DUP2 MSTORE PUSH1 0x20 PUSH1 0x4 DUP3 ADD MSTORE PUSH1 0x29 PUSH1 0x24 DUP3 ADD MSTORE PUSH32 0x4552433732313A2061646472657373207A65726F206973206E6F742061207661 PUSH1 0x44 DUP3 ADD MSTORE PUSH9 0x3634B21037BBB732B9 PUSH1 0xB9 SHL PUSH1 0x64 DUP3 ADD MSTORE PUSH1 0x84 ADD PUSH2 0x428 JUMP JUMPDEST POP PUSH1 0x1 PUSH1 0x1 PUSH1 0xA0 SHL SUB AND PUSH0 SWAP1 DUP2 MSTORE PUSH1 0x3 PUSH1 0x20 MSTORE PUSH1 0x40 SWAP1 KECCAK256 SLOAD SWAP1 JUMP JUMPDEST PUSH2 0x6A8 PUSH2 0x87D JUMP JUMPDEST PUSH2 0x6B1 PUSH0 PUSH2 0xB00 JUMP JUMPDEST JUMP JUMPDEST PUSH1 0x60 PUSH1 0x1 DUP1 SLOAD PUSH2 0x30F SWAP1 PUSH2 0x13A6 JUMP JUMPDEST PUSH2 0x53F CALLER DUP4 DUP4 PUSH2 0xB51 JUMP JUMPDEST PUSH2 0x6D7 CALLER DUP4 PUSH2 0x8E0 JUMP JUMPDEST PUSH2 0x6F3 JUMPI PUSH1 0x40 MLOAD PUSH3 0x461BCD PUSH1 0xE5 SHL DUP2 MSTORE PUSH1 0x4 ADD PUSH2 0x428 SWAP1 PUSH2 0x13DE JUMP JUMPDEST PUSH2 0x6FF DUP5 DUP5 DUP5 DUP5 PUSH2 0xC1E JUMP JUMPDEST POP POP POP POP JUMP JUMPDEST PUSH1 0x60 PUSH2 0x2FB PUSH2 0xC51 JUMP JUMPDEST PUSH1 0x1 PUSH1 0x1 PUSH1 0xA0 SHL SUB SWAP2 DUP3 AND PUSH0 SWAP1 DUP2 MSTORE PUSH1 0x5 PUSH1 0x20 SWAP1 DUP2 MSTORE PUSH1 0x40 DUP1 DUP4 KECCAK256 SWAP4 SWAP1 SWAP5 AND DUP3 MSTORE SWAP2 SWAP1 SWAP2 MSTORE KECCAK256 SLOAD PUSH1 0xFF AND SWAP1 JUMP JUMPDEST PUSH2 0x744 PUSH2 0x87D JUMP JUMPDEST PUSH1 0x1 PUSH1 0x1 PUSH1 0xA0 SHL SUB DUP2 AND PUSH2 0x7A9 JUMPI PUSH1 0x40 MLOAD PUSH3 0x461BCD PUSH1 0xE5 SHL DUP2 MSTORE PUSH1 0x20 PUSH1 0x4 DUP3 ADD MSTORE PUSH1 0x26 PUSH1 0x24 DUP3 ADD MSTORE PUSH32 0x4F776E61626C653A206E6577206F776E657220697320746865207A65726F2061 PUSH1 0x44 DUP3 ADD MSTORE PUSH6 0x646472657373 PUSH1 0xD0 SHL PUSH1 0x64 DUP3 ADD MSTORE PUSH1 0x84 ADD PUSH2 0x428 JUMP JUMPDEST PUSH2 0x4DF DUP2 PUSH2 0xB00 JUMP JUMPDEST PUSH0 DUP2 DUP2 MSTORE PUSH1 0x2 PUSH1 0x20 MSTORE PUSH1 0x40 SWAP1 KECCAK256 SLOAD PUSH1 0x1 PUSH1 0x1 PUSH1 0xA0 SHL SUB AND PUSH2 0x4DF JUMPI PUSH1 0x40 MLOAD PUSH3 0x461BCD PUSH1 0xE5 SHL DUP2 MSTORE PUSH1 0x20 PUSH1 0x4 DUP3 ADD MSTORE PUSH1 0x18 PUSH1 0x24 DUP3 ADD MSTORE PUSH24 0x115490CDCC8C4E881A5B9D985B1A59081D1BDAD95B881251 PUSH1 0x42 SHL PUSH1 0x44 DUP3 ADD MSTORE PUSH1 0x64 ADD PUSH2 0x428 JUMP JUMPDEST PUSH0 DUP2 DUP2 MSTORE PUSH1 0x4 PUSH1 0x20 MSTORE PUSH1 0x40 SWAP1 KECCAK256 DUP1 SLOAD PUSH1 0x1 PUSH1 0x1 PUSH1 0xA0 SHL SUB NOT AND PUSH1 0x1 PUSH1 0x1 PUSH1 0xA0 SHL SUB DUP5 AND SWAP1 DUP2 OR SWAP1 SWAP2 SSTORE DUP2 SWAP1 PUSH2 0x844 DUP3 PUSH2 0x5BD JUMP JUMPDEST PUSH1 0x1 PUSH1 0x1 PUSH1 0xA0 SHL SUB AND PUSH32 0x8C5BE1E5EBEC7D5BD14F71427D1E84F3DD0314C0F7B2291E5B200AC8C7C3B925 PUSH1 0x40 MLOAD PUSH1 0x40 MLOAD DUP1 SWAP2 SUB SWAP1 LOG4 POP POP JUMP JUMPDEST PUSH1 0x7 SLOAD PUSH1 0x1 PUSH1 0x1 PUSH1 0xA0 SHL SUB AND CALLER EQ PUSH2 0x6B1 JUMPI PUSH1 0x40 MLOAD PUSH3 0x461BCD PUSH1 0xE5 SHL DUP2 MSTORE PUSH1 0x20 PUSH1 0x4 DUP3 ADD DUP2 SWAP1 MSTORE PUSH1 0x24 DUP3 ADD MSTORE PUSH32 0x4F776E61626C653A2063616C6C6572206973206E6F7420746865206F776E6572 PUSH1 0x44 DUP3 ADD MSTORE PUSH1 0x64 ADD PUSH2 0x428 JUMP JUMPDEST PUSH2 0x4DF DUP2 PUSH2 0xC71 JUMP JUMPDEST PUSH0 DUP1 PUSH2 0x8EB DUP4 PUSH2 0x5BD JUMP JUMPDEST SWAP1 POP DUP1 PUSH1 0x1 PUSH1 0x1 PUSH1 0xA0 SHL SUB AND DUP5 PUSH1 0x1 PUSH1 0x1 PUSH1 0xA0 SHL SUB AND EQ DUP1 PUSH2 0x912 JUMPI POP PUSH2 0x912 DUP2 DUP6 PUSH2 0x70F JUMP JUMPDEST DUP1 PUSH2 0x936 JUMPI POP DUP4 PUSH1 0x1 PUSH1 0x1 PUSH1 0xA0 SHL SUB AND PUSH2 0x92B DUP5 PUSH2 0x390 JUMP JUMPDEST PUSH1 0x1 PUSH1 0x1 PUSH1 0xA0 SHL SUB AND EQ JUMPDEST SWAP5 SWAP4 POP POP POP POP JUMP JUMPDEST DUP3 PUSH1 0x1 PUSH1 0x1 PUSH1 0xA0 SHL SUB AND PUSH2 0x951 DUP3 PUSH2 0x5BD JUMP JUMPDEST PUSH1 0x1 PUSH1 0x1 PUSH1 0xA0 SHL SUB AND EQ PUSH2 0x9B5 JUMPI PUSH1 0x40 MLOAD PUSH3 0x461BCD PUSH1 0xE5 SHL DUP2 MSTORE PUSH1 0x20 PUSH1 0x4 DUP3 ADD MSTORE PUSH1 0x25 PUSH1 0x24 DUP3 ADD MSTORE PUSH32 0x4552433732313A207472616E736665722066726F6D20696E636F727265637420 PUSH1 0x44 DUP3 ADD MSTORE PUSH5 0x37BBB732B9 PUSH1 0xD9 SHL PUSH1 0x64 DUP3 ADD MSTORE PUSH1 0x84 ADD PUSH2 0x428 JUMP JUMPDEST PUSH1 0x1 PUSH1 0x1 PUSH1 0xA0 SHL SUB DUP3 AND PUSH2 0xA17 JUMPI PUSH1 0x40 MLOAD PUSH3 0x461BCD PUSH1 0xE5 SHL DUP2 MSTORE PUSH1 0x20 PUSH1 0x4 DUP3 ADD MSTORE PUSH1 0x24 DUP1 DUP3 ADD MSTORE PUSH32 0x4552433732313A207472616E7366657220746F20746865207A65726F20616464 PUSH1 0x44 DUP3 ADD MSTORE PUSH4 0x72657373 PUSH1 0xE0 SHL PUSH1 0x64 DUP3 ADD MSTORE PUSH1 0x84 ADD PUSH2 0x428 JUMP JUMPDEST PUSH2 0xA22 DUP4 DUP4 DUP4 PUSH2 0xCAF JUMP JUMPDEST PUSH2 0xA2C PUSH0 DUP3 PUSH2 0x810 JUMP JUMPDEST PUSH1 0x1 PUSH1 0x1 PUSH1 0xA0 SHL SUB DUP4 AND PUSH0 SWAP1 DUP2 MSTORE PUSH1 0x3 PUSH1 0x20 MSTORE PUSH1 0x40 DUP2 KECCAK256 DUP1 SLOAD PUSH1 0x1 SWAP3 SWAP1 PUSH2 0xA54 SWAP1 DUP5 SWAP1 PUSH2 0x1440 JUMP JUMPDEST SWAP1 SWAP2 SSTORE POP POP PUSH1 0x1 PUSH1 0x1 PUSH1 0xA0 SHL SUB DUP3 AND PUSH0 SWAP1 DUP2 MSTORE PUSH1 0x3 PUSH1 0x20 MSTORE PUSH1 0x40 DUP2 KECCAK256 DUP1 SLOAD PUSH1 0x1 SWAP3 SWAP1 PUSH2 0xA81 SWAP1 DUP5 SWAP1 PUSH2 0x1453 JUMP JUMPDEST SWAP1 SWAP2 SSTORE POP POP PUSH0 DUP2 DUP2 MSTORE PUSH1 0x2 PUSH1 0x20 MSTORE PUSH1 0x40 DUP1 DUP3 KECCAK256 DUP1 SLOAD PUSH1 0x1 PUSH1 0x1 PUSH1 0xA0 SHL SUB NOT AND PUSH1 0x1 PUSH1 0x1 PUSH1 0xA0 SHL SUB DUP7 DUP2 AND SWAP2 DUP3 OR SWAP1 SWAP3 SSTORE SWAP2 MLOAD DUP5 SWAP4 SWAP2 DUP8 AND SWAP2 PUSH32 0xDDF252AD1BE2C89B69C2B068FC378DAA952BA7F163C4A11628F55A4DF523B3EF SWAP2 LOG4 PUSH2 0x4C9 DUP4 DUP4 DUP4 PUSH2 0xD18 JUMP JUMPDEST PUSH2 0x53F DUP3 DUP3 PUSH1 0x40 MLOAD DUP1 PUSH1 0x20 ADD PUSH1 0x40 MSTORE DUP1 PUSH0 DUP2 MSTORE POP PUSH2 0xDA8 JUMP JUMPDEST PUSH1 0x7 DUP1 SLOAD PUSH1 0x1 PUSH1 0x1 PUSH1 0xA0 SHL SUB DUP4 DUP2 AND PUSH1 0x1 PUSH1 0x1 PUSH1 0xA0 SHL SUB NOT DUP4 AND DUP2 OR SWAP1 SWAP4 SSTORE PUSH1 0x40 MLOAD SWAP2 AND SWAP2 SWAP1 DUP3 SWAP1 PUSH32 0x8BE0079C531659141344CD1FD0A4F28419497F9722A3DAAFE3B4186F6B6457E0 SWAP1 PUSH0 SWAP1 LOG3 POP POP JUMP JUMPDEST DUP2 PUSH1 0x1 PUSH1 0x1 PUSH1 0xA0 SHL SUB AND DUP4 PUSH1 0x1 PUSH1 0x1 PUSH1 0xA0 SHL SUB AND SUB PUSH2 0xBB2 JUMPI PUSH1 0x40 MLOAD PUSH3 0x461BCD PUSH1 0xE5 SHL DUP2 MSTORE PUSH1 0x20 PUSH1 0x4 DUP3 ADD MSTORE PUSH1 0x19 PUSH1 0x24 DUP3 ADD MSTORE PUSH32 0x4552433732313A20617070726F766520746F2063616C6C657200000000000000 PUSH1 0x44 DUP3 ADD MSTORE PUSH1 0x64 ADD PUSH2 0x428 JUMP JUMPDEST PUSH1 0x1 PUSH1 0x1 PUSH1 0xA0 SHL SUB DUP4 DUP2 AND PUSH0 DUP2 DUP2 MSTORE PUSH1 0x5 PUSH1 0x20 SWAP1 DUP2 MSTORE PUSH1 0x40 DUP1 DUP4 KECCAK256 SWAP5 DUP8 AND DUP1 DUP5 MSTORE SWAP5 DUP3 MSTORE SWAP2 DUP3 SWAP1 KECCAK256 DUP1 SLOAD PUSH1 0xFF NOT AND DUP7 ISZERO ISZERO SWAP1 DUP2 OR SWAP1 SWAP2 SSTORE SWAP2 MLOAD SWAP2 DUP3 MSTORE PUSH32 0x17307EAB39AB6107E8899845AD3D59BD9653F200F220920489CA2B5937696C31 SWAP2 ADD PUSH1 0x40 MLOAD DUP1 SWAP2 SUB SWAP1 LOG3 POP POP POP JUMP JUMPDEST PUSH2 0xC29 DUP5 DUP5 DUP5 PUSH2 0x93E JUMP JUMPDEST PUSH2 0xC35 DUP5 DUP5 DUP5 DUP5 PUSH2 0xDDA JUMP JUMPDEST PUSH2 0x6FF JUMPI PUSH1 0x40 MLOAD PUSH3 0x461BCD PUSH1 0xE5 SHL DUP2 MSTORE PUSH1 0x4 ADD PUSH2 0x428 SWAP1 PUSH2 0x1466 JUMP JUMPDEST PUSH1 0x60 PUSH1 0x40 MLOAD DUP1 PUSH1 0x80 ADD PUSH1 0x40 MSTORE DUP1 PUSH1 0x43 DUP2 MSTORE PUSH1 0x20 ADD PUSH2 0x1510 PUSH1 0x43 SWAP2 CODECOPY SWAP1 POP SWAP1 JUMP JUMPDEST PUSH2 0xC7A DUP2 PUSH2 0xED7 JUMP JUMPDEST PUSH0 DUP2 DUP2 MSTORE PUSH1 0x6 PUSH1 0x20 MSTORE PUSH1 0x40 SWAP1 KECCAK256 DUP1 SLOAD PUSH2 0xC92 SWAP1 PUSH2 0x13A6 JUMP JUMPDEST ISZERO SWAP1 POP PUSH2 0x4DF JUMPI PUSH0 DUP2 DUP2 MSTORE PUSH1 0x6 PUSH1 0x20 MSTORE PUSH1 0x40 DUP2 KECCAK256 PUSH2 0x4DF SWAP2 PUSH2 0x10D1 JUMP JUMPDEST PUSH1 0x1 PUSH1 0x1 PUSH1 0xA0 SHL SUB DUP4 AND ISZERO DUP1 PUSH2 0xCCC JUMPI POP PUSH1 0x1 PUSH1 0x1 PUSH1 0xA0 SHL SUB DUP3 AND ISZERO JUMPDEST PUSH2 0x4C9 JUMPI PUSH1 0x40 MLOAD PUSH3 0x461BCD PUSH1 0xE5 SHL DUP2 MSTORE PUSH1 0x20 PUSH1 0x4 DUP3 ADD MSTORE PUSH1 0x1E PUSH1 0x24 DUP3 ADD MSTORE PUSH32 0x596F752043616E6E6F74207472616E73666572207468697320746F6B656E0000 PUSH1 0x44 DUP3 ADD MSTORE PUSH1 0x64 ADD PUSH2 0x428 JUMP JUMPDEST PUSH1 0x1 PUSH1 0x1 PUSH1 0xA0 SHL SUB DUP4 AND PUSH2 0xD60 JUMPI PUSH1 0x40 MLOAD DUP2 SWAP1 PUSH1 0x1 PUSH1 0x1 PUSH1 0xA0 SHL SUB DUP5 AND SWAP1 PUSH32 0xE9274A84B19E9428826DE6BAE8C48329354F8F0E73F771B97CAE2D9DCCD45A27 SWAP1 PUSH0 SWAP1 LOG3 POP POP POP JUMP JUMPDEST PUSH1 0x1 PUSH1 0x1 PUSH1 0xA0 SHL SUB DUP3 AND PUSH2 0x4C9 JUMPI PUSH1 0x40 MLOAD DUP2 SWAP1 PUSH1 0x1 PUSH1 0x1 PUSH1 0xA0 SHL SUB DUP5 AND SWAP1 PUSH32 0xEC9AB91322523C899EDE7830EC9BFC992B5981CDCC27B91162FB23DE5791117B SWAP1 PUSH0 SWAP1 LOG3 POP POP POP JUMP JUMPDEST PUSH2 0xDB2 DUP4 DUP4 PUSH2 0xF80 JUMP JUMPDEST PUSH2 0xDBE PUSH0 DUP5 DUP5 DUP5 PUSH2 0xDDA JUMP JUMPDEST PUSH2 0x4C9 JUMPI PUSH1 0x40 MLOAD PUSH3 0x461BCD PUSH1 0xE5 SHL DUP2 MSTORE PUSH1 0x4 ADD PUSH2 0x428 SWAP1 PUSH2 0x1466 JUMP JUMPDEST PUSH0 PUSH1 0x1 PUSH1 0x1 PUSH1 0xA0 SHL SUB DUP5 AND EXTCODESIZE ISZERO PUSH2 0xECC JUMPI PUSH1 0x40 MLOAD PUSH4 0xA85BD01 PUSH1 0xE1 SHL DUP2 MSTORE PUSH1 0x1 PUSH1 0x1 PUSH1 0xA0 SHL SUB DUP6 AND SWAP1 PUSH4 0x150B7A02 SWAP1 PUSH2 0xE1D SWAP1 CALLER SWAP1 DUP10 SWAP1 DUP9 SWAP1 DUP9 SWAP1 PUSH1 0x4 ADD PUSH2 0x14B8 JUMP JUMPDEST PUSH1 0x20 PUSH1 0x40 MLOAD DUP1 DUP4 SUB DUP2 PUSH0 DUP8 GAS CALL SWAP3 POP POP POP DUP1 ISZERO PUSH2 0xE57 JUMPI POP PUSH1 0x40 DUP1 MLOAD PUSH1 0x1F RETURNDATASIZE SWAP1 DUP2 ADD PUSH1 0x1F NOT AND DUP3 ADD SWAP1 SWAP3 MSTORE PUSH2 0xE54 SWAP2 DUP2 ADD SWAP1 PUSH2 0x14F4 JUMP JUMPDEST PUSH1 0x1 JUMPDEST PUSH2 0xEB2 JUMPI RETURNDATASIZE DUP1 DUP1 ISZERO PUSH2 0xE84 JUMPI PUSH1 0x40 MLOAD SWAP2 POP PUSH1 0x1F NOT PUSH1 0x3F RETURNDATASIZE ADD AND DUP3 ADD PUSH1 0x40 MSTORE RETURNDATASIZE DUP3 MSTORE RETURNDATASIZE PUSH0 PUSH1 0x20 DUP5 ADD RETURNDATACOPY PUSH2 0xE89 JUMP JUMPDEST PUSH1 0x60 SWAP2 POP JUMPDEST POP DUP1 MLOAD PUSH0 SUB PUSH2 0xEAA JUMPI PUSH1 0x40 MLOAD PUSH3 0x461BCD PUSH1 0xE5 SHL DUP2 MSTORE PUSH1 0x4 ADD PUSH2 0x428 SWAP1 PUSH2 0x1466 JUMP JUMPDEST DUP1 MLOAD DUP2 PUSH1 0x20 ADD REVERT JUMPDEST PUSH1 0x1 PUSH1 0x1 PUSH1 0xE0 SHL SUB NOT AND PUSH4 0xA85BD01 PUSH1 0xE1 SHL EQ SWAP1 POP PUSH2 0x936 JUMP JUMPDEST POP PUSH1 0x1 SWAP5 SWAP4 POP POP POP POP JUMP JUMPDEST PUSH0 PUSH2 0xEE1 DUP3 PUSH2 0x5BD JUMP JUMPDEST SWAP1 POP PUSH2 0xEEE DUP2 PUSH0 DUP5 PUSH2 0xCAF JUMP JUMPDEST PUSH2 0xEF8 PUSH0 DUP4 PUSH2 0x810 JUMP JUMPDEST PUSH1 0x1 PUSH1 0x1 PUSH1 0xA0 SHL SUB DUP2 AND PUSH0 SWAP1 DUP2 MSTORE PUSH1 0x3 PUSH1 0x20 MSTORE PUSH1 0x40 DUP2 KECCAK256 DUP1 SLOAD PUSH1 0x1 SWAP3 SWAP1 PUSH2 0xF20 SWAP1 DUP5 SWAP1 PUSH2 0x1440 JUMP JUMPDEST SWAP1 SWAP2 SSTORE POP POP PUSH0 DUP3 DUP2 MSTORE PUSH1 0x2 PUSH1 0x20 MSTORE PUSH1 0x40 DUP1 DUP3 KECCAK256 DUP1 SLOAD PUSH1 0x1 PUSH1 0x1 PUSH1 0xA0 SHL SUB NOT AND SWAP1 SSTORE MLOAD DUP4 SWAP2 SWAP1 PUSH1 0x1 PUSH1 0x1 PUSH1 0xA0 SHL SUB DUP5 AND SWAP1 PUSH32 0xDDF252AD1BE2C89B69C2B068FC378DAA952BA7F163C4A11628F55A4DF523B3EF SWAP1 DUP4 SWAP1 LOG4 PUSH2 0x53F DUP2 PUSH0 DUP5 PUSH2 0xD18 JUMP JUMPDEST PUSH1 0x1 PUSH1 0x1 PUSH1 0xA0 SHL SUB DUP3 AND PUSH2 0xFD6 JUMPI PUSH1 0x40 MLOAD PUSH3 0x461BCD PUSH1 0xE5 SHL DUP2 MSTORE PUSH1 0x20 PUSH1 0x4 DUP3 ADD DUP2 SWAP1 MSTORE PUSH1 0x24 DUP3 ADD MSTORE PUSH32 0x4552433732313A206D696E7420746F20746865207A65726F2061646472657373 PUSH1 0x44 DUP3 ADD MSTORE PUSH1 0x64 ADD PUSH2 0x428 JUMP JUMPDEST PUSH0 DUP2 DUP2 MSTORE PUSH1 0x2 PUSH1 0x20 MSTORE PUSH1 0x40 SWAP1 KECCAK256 SLOAD PUSH1 0x1 PUSH1 0x1 PUSH1 0xA0 SHL SUB AND ISZERO PUSH2 0x103A JUMPI PUSH1 0x40 MLOAD PUSH3 0x461BCD PUSH1 0xE5 SHL DUP2 MSTORE PUSH1 0x20 PUSH1 0x4 DUP3 ADD MSTORE PUSH1 0x1C PUSH1 0x24 DUP3 ADD MSTORE PUSH32 0x4552433732313A20746F6B656E20616C7265616479206D696E74656400000000 PUSH1 0x44 DUP3 ADD MSTORE PUSH1 0x64 ADD PUSH2 0x428 JUMP JUMPDEST PUSH2 0x1045 PUSH0 DUP4 DUP4 PUSH2 0xCAF JUMP JUMPDEST PUSH1 0x1 PUSH1 0x1 PUSH1 0xA0 SHL SUB DUP3 AND PUSH0 SWAP1 DUP2 MSTORE PUSH1 0x3 PUSH1 0x20 MSTORE PUSH1 0x40 DUP2 KECCAK256 DUP1 SLOAD PUSH1 0x1 SWAP3 SWAP1 PUSH2 0x106D SWAP1 DUP5 SWAP1 PUSH2 0x1453 JUMP JUMPDEST SWAP1 SWAP2 SSTORE POP POP PUSH0 DUP2 DUP2 MSTORE PUSH1 0x2 PUSH1 0x20 MSTORE PUSH1 0x40 DUP1 DUP3 KECCAK256 DUP1 SLOAD PUSH1 0x1 PUSH1 0x1 PUSH1 0xA0 SHL SUB NOT AND PUSH1 0x1 PUSH1 0x1 PUSH1 0xA0 SHL SUB DUP7 AND SWAP1 DUP2 OR SWAP1 SWAP2 SSTORE SWAP1 MLOAD DUP4 SWAP3 SWAP1 PUSH32 0xDDF252AD1BE2C89B69C2B068FC378DAA952BA7F163C4A11628F55A4DF523B3EF SWAP1 DUP3 SWAP1 LOG4 PUSH2 0x53F PUSH0 DUP4 DUP4 PUSH2 0xD18 JUMP JUMPDEST POP DUP1 SLOAD PUSH2 0x10DD SWAP1 PUSH2 0x13A6 JUMP JUMPDEST PUSH0 DUP3 SSTORE DUP1 PUSH1 0x1F LT PUSH2 0x10EC JUMPI POP POP JUMP JUMPDEST PUSH1 0x1F ADD PUSH1 0x20 SWAP1 DIV SWAP1 PUSH0 MSTORE PUSH1 0x20 PUSH0 KECCAK256 SWAP1 DUP2 ADD SWAP1 PUSH2 0x4DF SWAP2 SWAP1 JUMPDEST DUP1 DUP3 GT ISZERO PUSH2 0x1117 JUMPI PUSH0 DUP2 SSTORE PUSH1 0x1 ADD PUSH2 0x1104 JUMP JUMPDEST POP SWAP1 JUMP JUMPDEST PUSH1 0x1 PUSH1 0x1 PUSH1 0xE0 SHL SUB NOT DUP2 AND DUP2 EQ PUSH2 0x4DF JUMPI PUSH0 DUP1 REVERT JUMPDEST PUSH0 PUSH1 0x20 DUP3 DUP5 SUB SLT ISZERO PUSH2 0x1140 JUMPI PUSH0 DUP1 REVERT JUMPDEST DUP2 CALLDATALOAD PUSH2 0x114B DUP2 PUSH2 0x111B JUMP JUMPDEST SWAP4 SWAP3 POP POP POP JUMP JUMPDEST PUSH0 DUP2 MLOAD DUP1 DUP5 MSTORE PUSH0 JUMPDEST DUP2 DUP2 LT ISZERO PUSH2 0x1176 JUMPI PUSH1 0x20 DUP2 DUP6 ADD DUP2 ADD MLOAD DUP7 DUP4 ADD DUP3 ADD MSTORE ADD PUSH2 0x115A JUMP JUMPDEST POP PUSH0 PUSH1 0x20 DUP3 DUP7 ADD ADD MSTORE PUSH1 0x20 PUSH1 0x1F NOT PUSH1 0x1F DUP4 ADD AND DUP6 ADD ADD SWAP2 POP POP SWAP3 SWAP2 POP POP JUMP JUMPDEST PUSH1 0x20 DUP2 MSTORE PUSH0 PUSH2 0x114B PUSH1 0x20 DUP4 ADD DUP5 PUSH2 0x1152 JUMP JUMPDEST PUSH0 PUSH1 0x20 DUP3 DUP5 SUB SLT ISZERO PUSH2 0x11B7 JUMPI PUSH0 DUP1 REVERT JUMPDEST POP CALLDATALOAD SWAP2 SWAP1 POP JUMP JUMPDEST DUP1 CALLDATALOAD PUSH1 0x1 PUSH1 0x1 PUSH1 0xA0 SHL SUB DUP2 AND DUP2 EQ PUSH2 0x11D4 JUMPI PUSH0 DUP1 REVERT JUMPDEST SWAP2 SWAP1 POP JUMP JUMPDEST PUSH0 DUP1 PUSH1 0x40 DUP4 DUP6 SUB SLT ISZERO PUSH2 0x11EA JUMPI PUSH0 DUP1 REVERT JUMPDEST PUSH2 0x11F3 DUP4 PUSH2 0x11BE JUMP JUMPDEST SWAP5 PUSH1 0x20 SWAP4 SWAP1 SWAP4 ADD CALLDATALOAD SWAP4 POP POP POP JUMP JUMPDEST PUSH0 DUP1 PUSH0 PUSH1 0x60 DUP5 DUP7 SUB SLT ISZERO PUSH2 0x1213 JUMPI PUSH0 DUP1 REVERT JUMPDEST PUSH2 0x121C DUP5 PUSH2 0x11BE JUMP JUMPDEST SWAP3 POP PUSH2 0x122A PUSH1 0x20 DUP6 ADD PUSH2 0x11BE JUMP JUMPDEST SWAP2 POP PUSH1 0x40 DUP5 ADD CALLDATALOAD SWAP1 POP SWAP3 POP SWAP3 POP SWAP3 JUMP JUMPDEST PUSH0 PUSH1 0x20 DUP3 DUP5 SUB SLT ISZERO PUSH2 0x124A JUMPI PUSH0 DUP1 REVERT JUMPDEST PUSH2 0x114B DUP3 PUSH2 0x11BE JUMP JUMPDEST PUSH0 DUP1 PUSH1 0x40 DUP4 DUP6 SUB SLT ISZERO PUSH2 0x1264 JUMPI PUSH0 DUP1 REVERT JUMPDEST PUSH2 0x126D DUP4 PUSH2 0x11BE JUMP JUMPDEST SWAP2 POP PUSH1 0x20 DUP4 ADD CALLDATALOAD DUP1 ISZERO ISZERO DUP2 EQ PUSH2 0x1281 JUMPI PUSH0 DUP1 REVERT JUMPDEST DUP1 SWAP2 POP POP SWAP3 POP SWAP3 SWAP1 POP JUMP JUMPDEST PUSH4 0x4E487B71 PUSH1 0xE0 SHL PUSH0 MSTORE PUSH1 0x41 PUSH1 0x4 MSTORE PUSH1 0x24 PUSH0 REVERT JUMPDEST PUSH0 DUP1 PUSH0 DUP1 PUSH1 0x80 DUP6 DUP8 SUB SLT ISZERO PUSH2 0x12B3 JUMPI PUSH0 DUP1 REVERT JUMPDEST PUSH2 0x12BC DUP6 PUSH2 0x11BE JUMP JUMPDEST SWAP4 POP PUSH2 0x12CA PUSH1 0x20 DUP7 ADD PUSH2 0x11BE JUMP JUMPDEST SWAP3 POP PUSH1 0x40 DUP6 ADD CALLDATALOAD SWAP2 POP PUSH1 0x60 DUP6 ADD CALLDATALOAD PUSH8 0xFFFFFFFFFFFFFFFF DUP1 DUP3 GT ISZERO PUSH2 0x12ED JUMPI PUSH0 DUP1 REVERT JUMPDEST DUP2 DUP8 ADD SWAP2 POP DUP8 PUSH1 0x1F DUP4 ADD SLT PUSH2 0x1300 JUMPI PUSH0 DUP1 REVERT JUMPDEST DUP2 CALLDATALOAD DUP2 DUP2 GT ISZERO PUSH2 0x1312 JUMPI PUSH2 0x1312 PUSH2 0x128C JUMP JUMPDEST PUSH1 0x40 MLOAD PUSH1 0x1F DUP3 ADD PUSH1 0x1F NOT SWAP1 DUP2 AND PUSH1 0x3F ADD AND DUP2 ADD SWAP1 DUP4 DUP3 GT DUP2 DUP4 LT OR ISZERO PUSH2 0x133A JUMPI PUSH2 0x133A PUSH2 0x128C JUMP JUMPDEST DUP2 PUSH1 0x40 MSTORE DUP3 DUP2 MSTORE DUP11 PUSH1 0x20 DUP5 DUP8 ADD ADD GT ISZERO PUSH2 0x1352 JUMPI PUSH0 DUP1 REVERT JUMPDEST DUP3 PUSH1 0x20 DUP7 ADD PUSH1 0x20 DUP4 ADD CALLDATACOPY PUSH0 PUSH1 0x20 DUP5 DUP4 ADD ADD MSTORE DUP1 SWAP6 POP POP POP POP POP POP SWAP3 SWAP6 SWAP2 SWAP5 POP SWAP3 POP JUMP JUMPDEST PUSH0 DUP1 PUSH1 0x40 DUP4 DUP6 SUB SLT ISZERO PUSH2 0x1386 JUMPI PUSH0 DUP1 REVERT JUMPDEST PUSH2 0x138F DUP4 PUSH2 0x11BE JUMP JUMPDEST SWAP2 POP PUSH2 0x139D PUSH1 0x20 DUP5 ADD PUSH2 0x11BE JUMP JUMPDEST SWAP1 POP SWAP3 POP SWAP3 SWAP1 POP JUMP JUMPDEST PUSH1 0x1 DUP2 DUP2 SHR SWAP1 DUP3 AND DUP1 PUSH2 0x13BA JUMPI PUSH1 0x7F DUP3 AND SWAP2 POP JUMPDEST PUSH1 0x20 DUP3 LT DUP2 SUB PUSH2 0x13D8 JUMPI PUSH4 0x4E487B71 PUSH1 0xE0 SHL PUSH0 MSTORE PUSH1 0x22 PUSH1 0x4 MSTORE PUSH1 0x24 PUSH0 REVERT JUMPDEST POP SWAP2 SWAP1 POP JUMP JUMPDEST PUSH1 0x20 DUP1 DUP3 MSTORE PUSH1 0x2E SWAP1 DUP3 ADD MSTORE PUSH32 0x4552433732313A2063616C6C6572206973206E6F7420746F6B656E206F776E65 PUSH1 0x40 DUP3 ADD MSTORE PUSH14 0x1C881B9BDC88185C1C1C9BDD9959 PUSH1 0x92 SHL PUSH1 0x60 DUP3 ADD MSTORE PUSH1 0x80 ADD SWAP1 JUMP JUMPDEST PUSH4 0x4E487B71 PUSH1 0xE0 SHL PUSH0 MSTORE PUSH1 0x11 PUSH1 0x4 MSTORE PUSH1 0x24 PUSH0 REVERT JUMPDEST DUP2 DUP2 SUB DUP2 DUP2 GT ISZERO PUSH2 0x2FB JUMPI PUSH2 0x2FB PUSH2 0x142C JUMP JUMPDEST DUP1 DUP3 ADD DUP1 DUP3 GT ISZERO PUSH2 0x2FB JUMPI PUSH2 0x2FB PUSH2 0x142C JUMP JUMPDEST PUSH1 0x20 DUP1 DUP3 MSTORE PUSH1 0x32 SWAP1 DUP3 ADD MSTORE PUSH32 0x4552433732313A207472616E7366657220746F206E6F6E204552433732315265 PUSH1 0x40 DUP3 ADD MSTORE PUSH18 0x31B2B4BB32B91034B6B83632B6B2B73A32B9 PUSH1 0x71 SHL PUSH1 0x60 DUP3 ADD MSTORE PUSH1 0x80 ADD SWAP1 JUMP JUMPDEST PUSH1 0x1 PUSH1 0x1 PUSH1 0xA0 SHL SUB DUP6 DUP2 AND DUP3 MSTORE DUP5 AND PUSH1 0x20 DUP3 ADD MSTORE PUSH1 0x40 DUP2 ADD DUP4 SWAP1 MSTORE PUSH1 0x80 PUSH1 0x60 DUP3 ADD DUP2 SWAP1 MSTORE PUSH0 SWAP1 PUSH2 0x14EA SWAP1 DUP4 ADD DUP5 PUSH2 0x1152 JUMP JUMPDEST SWAP7 SWAP6 POP POP POP POP POP POP JUMP JUMPDEST PUSH0 PUSH1 0x20 DUP3 DUP5 SUB SLT ISZERO PUSH2 0x1504 JUMPI PUSH0 DUP1 REVERT JUMPDEST DUP2 MLOAD PUSH2 0x114B DUP2 PUSH2 0x111B JUMP INVALID PUSH10 0x7066733A2F2F62616679 PUSH3 0x656964 PUSH21 0x35626F79346F757363336A6C377636763578766C65 CALLDATASIZE PUSH26 0x62697465716475656B376D6F696C3667747A616A617A66787132 PUSH26 0x2FA2646970667358221220AD647847B27A3BB5914331664810C4 SIGNEXTEND MLOAD ADDRESS CREATE 0xB9 PUSH29 0xD01D1923B491EDA796EB9164736F6C6343000817003300000000000000 "
				},
				"gasEstimates": {
					"creation": {
						"codeDepositCost": "1102400",
						"executionCost": "infinite",
						"totalCost": "infinite"
					},
					"external": {
						"approve(address,uint256)": "infinite",
						"balanceOf(address)": "2630",
						"burn(uint256)": "infinite",
						"getApproved(uint256)": "4787",
						"isApprovedForAll(address,address)": "infinite",
						"name()": "infinite",
						"owner()": "2419",
						"ownerOf(uint256)": "2558",
						"renounceOwnership()": "infinite",
						"revoke(uint256)": "infinite",
						"safeMint(address)": "infinite",
						"safeTransferFrom(address,address,uint256)": "infinite",
						"safeTransferFrom(address,address,uint256,bytes)": "infinite",
						"setApprovalForAll(address,bool)": "26702",
						"supportsInterface(bytes4)": "531",
						"symbol()": "infinite",
						"tokenURI(uint256)": "infinite",
						"transferFrom(address,address,uint256)": "infinite",
						"transferOwnership(address)": "28443"
					},
					"internal": {
						"_afterTokenTransfer(address,address,uint256)": "1640",
						"_baseURI()": "infinite",
						"_beforeTokenTransfer(address,address,uint256)": "infinite",
						"_burn(uint256)": "infinite"
					}
				},
				"methodIdentifiers": {
					"approve(address,uint256)": "095ea7b3",
					"balanceOf(address)": "70a08231",
					"burn(uint256)": "42966c68",
					"getApproved(uint256)": "081812fc",
					"isApprovedForAll(address,address)": "e985e9c5",
					"name()": "06fdde03",
					"owner()": "8da5cb5b",
					"ownerOf(uint256)": "6352211e",
					"renounceOwnership()": "715018a6",
					"revoke(uint256)": "20c5429b",
					"safeMint(address)": "40d097c3",
					"safeTransferFrom(address,address,uint256)": "42842e0e",
					"safeTransferFrom(address,address,uint256,bytes)": "b88d4fde",
					"setApprovalForAll(address,bool)": "a22cb465",
					"supportsInterface(bytes4)": "01ffc9a7",
					"symbol()": "95d89b41",
					"tokenURI(uint256)": "c87b56dd",
					"transferFrom(address,address,uint256)": "23b872dd",
					"transferOwnership(address)": "f2fde38b"
				}
			},
			"storageLayout": {
				"storage": [
					{
						"astId": 138,
						"contract": "CryDapeSBT.sol:CryDapeSBT",
						"label": "_name",
						"offset": 0,
						"slot": "0",
						"type": "t_string_storage"
					},
					{
						"astId": 140,
						"contract": "CryDapeSBT.sol:CryDapeSBT",
						"label": "_symbol",
						"offset": 0,
						"slot": "1",
						"type": "t_string_storage"
					},
					{
						"astId": 144,
						"contract": "CryDapeSBT.sol:CryDapeSBT",
						"label": "_owners",
						"offset": 0,
						"slot": "2",
						"type": "t_mapping(t_uint256,t_address)"
					},
					{
						"astId": 148,
						"contract": "CryDapeSBT.sol:CryDapeSBT",
						"label": "_balances",
						"offset": 0,
						"slot": "3",
						"type": "t_mapping(t_address,t_uint256)"
					},
					{
						"astId": 152,
						"contract": "CryDapeSBT.sol:CryDapeSBT",
						"label": "_tokenApprovals",
						"offset": 0,
						"slot": "4",
						"type": "t_mapping(t_uint256,t_address)"
					},
					{
						"astId": 158,
						"contract": "CryDapeSBT.sol:CryDapeSBT",
						"label": "_operatorApprovals",
						"offset": 0,
						"slot": "5",
						"type": "t_mapping(t_address,t_mapping(t_address,t_bool))"
					},
					{
						"astId": 1126,
						"contract": "CryDapeSBT.sol:CryDapeSBT",
						"label": "_tokenURIs",
						"offset": 0,
						"slot": "6",
						"type": "t_mapping(t_uint256,t_string_storage)"
					},
					{
						"astId": 7,
						"contract": "CryDapeSBT.sol:CryDapeSBT",
						"label": "_owner",
						"offset": 0,
						"slot": "7",
						"type": "t_address"
					},
					{
						"astId": 1940,
						"contract": "CryDapeSBT.sol:CryDapeSBT",
						"label": "_tokenIdCounter",
						"offset": 0,
						"slot": "8",
						"type": "t_struct(Counter)1588_storage"
					}
				],
				"types": {
					"t_address": {
						"encoding": "inplace",
						"label": "address",
						"numberOfBytes": "20"
					},
					"t_bool": {
						"encoding": "inplace",
						"label": "bool",
						"numberOfBytes": "1"
					},
					"t_mapping(t_address,t_bool)": {
						"encoding": "mapping",
						"key": "t_address",
						"label": "mapping(address => bool)",
						"numberOfBytes": "32",
						"value": "t_bool"
					},
					"t_mapping(t_address,t_mapping(t_address,t_bool))": {
						"encoding": "mapping",
						"key": "t_address",
						"label": "mapping(address => mapping(address => bool))",
						"numberOfBytes": "32",
						"value": "t_mapping(t_address,t_bool)"
					},
					"t_mapping(t_address,t_uint256)": {
						"encoding": "mapping",
						"key": "t_address",
						"label": "mapping(address => uint256)",
						"numberOfBytes": "32",
						"value": "t_uint256"
					},
					"t_mapping(t_uint256,t_address)": {
						"encoding": "mapping",
						"key": "t_uint256",
						"label": "mapping(uint256 => address)",
						"numberOfBytes": "32",
						"value": "t_address"
					},
					"t_mapping(t_uint256,t_string_storage)": {
						"encoding": "mapping",
						"key": "t_uint256",
						"label": "mapping(uint256 => string)",
						"numberOfBytes": "32",
						"value": "t_string_storage"
					},
					"t_string_storage": {
						"encoding": "bytes",
						"label": "string",
						"numberOfBytes": "32"
					},
					"t_struct(Counter)1588_storage": {
						"encoding": "inplace",
						"label": "struct Counters.Counter",
						"members": [
							{
								"astId": 1587,
								"contract": "CryDapeSBT.sol:CryDapeSBT",
								"label": "_value",
								"offset": 0,
								"slot": "0",
								"type": "t_uint256"
							}
						],
						"numberOfBytes": "32"
					},
					"t_uint256": {
						"encoding": "inplace",
						"label": "uint256",
						"numberOfBytes": "32"
					}
				}
			},
			"userdoc": {
				"kind": "user",
				"methods": {},
				"version": 1
			}
		}
	}
}